:020000040000FA
:10000000182E0020150300001D0300001F03000030
:10001000210300002303000025030000000000006E
:10002000000000000000000000000000E1060000E9
:100030002903000000000000710600000507000011
:100040002F030000310300003303000035030000DC
:1000500037030000390300003B0300003D030000AC
:100060003F0300004103000043030000450300007C
:1000700047030000490300004B0300004D0300004C
:100080004F0300005103000053030000550300001C
:1000900057030000590300005B0300005D030000EC
:1000A0005F030000610300006303000065030000BC
:1000B00067030000690300006B0300006D0300008C
:1000C0006F0300007103000073030000750300005C
:1000D00077030000790300007B0300007D0300002C
:1000E0007F03000081030000000000008303000084
:1000F0008503000087030000890300008B030000D4
:100100008D0300008F0300009103000093030000A3
:1001100000000000000000009503000097030000AD
:10012000990300009B0300009D0300009F03000053
:10013000A1030000A3030000A5030000A703000023
:1001400000000000000000000000000000000000AF
:10015000A9030000AB030000AD030000AF030000E3
:10016000000000000000000000000000000000008F
:10017000000000000000000000000000000000007F
:10018000000000000000000000000000000000006F
:10019000000000000000000000000000000000005F
:1001A000000000000000000000000000000000004F
:1001B000B1030000B3030000B5030000B703000063
:1001C000B9030000BB030000BD030000BF03000033
:1001D000C1030000C3030000C5030000C703000003
:1001E000C9030000CB030000CD03000000000000A5
:1001F00000000000CF030000D1030000D303000083
:10020000D5030000D703000000000000000000003C
:10021000D9030000DB030000DD030000DF03000062
:10022000E1030000E3030000E5030000E703000032
:10023000E9030000EB030000ED030000EF03000002
:10024000F1030000F3030000F5030000F7030000D2
:10025000F9030000FB030000FD030000FF030000A2
:1002600001040000030400000504000000F002F88F
:1002700000F03CF80AA090E8000C82448344AAF104
:100280000107DA4501D100F031F8AFF2090EBAE802
:100290000F0013F0010F18BFFB1A43F001031847BA
:1002A0004834000068340000103A24BF78C878C190
:1002B000FAD8520724BF30C830C144BF04680C606C
:1002C000704700000023002400250026103A28BFB4
:1002D00078C1FBD8520728BF30C148BF0B607047B8
:1002E0001FB500F0A7F91FBD10B510BD00F067F9EC
:1002F000114603B400F048FB03BCFFF7F1FF00F028
:1003000067FB00F081F903B4FFF7EEFF03BC00F0D8
:1003100089F900003F4880473F480047FEE7FEE775
:10032000FEE7FEE7FEE7FEE7FEE7FEE7FEE7FEE7A5
:10033000FEE7FEE7FEE7FEE7FEE7FEE7FEE7FEE795
:10034000FEE7FEE7FEE7FEE7FEE7FEE7FEE7FEE785
:10035000FEE7FEE7FEE7FEE7FEE7FEE7FEE7FEE775
:10036000FEE7FEE7FEE7FEE7FEE7FEE7FEE7FEE765
:10037000FEE7FEE7FEE7FEE7FEE7FEE7FEE7FEE755
:10038000FEE7FEE7FEE7FEE7FEE7FEE7FEE7FEE745
:10039000FEE7FEE7FEE7FEE7FEE7FEE7FEE7FEE735
:1003A000FEE7FEE7FEE7FEE7FEE7FEE7FEE7FEE725
:1003B000FEE7FEE7FEE7FEE7FEE7FEE7FEE7FEE715
:1003C000FEE7FEE7FEE7FEE7FEE7FEE7FEE7FEE705
:1003D000FEE7FEE7FEE7FEE7FEE7FEE7FEE7FEE7F5
:1003E000FEE7FEE7FEE7FEE7FEE7FEE7FEE7FEE7E5
:1003F000FEE7FEE7FEE7FEE7FEE7FEE7FEE7FEE7D5
:10040000FEE7FEE7FEE7000004480549034A054B06
:1004100070470000250700006D020000182C002026
:10042000182E0020182C0020032A40F2308010F0F3
:10043000030C00F0158011F8013BBCF1020F62447F
:1004400098BF11F801CB00F8013B38BF11F8013B10
:10045000A2F1040298BF00F801CB38BF00F8013BBD
:1004600011F0030300F05280083AC0F0088051F800
:10047000043B083A51F804CBA0E80810F5E7121D38
:100480005CBF51F8043B40F8043BAFF30080D20757
:1004900024BF11F8013B11F801CB48BF11F8012B23
:1004A00024BF00F8013B00F801CB48BF00F8012B46
:1004B000704702F0FF0343EA032242EA024200F0DF
:1004C00059B84FF000020429C0F0128010F0030C5C
:1004D00000F05080CCF1040CBCF1020F18BF00F802
:1004E000012BA8BF20F8022BA1EB0C0100F042B8B1
:1004F0005FEAC17C24BF00F8012B00F8012B48BF44
:1005000000F8012B704770477047704710B5203ACC
:10051000C0F00B80B1E81850A0E81850B1E81850AE
:10052000A0E81850203ABFF4F5AF5FEA027C24BF80
:10053000B1E81850A0E8185044BF18C918C0BDE869
:1005400010405FEA827C24BF51F8043B40F8043B32
:1005500008BF7047D20728BF31F8023B48BF11F8E7
:10056000012B28BF20F8023B48BF00F8012B704741
:100570004FF0000200B5134694469646203922BF3C
:10058000A0E80C50A0E80C50B1F12001BFF4F7AF87
:10059000090728BFA0E80C5048BF0CC05DF804EB69
:1005A000890028BF40F8042B08BF704748BF20F8D7
:1005B000022B11F0804F18BF00F8012B70477546D1
:1005C00000F02CF8AE4605006946534620F00700BF
:1005D000854618B020B5FFF717FFBDE820404FF063
:1005E00000064FF000074FF000084FF0000BAC463C
:1005F000ACE8C009ACE8C009ACE8C009ACE8C00987
:1006000021F007018D46704710B50446AFF3008016
:100610002046BDE81040FFF776BE00000048704756
:100620000800002001491820ABBEFEE726000200AA
:100630007047000080B503F035F8F1EE100A4EF671
:100640003C71CEF20001086080BD000080B502F070
:10065000A1FB00EE100AB8EE400A9FED021A80EEF0
:10066000010A80BD00007A44000000000000000084
:10067000EFF30980BFF36F8F154B1A681EF0100F50
:1006800008BF20ED108A20E9F04F10602DE9090025
:100690004FF0800080F31188BFF34F8FBFF36F8F4F
:1006A00001F020FE4FF0000080F31188BDE8090042
:1006B00019680868B0E8F04F1EF0100F08BFB0ECE2
:1006C000108A80F30988BFF36F8F704700BF00BFA7
:1006D000B802002000000000000000000000000040
:1006E000074B19680868B0E8F04F80F30988BFF33A
:1006F0006F8F4FF0000080F31188704700BF00BF7C
:10070000B802002080B54EF21000CEF20000006862
:1007100002F024FB012803D0FFE701F0A7FEFFE76A
:1007200080BD000081B04EF68851CEF2000108680D
:1007300040F4700008604EF27001C4F20F0142F6FE
:100740001000C0F2807008604EF26002C4F20F0226
:1007500043F6D120C0F28E70106042F64250C0F2D3
:100760009E10106042F60000C0F280100860002069
:100770000090FFE70098C0087C2805D8FFE7FFE756
:10078000009801300090F5E74EF26001C4F20F01CD
:1007900040F64250C0F29E1008604EF27001C4F262
:1007A0000F0140F60000C0F28010086000200090A9
:1007B000FFE70098C0087C2805D8FFE7FFE700980E
:1007C00001300090F5E74EF26001C4F20F0140F6EF
:1007D0004250C0F2DE100860FFE74EF25000C4F253
:1007E0000F00006800F04000402801D0FFE7F4E768
:1007F0004EF26001C4F20F0140F24250C0F2DE102E
:1008000008604EF27001C4F20F014FF0C070086032
:1008100000200090FFE7009842F20F71884205D84F
:10082000FFE7FFE7009801300090F4E701B0704760
:10083000704700007047000080B582B0019000F062
:10084000F1F858B1FFE700F0B3F838B1FFE70198CD
:1008500000684FF0FF3102F099F8FFE702B080BD69
:1008600080B582B001900198006801F031FB002052
:100870000090FFE7009804281AD8FFE70198006865
:10088000009A40F20021C2F2000151F82210884281
:1008900009D1FFE7009A40F20021C2F200010020D6
:1008A00041F8220004E0FFE7009801300090E1E702
:1008B00002B080BD80B584B001900199002008602D
:1008C0000090FFE70098042828D8FFE7009940F23D
:1008D0000020C2F2000050F82100D0B9FFE70098D4
:1008E00000EB800140F27000C2F2000000EB011149
:1008F000012001F0EFFD0146009A40F20020C2F213
:10090000000040F82210009950F821000199086079
:1009100004E0FFE7009801300090D3E701980068F9
:1009200050B9FFE700F07EF830B1FFE7012001F099
:10093000BDFD01990860FFE700200390039880F354
:1009400011880198006818B9FFE70020029002E0C2
:1009500001200290FFE7029804B080BD80B582B00C
:10096000019000F05FF860B1FFE700F021F840B1BE
:10097000FFE701980068002319461A4601F0A6FE19
:10098000FFE702B080BD00007047000081B000208A
:100990000090FFE7009848F29F61C0F20101884291
:1009A00004DCFFE7009801300090F3E701B07047E6
:1009B00082B0EFF305800190019818B1FFE70120A4
:1009C000009002E000200090FFE7009802B070471E
:1009D00080B586B000230393059369464B600120E0
:1009E0000490086041F6A570C0F2000043F2CD61AA
:1009F000C0F200016422029202F0FAF8029A039B0C
:100A0000049869464B60086041F6FD70C0F2000032
:100A100043F2BE61C0F2000102F0EAF801F020FCEE
:100A2000FFE7FEE780B582B002F098F9022803D113
:100A3000FFE70120019002E000200190FFE701980C
:100A400002B080BD80B588B00790069142F60440A0
:100A5000C2F200000068049040F2C020C2F2000020
:100A60000068039040F2C820C2F2000000680290C3
:100A700040F2B820C2F200000268002182F85A1049
:100A80000068043001F0E4F808B9FFE700E0FFE790
:100A90000798013028BBFFE7069810B3FFE7FFE790
:100AA00042F6DC31C2F2000148680190019A40F23E
:100AB000B820C2F2000003689A60019A9268036845
:100AC000DA6002680432019B9B685A600268043253
:100AD000019B9A6000684161086801300860FFE787
:100AE00035E00498079908440590059840F2B8212C
:100AF000C2F20001096848600598049988420AD248
:100B0000FFE7029840F2B821C2F2000109680431FF
:100B100001F014F91AE0039840F2B821C2F2000182
:100B20000968043101F00AF9059842F6A831C2F2C9
:100B300000010968884207D2FFE7059842F6A8310C
:100B4000C2F20001086000E0FFE7FFE7FFE708B03E
:100B500080BD000080B582B0019001F02FF942F213
:100B60004071C2F2000108680130086040F2B8200C
:100B7000C2F20000006898B9FFE7019840F2B8217E
:100B8000C2F20001086042F24070C2F20000006848
:100B9000012803D1FFE700F0E5FB00E0FFE71CE0E0
:100BA00042F6D030C2F200000068A0B9FFE740F280
:100BB000B820C2F200000068C06A0199C96A884280
:100BC00007D8FFE7019840F2B821C2F2000108609F
:100BD00000E0FFE700E0FFE7FFE742F24C70C2F2FF
:100BE0000000016801310160006801994864FFE775
:100BF000FFE70198C06A42F25071C2F20001096831
:100C0000884208D9FFE70198C06A42F25071C2F2E7
:100C100000010860FFE7FFE7FFE70198C06A00EB0B
:100C2000800040F2D021C2F2000101EB8000406858
:100C300000900098019A906000988068019AD060B6
:100C400001980430009A9268506001980430009A2C
:100C50009060019AD06A00EB800001EB8000506147
:100C60000198C06A00EB800251F82200013041F87F
:100C70002200FFE7FFE701F0B9F842F6D030C2F2F8
:100C800000000068D8B1FFE7FFE740F2B820C2F2E9
:100C900000000068C06A0199C96A88420CD2FFE767
:100CA0004EF60451CEF200014FF080500860BFF3C1
:100CB0004F8FBFF36F8F00E0FFE7FFE700E0FFE734
:100CC00002B080BD80B584B001F078F842F60840EB
:100CD000C2F20000006878BBFFE742F64C30C2F277
:100CE0000000029001F00AF842F66030C2F2000003
:100CF000039001F003F80299039840F2BC22C2F27B
:100D00000002116040F2CC21C2F200010860694685
:100D10000020086040F21422C2F2000240F2642374
:100D2000C2F200030520102101F032FC42F6084116
:100D3000C2F20001086000E0FFE701F057F804B0DC
:100D400080BD000080B582B0FFE742F24470C2F27D
:100D50000000006808B3FFE701F030F842F6F03019
:100D6000C2F20000C068C06801900198043000F031
:100D70006FFF42F24071C2F200010868013808605A
:100D800042F24471C2F2000108680138086001F0C3
:100D90002DF8019800F074F9D7E702B080BD00008B
:100DA00080B582B0019000910198006CB8B1FFE766
:100DB0000199C8680A6C1044C86001988168C068CD
:100DC000884204D3FFE701990868C86000E0FFE7A4
:100DD0000098019AD168126CFFF726FBFFE702B07A
:100DE00080BD000080B586B005900491039200207C
:100DF00002900598806B01900598006C78B9FFE728
:100E00000598006848B9FFE70598806802F0FCF88B
:100E1000029005990020886000E0FFE741E0039818
:100E2000B8B9FFE7059A04995068126CFFF7FCFA0D
:100E3000059948680A6C10444860059948688968B3
:100E4000884204D3FFE705990868486000E0FFE79F
:100E500026E0059A0499D068126CFFF7E5FA059927
:100E6000C8680A6C801AC86005980168C068884222
:100E700006D2FFE7059988680A6C801AC86000E00E
:100E8000FFE70398022809D1FFE7019820B1FFE7A7
:100E900001980138019000E0FFE700E0FFE7FFE77D
:100EA000FFE70198013005998863029806B080BD7C
:100EB00080B590B001200F90002009900890FFE7C6
:100EC00008980F2813DCFFE7089A43F2D760C0F2B6
:100ED0000000815C0AA881540899405C08B9FFE7CA
:100EE00005E0FFE7FFE7089801300890E8E70020F9
:100EF0000E90FFE70E9800283BDCFFE741F2D1108F
:100F0000C0F200000990002004900790069007A806
:100F100006A905AA00F0C0FE049B0998059ADDF811
:100F200018C0DDF81CE06946C1F808E0C1F804C04B
:100F30000B600AA901F086FE01460E9A42F6A03027
:100F4000C2F2000040F822100E9950F8210018B1AA
:100F5000FFE701200F9002E000200F90FFE70F98BD
:100F600008B9FFE705E0FFE7FFE70E9801300E90B4
:100F7000C0E70F9810B080BD70B58AB0DDF844C0EE
:100F8000DDF840C0DDF83CC0DDF838C009900891BC
:100F900007920693109828B3FFE70F9810B3FFE766
:100FA0001098059005985C21FFF78BFA0F9805992A
:100FB00008630599022081F8590009980899079A51
:100FC000069BDDF838C0119C059DEE460026CEF844
:100FD0000C60CEF80850CEF80440CEF800C000F007
:100FE0004DF902E000200590FFE705980AB070BDBA
:100FF00070B58AB0DDF83CC0DDF838C009900891C2
:10100000079206930798800000F004FD049004986E
:10101000A0B1FFE75C2000F0FDFC0590059840B111
:10102000FFE705985C21FFF74CFA049805990863DF
:1010300003E0049800F0EEFEFFE702E000200590D8
:10104000FFE70598C0B1FFE70598002680F85960D2
:1010500009980899079A069BDDF838C00F9C059DF2
:10106000EE46CEF80C60CEF80850CEF80440CEF82C
:1010700000C000F003F9FFE705980AB070BD00005A
:1010800080B582B00190019890F8590040B9FFE70F
:101090000198006B00F0BEFE019800F0BBFE0BE073
:1010A000019890F85900012804D1FFE7019800F059
:1010B000B1FE00E0FFE7FFE702B080BD82B0019023
:1010C0000198406A38B1FFE70198006B0068C0F1F1
:1010D0003800009002E000200090FFE7009802B086
:1010E0007047000082B0019040F2BC20C2F20000C4
:1010F00000680068B0FA80F0400901990860019822
:10110000006848B9FFE740F2BC20C2F20000006866
:10111000C0680068009002E000200090FFE700989F
:1011200002B0704784B04FF40050009040F240701D
:10113000C2F2000002909DF80800400788B1FFE766
:10114000029807300290029820F007000290029A5D
:1011500040F24071C2F200010098891A08440090E0
:10116000FFE7029942F6D430C2F20000016000218C
:1011700041600298009A104401900198083801904B
:10118000019820F007000190019A40F2C420C2F2B9
:1011900000000260026851600268116002990391C8
:1011A0000199039A891A51600068039908600398AD
:1011B000406842F6A431C2F200010860039840681A
:1011C00042F69C31C2F20001086004B07047000092
:1011D00080B582B00190FFE7FFF7B4FD40F2D02068
:1011E000C2F20000006802280CD3FFE74EF604515B
:1011F000CEF200014FF080500860BFF34F8FBFF375
:101200006F8F00E0FFE7E7E780B582B001900198BB
:1012100068B1FFE70198002383600198036001989B
:10122000C360019819461A4601F050FA00E0FFE742
:1012300002B080BD80B584B0DDF818C00390029183
:1012400001928DF80330029818B9FFE70698006004
:1012500003E0019806990860FFE703980699C863C0
:101260000298069908640698012101F0C7F99DF8D3
:101270000300069981F84C0004B080BD80B586B0AB
:10128000DDF82CC0DDF828C0DDF824C0DDF820C072
:1012900005900491039202930A98006B03998900C8
:1012A000A522FFF706F90A98006B039900EB81006D
:1012B00004380190019820F0070001900498F8B1DB
:1012C000FFE700200090FFE700980F2813D8FFE702
:1012D0000498009A805C0A99114481F834000498BB
:1012E0000099405C08B9FFE705E0FFE7FFE70098D9
:1012F00001300090E8E70A99002081F8430000E0FF
:10130000FFE70898382803D3FFE73720089000E06C
:10131000FFE708980A99C86208980A99C8640A9869
:10132000043000F003FD0A98183000F0FFFC0A9822
:1013300000610898C0F138000A9988610A984062F3
:1013400001980599029A00F053FC0A9908600998DF
:1013500020B1FFE70A980999086000E0FFE706B0AE
:1013600080BD000080B584B000200390FFE70398A3
:10137000372810D8FFE7039800EB800140F2D02017
:10138000C2F2000000EB810000F0B8FCFFE7039818
:1013900001300390EBE742F67430C2F20000019096
:1013A00000F0ACFC42F68830C2F20000029000F07F
:1013B000A5FC42F6BC30C2F2000000F09FFC42F6F1
:1013C000F030C2F2000000F099FC42F6DC30C2F2CC
:1013D000000000F093FC0199029840F2C022C2F292
:1013E0000002116040F2C821C2F20001086004B09E
:1013F00080BD000083B0029042F6D430C2F20000FB
:101400000190FFE7019800680299884205D2FFE742
:10141000FFE7019800680190F4E7019842F6D431A3
:10142000C2F20001884201D0FFE7FFE70198009077
:1014300000980199496808440299884209D1FFE758
:1014400002984268019948681044486001980290E7
:1014500000E0FFE70298009000980299496808446C
:1014600001990968884220D1FFE70198006840F29D
:10147000C421C2F20001096888420DD0FFE701983B
:101480000068426802994868104448600198006802
:1014900000680299086007E040F2C420C2F2000030
:1014A000006802990860FFE704E00198006802996B
:1014B0000860FFE701980299884204D0FFE702988C
:1014C0000199086000E0FFE703B0704780B586B07F
:1014D00005900491039202930020019004980599CD
:1014E00048600598006104980399884216D8FFE780
:1014F00003980299401A05998969884203D3FFE746
:101500000120019009E040F2CC20C2F20000006806
:101510000599043100F012FCFFE717E003980299E7
:10152000884208D2FFE704980299884203D3FFE774
:101530000120019009E040F2BC20C2F200000068E6
:101540000599043100F0FAFBFFE7FFE7019806B0C8
:1015500080BD000080B582B0019000F02FFC0198A2
:10156000806B18B9FFE70120009002E00020009096
:10157000FFE700F03BFC009802B080BD80B582B070
:10158000019000F01BFC0198806B0199C96B8842A7
:1015900003D1FFE70120009002E000200090FFE768
:1015A00000F024FC009802B080BD000008480068EC
:1015B000006880F308884FF0000080F3148862B65A
:1015C00061B6BFF34F8FBFF36F8F00DF00BF000026
:1015D00008ED00E080B584B00390029140F2BC2099
:1015E000C2F200000068C068C06801900198043031
:1015F00000F02EFB019890F828004007002806D53F
:10160000FFE701980399029A00F004F907E00199B5
:1016100091F8280000F0FE0081F82800FFE701980B
:10162000016A884704B080BD80B58AB00020099067
:10163000089007900690FFE742F60840C2F20000CB
:10164000006806A9002201F0F7F8002800F0918058
:10165000FFE70698B0F1FF3F09DCFFE706A804307A
:10166000029002990A6848688968904700E0FFE79D
:101670000698002800F17C80FFE7089805900598FF
:10168000406928B1FFE70598043000F0E1FA00E076
:10169000FFE704A800F0F6F8039006980138014629
:1016A0000191082862D80199DFE801F00505323A76
:1016B0004C0505323A00059991F8280040F00100E8
:1016C00081F828000598079B81691944039AFFF760
:1016D000FDFED8B1FFE7059890F8280040070028E4
:1016E00008D5FFE70598079982691144039A00F02D
:1016F00091F807E0059991F8280000F0FE0081F8C4
:101700002800FFE70598016A884700E0FFE72EE020
:10171000059991F8280000F0FE0081F8280026E0E5
:10172000059991F8280040F0010081F828000798F9
:10173000059988610598039B816919441A46FFF74A
:10174000C5FE14E0059890F828008007002804D40E
:10175000FFE7059800F05EFB07E0059991F8280087
:1017600000F0FE0081F82800FFE700E0FFE7FFE758
:1017700062E70AB080BD000080B584B0039002919A
:1017800000F0A8FD684600F07DF801900098D8BBF5
:10179000FFE7029860B9FFE703980199884207D8EC
:1017A000FFE701F023FE03980199FFF713FF2AE0FA
:1017B000029858B1FFE740F2CC20C2F20000006866
:1017C0000068B0FA80F040090290FFE742F6084056
:1017D000C2F2000000680399019A891A029A00F087
:1017E00089FB01F003FE60B9FFE74EF60451CEF22B
:1017F00000014FF080500860BFF34F8FBFF36F8F31
:1018000000E0FFE7FFE702E001F0F0FDFFE704B0D2
:1018100080BD000080B584B0039002910192FFE783
:101820000398029B81691944019AFFF74FFE48B162
:10183000FFE7039881690298084402900398016ABF
:101840008847EDE704B080BD40F2C020C2F200003E
:101850000068006840B9FFE742F6A831C2F2000113
:101860004FF0FF3008600CE040F2C020C2F20000F0
:101870000068C068006842F6A831C2F20001086042
:10188000FFE7704780B582B0019001F083FA0090C5
:10189000009840F2B421C2F200010968884206D2E1
:1018A000FFE700F011F801990120086003E00199B9
:1018B00000200860FFE7009840F2B421C2F2000166
:1018C0000860009802B080BD80B582B0FFE740F2AA
:1018D000BC20C2F200000068006870B1FFE740F26F
:1018E000BC20C2F200000068C06800680190019846
:1018F0004FF0FF31FFF76EFEE9E740F2BC22C2F283
:1019000000021068009040F2CC21C2F20001086889
:1019100010600098086002B080BD000082B0002016
:1019200000904FF0800080F31188BFF36F8FBFF3FA
:101930004F8F0190FFE7009808B9FFE7FBE702B07F
:101940007047000080B584B00390FFE701A8FFF75F
:10195000C9FB029002980199FFF70EFFFFF764FEA2
:10196000F4E7000080B582B0019000F027FA0198FA
:1019700090F845008DF80300FFE79DF9030001286A
:1019800016DBFFE70198406A58B1FFE70198243061
:1019900001F062FC18B1FFE700F078FB00E0FFE720
:1019A00000E005E09DF8030001388DF80300E4E74E
:1019B0000199FF2081F8450000F018FA00F0FEF9C7
:1019C000019890F844008DF80200FFE79DF90200AD
:1019D000012816DBFFE70198006980B1FFE7019855
:1019E000103001F039FC18B1FFE700F04FFB00E0C8
:1019F000FFE79DF8020001388DF8020000E000E0EA
:101A0000E4E70199FF2081F8440000F0EFF902B00B
:101A100080BD000080B588B0079000200390079833
:101A200040B3FFE7079810F1090F1FD8FFE70798A9
:101A3000083007909DF81C004007A8B1FFE7079801
:101A400000F00700C0F10800029007980299C9430E
:101A5000884205D8FFE7029907980844079002E0FA
:101A600000200790FFE700E0FFE702E0002007907A
:101A7000FFE700E0FFE700F02DFC40F2C420C2F2D7
:101A80000000006818B9FFE7FFF74CFB00E0FFE734
:101A90009DF81F000006002800F19180FFE70798DD
:101AA000002800F08A80FFE7079842F69C31C2F2D6
:101AB00000010968884200F28080FFE742F6D430D6
:101AC000C2F20000059000680690FFE706984168A2
:101AD000079A00209142019007D2FFE7069800681C
:101AE000002818BF01200190FFE70198C00730B11E
:101AF000FFE706980590069800680690E6E70698C6
:101B000040F2C421C2F200010968884253D0FFE7C5
:101B100005980068083003900698006805990860E9
:101B2000069840680799401A112815D3FFE70698D0
:101B3000079908440490069840680799401A049948
:101B400048600798069948600598006804990860FD
:101B500004980599086000E0FFE70698426842F69D
:101B60009C30C2F200000168891A0160006842F6E8
:101B7000A431C2F20001096888420BD2FFE742F6A5
:101B80009C30C2F20000006842F6A431C2F20001AB
:101B9000086000E0FFE70699486840F000404860B0
:101BA00006990020086042F6B031C2F200010868D0
:101BB0000130086000E0FFE700E0FFE700E0FFE73A
:101BC00001F014FC039808B080BD000081B040F221
:101BD000B820C2F2000000680090009828B1FFE72A
:101BE0000099086D01300865FFE7009801B0704763
:101BF00083B00290019100920298043802900299F9
:101C00004FF080700860029804380290019820F02C
:101C1000010002990860029804380290029941F686
:101C20001D10C0F20000086002981438029000985D
:101C30000299086002980438029002996FF002003D
:101C40000860029820380290029803B070470000A4
:101C500082B0019001980069009001984168806805
:101C600088600199486889684860009840680199CF
:101C7000884205D1FFE7019880680099486000E03C
:101C8000FFE70199002008610099086801380860A1
:101C90000098006802B0704783B0029001910092F2
:101CA000029942F65410C2F200000860019942F213
:101CB0005470C2F20000086000998020086003B0F0
:101CC0007047000083B0029001910092029942F6A1
:101CD000F020C2F200000860019942F6B010C2F292
:101CE0000000086000995020086003B070470000B1
:101CF00082B00190009102B07047000081B0009066
:101D0000009901F10800486000994FF0FF308860A9
:101D1000009901F10800C860009901F1080008610C
:101D200000990020086001B07047000081B0009069
:101D300000990020086101B07047000084B0039052
:101D400002910298006800900098013020B9FFE7E6
:101D500003980069019010E0039808300190FFE7B4
:101D60000198406800680099884205D8FFE7FFE7BE
:101D7000019840680190F3E7FFE7019840680299F5
:101D800048600298416888600198029988600298CA
:101D90000199486003980299086103990868013025
:101DA000086004B070470000DFF80C00016841F4DF
:101DB000700101607047000088ED00E081B04FF0D5
:101DC000800080F31188BFF36F8FBFF34F8F0090B7
:101DD00040F20400C2F200000168013101600068B5
:101DE000012801D1FFE7FFE701B0704781B040F261
:101DF0000400C2F20000016801390160006830B9D6
:101E0000FFE700200090009880F31188FFE701B001
:101E10007047000080B584B0039003980290039847
:101E200088B3FFE702980838029002980190019861
:101E3000C1790020B0EBD11F23D0FFE701980068E3
:101E4000E8B9FFE70199486820F00040486000F0D9
:101E500041FA0198426842F69C31C2F200010868DA
:101E6000104408600198FFF7C5FA42F6B431C2F297
:101E7000000108680130086001F0B8FA00E0FFE7EF
:101E800000E0FFE7FFE704B080BD00004EF2100164
:101E9000CEF20001002008604EF21802CEF20002DD
:101EA000106040F20000C2F20000006844F6D35215
:101EB000C1F26202A0FB02024FF0FF3000EB921071
:101EC0004EF21402CEF20002106007200860704744
:101ED00080B582B0019001980090009890F846007B
:101EE00020B9FFE70098FFF795FF00E0FFE702B099
:101EF00080BD000080B584B00390029101920398E8
:101F00000090FFF75BFF009890F94400013028B97A
:101F1000FFE70099002081F84400FFE7009890F95E
:101F20004500013028B9FFE70099002081F84500FD
:101F3000FFE7FFF75BFF0098806B38B9FFE7009879
:101F400024300299019A00F0BDF800E0FFE7009804
:101F5000FFF708FD04B080BD80B582B0019000207D
:101F60000090019850B1FFE700F0B4F9019800210A
:101F7000FEF768FD01F03AFA009000E0FFE70098F4
:101F800060B9FFE74EF60451CEF200014FF08050E9
:101F90000860BFF34F8FBFF36F8F00E0FFE702B021
:101FA00080BD000080B582B00190FFE7FEF74EFBD8
:101FB00040F23870C2F20000009080ED000AFEF797
:101FC00037FCFEF7E3FC4FF4FA70FFF7C5FFFEF7AE
:101FD0003DFB009840F23071C2F2000181ED000A31
:101FE00091ED000A90ED001A30EE410A40F26800CF
:101FF000C2F2000080ED000AD8E7000080B584B08E
:1020000003904FF4FA70019000F0C4FE0290FFE7D5
:10201000FEF71CFB40F23C70C2F2000080ED000AAB
:10202000FEF7B4FCFEF706FCFFE702A84FF4FA71D6
:1020300000F036FEFFE7FEF709FB40F23470C2F213
:10204000000080ED000A90ED000A40F23C70C2F200
:10205000000090ED001A30EE410A40F26C00C2F22E
:10206000000080ED000AD3E781B0009042F6AC306A
:10207000C2F2000000680099086042F60440C2F213
:10208000000000680099486001B0704742F61041B6
:10209000C2F20001012008607047000080B582B0E4
:1020A00001900091019840F2B821C2F20001096844
:1020B0001831FFF743FE00980121FEF7C3FC02B080
:1020C00080BD000080B584B0039002910192FFE7CB
:1020D000039840680090009840F2B821C2F20001D5
:1020E0000A68D061009880680A6810620868183031
:1020F000009A9268506008681830009A90600398BF
:10210000096888620399086801300860FFE7019850
:1021100020B1FFE74FF0FF300290FFE702980199EE
:10212000FEF790FC04B080BD80B588B007900691A2
:1021300007980590012002900798002800F08D80F4
:10214000FFE70598C06C0699884203D2FFE706981E
:10215000039003E00598C06C0390FFE70598C06A00
:102160000399884277D0FFE70598006D012870D168
:10217000FFE70598C06A049003980599C86205981E
:10218000C07E0006002806D4FFE70398C0F138009F
:102190000599886100E0FFE705984069049901EB23
:1021A000810240F2D021C2F2000101EB820188429B
:1021B0004DD1FFE705980430FFF74AFD08B9FFE766
:1021C00000E0FFE7FFE7FFE70598C06A42F25071C1
:1021D000C2F200010968884208D9FFE70598C06A81
:1021E00042F25071C2F200010860FFE7FFE7FFE72B
:1021F0000598C06A00EB800040F2D021C2F20001D5
:1022000001EB8000406801900198059A9060019868
:102210008068059AD06005980430019A92685060F1
:1022200005980430019A9060059AD06A00EB80000E
:1022300001EB800050610598C06A00EB800251F804
:102240002200013041F82200FFE7FFE700E0FFE74E
:1022500000E0FFE700E0FFE700E0FFE708B080BD37
:1022600080B582B0FEF724FE00900098012804D1CA
:10227000FFE701F0DBF9009000E0FFE7009801289C
:102280001FD1FFE74FF0800080F31188BFF36F8FFD
:10229000BFF34F8F019042F6A831C2F200014FF018
:1022A000FF30086042F6D031C2F200010120086020
:1022B00042F60441C2F200010020086000F0A0F8DC
:1022C00000E0FFE743F2E460C0F20000006802B003
:1022D00080BD000042F24871C2F20001086801307E
:1022E0000860704780B586B042F24870C2F20000C4
:1022F000006838B1FFE742F61041C2F20001012048
:1023000008607BE042F61041C2F200010020086044
:10231000FFE740F2B820C2F200000068006B0590B1
:102320004FF0A530049005980068B0F1A53F12D198
:10233000FFE705984068B0F1A53F0CD1FFE705988D
:102340008068B0F1A53F06D1FFE70598C068B0F1FD
:10235000A53F0CD0FFE740F2B820C2F200000168B0
:102360003431039100680399FFF7C2FCFFE7FFE7F0
:10237000FFE742F25070C2F2000000680290FFE7EF
:10238000029800EB800140F2D020C2F2000050F829
:10239000210020B9FFE7029801380290F0E7FFE73B
:1023A000029800EB800140F2D020C2F2000000EB66
:1023B0008100019001994868406848600199486827
:1023C0000831884204D1FFE70199C8684860FFE7F7
:1023D00001984068C06840F2B821C2F2000108606C
:1023E000FFE7029842F25071C2F200010860FFE775
:1023F00040F2B820C2F200000068FFE706B080BDDE
:1024000080B582B04EF60850CEF200000068019010
:102410004EF62051CEF20001086840F47F000860BB
:10242000086840F07F4008604EF61C51CEF2000173
:10243000002000900860FFF729FD009840F2040199
:10244000C2F200010860FFF7AFFC4EF63471CEF225
:102450000001086840F040400860FFF7A7F8FFF768
:1024600041FFFFF75BFA009802B080BD80B582B0F3
:102470004FF0800080F31188BFF36F8FBFF34F8F51
:10248000009000F091FC40B1FFE74EF60451CEF20F
:1024900000014FF08050086000E0FFE7002001904D
:1024A000019880F3118802B080BD000080B584B02F
:1024B0008DF80F0001200190002100919DF80F2060
:1024C00000F022F802900298FEF79EFE029804B0F7
:1024D00080BD000080B586B08DF817000491012002
:1024E0000290002201929DF81710049BEC46CCF854
:1024F0000010114600F04CF803900398FEF784FE9C
:10250000039806B080BD000080B588B007900691A2
:102510008DF81720002004900798A0B3FFE70799D3
:102520004FF0FF30B0FBF1F0069988422BD3FFE764
:1025300007980699484310F1510F24D8FFE70798F0
:1025400006994843039003985030FFF763FA0490CC
:102550000498B0B1FFE704980290029850300290BE
:102560000499002081F8460007980699029A9DF880
:102570001730DDF810C0EE46CEF800C0FEF75AFE68
:1025800000E0FFE700E0FFE7049808B080BD00002E
:1025900080B588B084460A98CDF81CC00691059293
:1025A00004938DF80F0000200290079810B3FFE706
:1025B0000498F8B1FFE7059818B1FFE70698C8B18D
:1025C000FFE7059818B9FFE7069898B9FFE7049860
:1025D00002900299012081F8460007980699059A11
:1025E0009DF80F30DDF808C0EE46CEF800C0FEF7CB
:1025F00021FE00E0FFE7029808B080BD80B584B0FE
:102600000390029101200190039800900098002807
:1026100056D0FFE70098C06B002851D0FFE7009824
:10262000C26B016C4FF0FF30B0FBF2F0884247D331
:10263000FFE7FFF7C3FB00990B68C86B0A6C00FB50
:10264000023088600099002088630099086848601B
:1026500000990B68C86B0A6C013800FB0230C86037
:102660000099FF2081F84400009981F84500029804
:10267000D0B9FFE700980069A0B1FFE700981030DB
:1026800000F0EAFD60B1FFE74EF60451CEF2000122
:102690004FF080500860BFF34F8FBFF36F8F00E0A3
:1026A000FFE700E0FFE708E000981030FFF726FBA7
:1026B00000982430FFF722FBFFE7FFF797FB02E0CB
:1026C00000200190FFE7019804B080BD80B58AB07A
:1026D00008900791069205930020049008980090B6
:1026E000FFE7FFF76BFB0098806B0099C96B88428E
:1026F00004D3FFE70598022834D1FFE70098079933
:10270000059AFEF76FFB03900098406AA0B1FFE7BF
:102710000098243000F0A0FD60B1FFE74EF60451B0
:10272000CEF200014FF080500860BFF34F8FBFF32F
:102730006F8F00E0FFE710E0039860B1FFE74EF60F
:102740000451CEF200014FF080500860BFF34F8F6C
:10275000BFF36F8F00E0FFE7FFE7FFF747FB0120C4
:10276000099065E0069828B9FFE7FFF73FFB0020D6
:1027700009905DE0049830B9FFE701A8FFF774FC09
:102780000120049000E0FFE7FFE7FFE7FFF72EFBE3
:10279000FFF7A0FDFFF712FB009890F9440001300D
:1027A00028B9FFE70099002081F84400FFE700986E
:1027B00090F94500013028B9FFE70099002081F821
:1027C0004500FFE7FFF712FB01A806A900F0AEF9EC
:1027D00028BBFFE70098FEF7D1FEC8B1FFE70098DD
:1027E00010300699FFF75AFC0098FFF7BBF800F08D
:1027F000FDFD60B9FFE74EF60451CEF200014FF047
:1028000080500860BFF34F8FBFF36F8FFFE705E085
:102810000098FFF7A7F800F0E9FDFFE707E0009850
:10282000FFF7A0F800F0E2FD0020099000E058E773
:1028300009980AB080BD000080B58AB00890079161
:1028400006920020059008980290FFE7FFF7B6FA7D
:102850000298806B0190019830B3FFE702980799C6
:10286000FEF79EFA01980138029988630298006980
:10287000A0B1FFE70298103000F0EEFC60B1FFE776
:102880004EF60451CEF200014FF080500860BFF3C5
:102890004F8FBFF36F8F00E0FFE700E0FFE7FFF728
:1028A000A5FA012009906DE0069828B9FFE7FFF727
:1028B0009DFA0020099065E0059830B9FFE703A86C
:1028C000FFF7D2FB0120059000E0FFE7FFE7FFE7FD
:1028D000FFF78CFAFFF7FEFCFFF770FA029890F909
:1028E0004400013028B9FFE70299002081F8440034
:1028F000FFE7029890F94500013028B9FFE70299F7
:10290000002081F84500FFE7FFF770FA03A806A949
:1029100000F00CF930BBFFE70298FEF71BFED0B1C8
:10292000FFE7029824300699FFF7B8FB0298FFF7FB
:1029300019F800F05BFD60B9FFE74EF60451CEF2E6
:1029400000014FF080500860BFF34F8FBFF36F8FCF
:1029500000E0FFE705E00298FFF704F800F046FD0D
:10296000FFE70EE00298FEF7FDFF00F03FFD029842
:10297000FEF7F0FD18B1FFE70020099002E0FFE745
:10298000FFE763E709980AB080BD000080B58AB010
:102990000890079100200690089903910290FFE7A4
:1029A000FFF70CFA0398806B0190019860B3FFE782
:1029B00001980138039988630398006828B9FFE7F4
:1029C000FFF704F90399886000E0FFE703980069C6
:1029D000A0B1FFE70398103000F03EFC60B1FFE7C4
:1029E0004EF60451CEF200014FF080500860BFF364
:1029F0004F8FBFF36F8F00E0FFE700E0FFE7FFF7C7
:102A0000F5F9012009908DE0079828B9FFE7FFF755
:102A1000EDF90020099085E0069830B9FFE704A899
:102A2000FFF722FB0120069000E0FFE7FFE7FFE74A
:102A3000FFF7DCF9FFF74EFCFFF7C0F9039890F9B8
:102A40004400013028B9FFE70399002081F84400D1
:102A5000FFE7039890F94500013028B9FFE7039993
:102A6000002081F84500FFE7FFF7C0F904A807A997
:102A700000F05CF8A8BBFFE70398FEF76BFD48B3D6
:102A8000FFE70398006850B9FFE7FFF797F903984D
:102A9000806800F033FB0290FFF7A8F900E0FFE741
:102AA000039824300799FFF7F9FA0398FEF75AFFC5
:102AB00000F09CFC60B9FFE74EF60451CEF2000135
:102AC0004FF080500860BFF34F8FBFF36F8F00E06F
:102AD000FFE705E00398FEF745FF00F087FCFFE7FE
:102AE0001FE00398FEF73EFF00F080FC0398FEF71E
:102AF00031FDA0B1FFE7029870B1FFE7FFF75EF983
:102B00000398FEF7DBFA0090039880680099FFF7BE
:102B10000BFBFFF76BF9FFE70020099002E0FFE7EE
:102B2000FFE73DE709980AB080BD000080B586B098
:102B300005900491FFF742F942F60440C2F200000A
:102B400000680290029805994968401A019040F285
:102B5000B820C2F20000006890F85A0058B1FFE7B0
:102B600040F2B820C2F200000168002081F85A004B
:102B70000120039037E004980068013018B9FFE79E
:102B8000002003902EE042F6AC30C2F20000006854
:102B90000599096888420CD0FFE7029805994968B1
:102BA000884206D3FFE701200390049900200860C3
:102BB00017E001980499096888420BD2FFE7019A4F
:102BC00004990868801A08600598FFF74DFA0020FC
:102BD000039005E004990020086001200390FFE7BE
:102BE000FFE7FFE7FFE7FFF701F9039806B080BDB5
:102BF00010B588B0DDF82CC0DDF828C0079006912C
:102C00000592049307980699059A049BDDF828C05D
:102C10000B9CEE46CEF80440CEF800C0FEF7E8F973
:102C20000390039830B1FFE70398FDF793FF01206D
:102C3000029003E04FF0FF300290FFE7029808B0E7
:102C400010BD000070B58AB0DDF840C0DDF83CC0B2
:102C5000DDF838C00990089107920693002005908E
:102C600009980899079A069BDDF838C00F9C109DBB
:102C7000EE4605AECEF80C60CEF80850CEF8044013
:102C8000CEF800C0FEF778F90490049820B1FFE771
:102C90000498FDF75FFF00E0FFE705980AB070BDFC
:102CA00080B586B00590049100200190FFF712FBDB
:102CB00042F60440C2F200000068009005980068E7
:102CC000049908440390009805990968884210D235
:102CD000FFE7039805990968884208D2FFE703983F
:102CE0000099884203D9FFE70120019000E0FFE747
:102CF0000FE0039805990968884205D3FFE7039818
:102D00000099884203D9FFE70120019000E0FFE726
:102D1000FFE7039805990860019838B1FFE7039829
:102D20000099401A0021FDF78DFE00E0FFE700F05A
:102D30005DFB0290029860B9FFE74EF60451CEF2B7
:102D400000014FF080500860BFF34F8FBFF36F8FCB
:102D500000E0FFE7019806B080BD000081B042F6B8
:102D6000D030C2F20000006818B9FFE701200090DF
:102D70000DE042F24870C2F20000006818B9FFE7A7
:102D80000220009002E000200090FFE7FFE700989B
:102D900001B0704781B042F60440C2F20000006802
:102DA0000090009801B0704780B588B00020059071
:102DB00042F24870C2F200000068002840F018811A
:102DC000FFE742F60441C2F20001086801300490B6
:102DD000049808600498D0B9FFE7FFE740F2C022EA
:102DE000C2F200021068039040F2C821C2F2000152
:102DF000086810600398086042F6AC31C2F2000126
:102E0000086801300860FEF71FFDFFE700E0FFE7FC
:102E1000049842F6A831C2F2000109688842C0F065
:102E2000C680FFE7FFE740F2C020C2F20000006862
:102E3000006840B9FFE742F6A831C2F200014FF046
:102E4000FF300860B2E040F2C020C2F2000000682B
:102E5000C068C06807900798406806900498069973
:102E6000884207D2FFE7069842F6A831C2F2000175
:102E700008609BE0FFE7FFE707984069029007982A
:102E80008168C068886007998868C9684860029846
:102E9000406807990431884205D1FFE70798C06868
:102EA00002994860FFE70799002048610299086885
:102EB00001380860FFE70798806A08B3FFE7FFE77B
:102EC0000798806A01900798C169006A886007992D
:102ED000C869096A486001984068079918318842B2
:102EE00005D1FFE70798006A01994860FFE7079955
:102EF000002088620199086801380860FFE700E057
:102F0000FFE7FFE7FFE70798C06A42F25071C2F29D
:102F100000010968884208D9FFE70798C06A42F2B1
:102F20005071C2F200010860FFE7FFE7FFE7079872
:102F3000C06A00EB800040F2D021C2F2000101EB38
:102F40008000406800900098079A90600098806820
:102F5000079AD06007980430009A926850600798EA
:102F60000430009A9060079AD06A00EB800001EB71
:102F7000800050610798C06A00EB800251F822007F
:102F8000013041F82200FFE7FFE70798C06A40F2EE
:102F9000B821C2F200010968C96A884203D9FFE773
:102FA0000120059000E0FFE7FFE73CE7FFE740F284
:102FB000B820C2F200000068C06A00EB800140F255
:102FC000D020C2F2000050F82100022803D3FFE70E
:102FD0000120059000E0FFE742F61040C2F2000039
:102FE000006818B1FFE70120059000E0FFE707E067
:102FF00042F6B831C2F20001086801300860FFE70C
:10300000059808B080BD000080B584B00390039897
:10301000029000200190039800286AD0FFE70299EF
:10302000086D013808650299C86AC96C88425ED08B
:10303000FFE70298006D002857D1FFE7029804309F
:10304000FEF706FE08B9FFE700E0FFE70299C86C4B
:10305000C8620299C86AC0F138008861FFE7FFE7DB
:103060000298C06A42F25071C2F2000109688842B7
:1030700008D9FFE70298C06A42F25071C2F200011B
:103080000860FFE7FFE7FFE70298C06A00EB8000F7
:1030900040F2D021C2F2000101EB800040680090B4
:1030A0000098029A906000988068029AD060029816
:1030B0000430009A9268506002980430009A906040
:1030C000029AD06A00EB800001EB80005061029808
:1030D000C06A00EB800251F82200013041F8220062
:1030E000FFE7FFE70120019000E0FFE700E0FFE7D6
:1030F00000E0FFE7019804B080BD000080B584B017
:10310000039003980290002001900398002800F09B
:103110009F80FFE70298C06A40F2B821C2F2000126
:103120000968C96A884280F08280FFE70298C07E01
:10313000000600280BD4FFE740F2B820C2F20000DE
:103140000068C06AC0F138000299886100E0FFE7BA
:1031500002994869C96A01EB810240F2D021C2F2AA
:10316000000101EB8201884255D1FFE7029804304B
:10317000FEF76EFD08B9FFE700E0FFE740F2B82078
:10318000C2F200000068C06A0299C862FFE7FFE768
:103190000298C06A42F25071C2F200010968884286
:1031A00008D9FFE70298C06A42F25071C2F20001EA
:1031B0000860FFE7FFE7FFE70298C06A00EB8000C6
:1031C00040F2D021C2F2000101EB80004068009083
:1031D0000098029A906000988068029AD0600298E5
:1031E0000430009A9268506002980430009A90600F
:1031F000029AD06A00EB800001EB800050610298D7
:10320000C06A00EB800251F82200013041F8220030
:10321000FFE7FFE708E040F2B820C2F200000068D4
:10322000C06A0299C862FFE7012001900FE002988E
:10323000C06C40F2B821C2F200010968C96A884234
:1032400003D2FFE70120019000E0FFE7FFE700E085
:10325000FFE7019804B080BD87B006900698C0686B
:10326000C0680590FFE70598806A03900598C169DA
:10327000006A88600599C869096A486003984068CF
:1032800005991831884205D1FFE70598006A03992E
:103290004860FFE7059900208862039908680138B3
:1032A0000860FFE742F24870C2F2000000680028A0
:1032B00065D1FFE7FFE705984069029005988168AE
:1032C000C068886005998868C96848600298406845
:1032D00005990431884205D1FFE70598C068029935
:1032E0004860FFE7059900204861029908680138A5
:1032F0000860FFE7FFE7FFE70598C06A42F25071F8
:10330000C2F200010968884208D9FFE70598C06A3F
:1033100042F25071C2F200010860FFE7FFE7FFE7E9
:103320000598C06A00EB800040F2D021C2F2000193
:1033300001EB8000406801900198059A9060019827
:103340008068059AD06005980430019A92685060B0
:1033500005980430019A9060059AD06A00EB8000CD
:1033600001EB800050610598C06A00EB800251F8C3
:103370002200013041F82200FFE7FFE71DE0FFE7F0
:1033800042F6BC31C2F20001486800900098059AEC
:10339000D06100988068059A106205981830009AEC
:1033A0009268506005981830009A90600598816284
:1033B000086801300860FFE7FFE70598C06A40F23F
:1033C000B821C2F200010968C96A884208D9FFE73A
:1033D0000120049042F61041C2F20001086002E0B0
:1033E00000200490FFE7049807B0704780B588B0CC
:1033F0000020009007900690FEF7E0FC00980590F2
:1034000042F24870C2F200000168013901600068B0
:10341000002840F00481FFE742F24070C2F2000051
:103420000068002800F0FA80FFE7FFE742F6BC30B2
:10343000C2F200000068002800F0A280FFE742F618
:10344000BC30C2F20000C068C0680790FFE7079870
:10345000806A04900798C169006A88600799C86902
:10346000096A48600498406807991831884205D174
:10347000FFE70798006A04994860FFE70799002072
:1034800088620499086801380860FFE7FFE7079839
:103490004069039007988168C068886007998868C8
:1034A000C96848600398406807990431884205D18B
:1034B000FFE70798C06803994860FFE70799002075
:1034C00048610399086801380860FFE7FFE7FFE7F4
:1034D0000798C06A42F25071C2F20001096888423E
:1034E00008D9FFE70798C06A42F25071C2F20001A2
:1034F0000860FFE7FFE7FFE70798C06A00EB80007E
:1035000040F2D021C2F2000101EB8000406802903D
:103510000298079A906002988068079AD06007988E
:103520000430029A9268506007980430029A9060C2
:10353000079AD06A00EB800001EB80005061079889
:10354000C06A00EB800251F82200013041F82200ED
:10355000FFE7FFE70798C06A40F2B821C2F2000116
:103560000968C96A884209D9FFE7059A42F61041FD
:10357000C2F20001012041F8220000E0FFE755E718
:10358000079818B1FFE7FEF75FF9FFE742F6B8309A
:10359000C2F20000006801900198F0B1FFE7FFE778
:1035A000FFF702FC48B1FFE7059A42F61041C2F26C
:1035B0000001012041F8220000E0FFE701980138F6
:1035C0000190FFE701980028EAD1FFE742F6B83101
:1035D000C2F200010020086000E0FFE7059942F612
:1035E0001040C2F2000050F82100A8B1FFE701200E
:1035F0000690FFE740F2B820C2F2000000684EF6E5
:103600000451CEF200014FF080500860BFF34F8F9D
:10361000BFF36F8FFFE700E0FFE7FFE700E0FFE7A2
:10362000FEF7E4FB069808B080BD000080B588B0C6
:1036300000200790FDF746FB42F60840C2F200006A
:10364000006858B3FFE7002003900690059006A895
:1036500005A904AAFEF736FB039B049A0598DDF83A
:1036600018C06946C1F808C048602820086041F6C3
:103670004510C0F2000043F2DC61C0F20001FFF728
:10368000E1FA014642F60C40C2F200000160006817
:1036900018B1FFE701200790FFE700E0FFE7079878
:1036A00008B080BDF1EE100A4FF6FF71C0F2C031D4
:1036B00020EA010040F04070E1EE100A70474465D6
:1036C0006C6179556E74696C5461736B0044656C00
:1036D00061795461736B0049444C4500546D72200C
:1036E0005376630037000000083700000000002018
:1036F00008000000A80200001037000008000020A9
:10370000102E0000C402000080F0FA02AAAAAAAAA1
:0400000500000315DF
:00000001FF
