:020000040000FA
:10000000302E0020C1030000C9030000CB03000014
:10001000CD030000CF030000D1030000000000006A
:10002000000000000000000000000000511F000060
:10003000D503000000000000D11D00001D200000BD
:10004000DB030000DD030000DF030000E10300002C
:10005000E3030000E5030000E7030000E9030000FC
:10006000EB030000ED030000EF030000F1030000CC
:10007000F3030000F5030000F7030000F90300009C
:10008000FB030000FD030000FF030000010400006B
:100090000304000005040000070400000904000038
:1000A0000B0400000D0400000F0400001104000008
:1000B00013040000150400001704000019040000D8
:1000C0001B0400001D0400001F04000021040000A8
:1000D0002304000025040000270400002904000078
:1000E0002B0400002D040000000000002F0400007D
:1000F0003104000033040000350400003704000020
:10010000390400003B0400003D0400003F040000EF
:100110000000000000000000410400004304000053
:100120004504000047040000490400004B0400009F
:100130004D0400004F04000051040000530400006F
:1001400000000000000000000000000000000000AF
:100150005504000057040000590400005B0400002F
:10016000000000000000000000000000000000008F
:10017000000000000000000000000000000000007F
:10018000000000000000000000000000000000006F
:10019000000000000000000000000000000000005F
:1001A000000000000000000000000000000000004F
:1001B0005D0400005F0400006104000063040000AF
:1001C0006504000067040000690400006B0400007F
:1001D0006D0400006F04000071040000730400004F
:1001E000750400007704000079040000000000009E
:1001F000000000007B0400007D0400007F0400007C
:1002000081040000830400000000000000000000E2
:100210008504000087040000890400008B040000AE
:100220008D0400008F04000091040000930400007E
:100230009504000097040000990400009B0400004E
:100240009D0400009F040000A1040000A30400001E
:10025000A5040000A7040000A9040000AB040000EE
:10026000AD040000AF040000B104000000F002F88B
:1002700000F092F80AA090E8000C82448344AAF1AE
:100280000107DA4501D100F087F8AFF2090EBAE8AC
:100290000F0013F0010F18BFFB1A43F001031847BA
:1002A000BC5D0000DC5D0000103A24BF78C878C156
:1002B000FAD8520724BF30C830C144BF04680C606C
:1002C000704700000023002400250026103A28BFB4
:1002D00078C1FBD8520728BF30C148BF0B607047B8
:1002E0006E2900F05D82702900F09F83662905F079
:1002F000D085652905F0CD85672905F0CA85612976
:1003000005F0C98503681B0A28BF41F080016929EF
:1003100000F00A82642900F00782752900F0048247
:100320006F2900F02D83782900F06B83E92900F014
:10033000C782E42900F0C482F52900F0C182EF29C8
:1003400000F02A83F82900F06A830368DB0928BFDC
:1003500041F08001632901F0C580732901F0CA8052
:10036000E32901F0D580F32901F0DA8000207047FD
:100370001FB505F081FD01F029F9040000200021DE
:1003800005F064FD401C60600020002105F048FD80
:10039000E0601FBD10B510BD01F0EAF8114603B4CE
:1003A00002F0C2F803BCFFF7E3FF02F0F5F801F03A
:1003B000C5F903B4FFF7EEFF03BC01F0CDF900006F
:1003C0003F4880473F480047FEE7FEE7FEE7FEE77D
:1003D000FEE7FEE7FEE7FEE7FEE7FEE7FEE7FEE7F5
:1003E000FEE7FEE7FEE7FEE7FEE7FEE7FEE7FEE7E5
:1003F000FEE7FEE7FEE7FEE7FEE7FEE7FEE7FEE7D5
:10040000FEE7FEE7FEE7FEE7FEE7FEE7FEE7FEE7C4
:10041000FEE7FEE7FEE7FEE7FEE7FEE7FEE7FEE7B4
:10042000FEE7FEE7FEE7FEE7FEE7FEE7FEE7FEE7A4
:10043000FEE7FEE7FEE7FEE7FEE7FEE7FEE7FEE794
:10044000FEE7FEE7FEE7FEE7FEE7FEE7FEE7FEE784
:10045000FEE7FEE7FEE7FEE7FEE7FEE7FEE7FEE774
:10046000FEE7FEE7FEE7FEE7FEE7FEE7FEE7FEE764
:10047000FEE7FEE7FEE7FEE7FEE7FEE7FEE7FEE754
:10048000FEE7FEE7FEE7FEE7FEE7FEE7FEE7FEE744
:10049000FEE7FEE7FEE7FEE7FEE7FEE7FEE7FEE734
:1004A000FEE7FEE7FEE7FEE7FEE7FEE7FEE7FEE724
:1004B000FEE7000004480549034A054B7047000069
:1004C0003D2000006D020000302C0020302E002066
:1004D000302C00200FB41CB5084B06AA7B4469469B
:1004E0000090059800F075F904460020694600F078
:1004F00083F920461CBC5DF814FB000019030000C2
:10050000032A40F2308010F0030C00F0158011F83F
:10051000013BBCF1020F624498BF11F801CB00F817
:10052000013B38BF11F8013BA2F1040298BF00F86B
:1005300001CB38BF00F8013B11F0030300F0448306
:10054000083AC0F0088051F8043B083A51F804CB4F
:10055000A0E80810F5E7121D5CBF51F8043B40F815
:10056000043BAFF30080D20724BF11F8013B11F820
:1005700001CB48BF11F8012B24BF00F8013B00F864
:1005800001CB48BF00F8012B704702F0FF0343EA9C
:10059000032242EA024200F04BBB4FF00002042962
:1005A000C0F0128010F0030C00F04283CCF1040C78
:1005B000BCF1020F18BF00F8012BA8BF20F8022BD6
:1005C000A1EB0C0100F034BB5FEAC17C24BF00F852
:1005D000012B00F8012B48BF00F8012B70470000E9
:1005E00030B44FF0013C50F8042B51F8043BCCFAE6
:1005F00052F4D51A20D1FCB950F8042B51F8043B21
:10060000CCFA52F4D51A17D1B4B950F8042B51F8DA
:10061000043BCCFA52F4D51A0ED16CB950F8042B25
:1006200051F8043BCCFA52F4D51A05D1002CDAD09B
:1006300030BC4FF00000704729BAB1FA81F111F0D7
:100640001801D1F120008440F2D1CA40CB4012F011
:10065000FF0213F0FF0330BCD01A70477047704799
:10066000704770B5044685690068C10601D530261B
:1006700000E02026C00707D070BDD4E90121304634
:100680009047206A401C20626D1EF6D570BD70B583
:10069000044685690078C00707D170BDD4E90121FF
:1006A00020209047206A401C20626D1EF6D570BD48
:1006B00009684A0501D540B27047C905FCD500B2AA
:1006C000704709684A0501D5C0B27047C905FCD515
:1006D00080B2704770B50C460546012A05D02878CF
:1006E000800600D5EA69002302E0012305E05B1CD7
:1006F000934202D2E05C0028F9D1A869E618C01A3A
:10070000A861286A184428622846FFF7AAFF04E077
:10071000D5E9012114F8010B9047B442F8D32846DB
:10072000FFF7B5FF70BD00002DE9F041064600243B
:1007300010687529314616A510D0FFF7B9FF0028BB
:1007400002DA404213A507E031688A0701D512A5F5
:1007500002E0490704D511A5012401E0FFF7B1FF2C
:1007600000210A2206F1240709E0B0FBF2FCB0FBED
:10077000F2F302FB1C00303078541846491C002864
:10078000F3D123462A463046BDE8F04100F0BABA1C
:10079000000000002D0000002B00000020000000E1
:1007A00011680268006A530501D508700AE0D30594
:1007B00001D5088006E0130603D5C217C1E900027F
:1007C00000E008600120704701694A1C0261087856
:1007D000704700B58FB0CDE9013100210591054981
:1007E0007944CDE903101146684600F029F90FB0AD
:1007F00000BD0000E5FFFFFF0A6802F8010B0A6078
:10080000704700002DE9FF5F15468A460446DFF871
:10081000AC80F8440027D8E900103E46CDE900102E
:1008200010E03AF816106A4602A800F07DFE411C5E
:1008300007D02178890603D5E269391891420DD88D
:100840000744761C2078800602D5E069B84205DDB1
:10085000AE42E6DB3AF816000028E2D1A069C01BE0
:10086000A0612046FFF7FDFED8E90010CDE9001099
:10087000002017E03AF818106A4602A800F054FE6B
:10088000B0F1FF3F81460BD000250DF1080B05E0CC
:10089000D4E901211BF8050090476D1C4D45F7D3A5
:1008A00008F10100B0428046E4DB206A384420624F
:1008B0002046FFF7ECFEBDE8FF9F000086560000D3
:1008C0002DE9F0418046D21D22F007020025D2E931
:1008D0000002F52915A614D0011E72F1000106DAF6
:1008E0000023D0EB030063EB020211A608E0D8F866
:1008F00000108B0701D50FA602E0490701D50EA60F
:1009000001251146002408F1240704E000F0B5F9A0
:1009100030323A55641C50EA0102F7D12B46324678
:1009200021464046BDE8F04100F0ECB9000000006F
:100930002D0000002B0000002000000030B400213A
:1009400000F1240408E002F00705D208303542EA3D
:100950004372DB086554491C52EA0305F3D104686D
:10096000002310A2250708D504F020040C4304D06E
:10097000C46901230CA2641EC46130BC00F0C2B97A
:1009800010B5044621461068FFF79BFE024620463C
:10099000BDE810400023D1E7D21D22F00701D1E9C4
:1009A0000023CBE70000000030000000F0B40D464B
:1009B0000188090502D5214C7C4402E01F4C7C448F
:1009C0000E34002100F1240608E002F00F0712099E
:1009D000E75D42EA03721B097754491C52EA030798
:1009E000F3D102780023120704D5702D06D009B187
:1009F000022311342246F0BC00F084B901231034E4
:100A0000F8E770B504460D4621461068FFF759FE19
:100A1000024629462046BDE870400023C6E7D21DA5
:100A200022F00703D3E90023C0E70368126843F00C
:100A3000200303600823C3610023B7E7E8540000E4
:100A40002DE9F05F894604464FF0000ADFF874B1E3
:100A5000FB44C0F820A02046E1688847002874D0F5
:100A6000252806D0D4E901219047206A401C206245
:100A7000F1E700265F462046E168884720280546C2
:100A800007DB312D05D2781910F8200C08B1064388
:100A9000F1E7B00701D526F00406C4F81CA0002732
:100AA000C4F818A02A2D09D0284605F0B1F938B3AA
:100AB00004EB8708303DC8F8185019E059F8041BBA
:100AC000204604EB87029161E1688847012F0546C3
:100AD00018D1E069002820DA26F020061DE0D8F8B9
:100AE000180000EB800005EB40003038C8F8180013
:100AF0002046E1688847054605F08AF90028EED1CE
:100B0000012F0AD02E2D08D12046E16888477F1C8E
:100B10000546022F46F02006C4DBA069002803DA50
:100B2000404246F00106A061F00701D026F0100611
:100B30006C2D0BD0682D09D04C2D39D06A2D35D0B5
:100B4000742D35D07A2D33D016E038E0E1682F4689
:100B500020468847B842054609D16C2F26D04FF46D
:100B60008060E168064320468847054604E06C2F14
:100B70001AD04FF4807006430DB3A5F14100192837
:100B800002D8203546F400664A46294620462660AB
:100B90004E46FFF7A5FB80B101280BD0F61D26F0CD
:100BA000070000F1080956E74020E4E78020D8E775
:100BB0000020D6E706F104094DE7284652E7206AEF
:100BC000BDE8F09F7854000010B5203AC0F00B80CB
:100BD000B1E81850A0E81850B1E81850A0E8185033
:100BE000203ABFF4F5AF5FEA027C24BFB1E81850A9
:100BF000A0E8185044BF18C918C0BDE810405FEA0B
:100C0000827C24BF51F8043B40F8043B08BF704786
:100C1000D20728BF31F8023B48BF11F8012B28BF8B
:100C200020F8023B48BF00F8012B70474FF000024C
:100C300000B5134694469646203922BFA0E80C50D2
:100C4000A0E80C50B1F12001BFF4F7AF090728BFAD
:100C5000A0E80C5048BF0CC05DF804EB890028BF29
:100C600040F8042B08BF704748BF20F8022B11F052
:100C7000804F18BF00F8012B704730B5B0F10A0261
:100C800071F100034FEA900E4EEA817EB0EB0E0048
:100C900061EB91014FEA101E4EEA017E10EB0E004F
:100CA00041EB11114FEA102E4EEA016E10EB0E00CF
:100CB00041EB11214FEA104E4EEA014E10EB0E00AF
:100CC00041EB1141401841F100014FEAD00040EAE8
:100CD00041704FEAD1014FEA810444EA907410EB6D
:100CE000800544EB01046D1944EB0404521BA3413D
:100CF0004FF0000348BF0A3200D530BD401C41F11F
:100D0000000130BD2DE9F0470D4699469246044654
:100D100000F124080168880604D5E06921F010017B
:100D2000216000E00120A84201DD471B00E0002710
:100D3000A1697A1902EB0900081AA0612078C0069F
:100D400002D42046FFF78DFC002608E0D4E90121FB
:100D50001AF806009047206A401C761C20624E4517
:100D6000F4DB2078C0060AD52046FFF77AFC06E0BF
:100D7000D4E9012130209047206A401C2062381EAF
:100D8000A7F10107F4DC07E0D4E9012118F8050018
:100D90009047206A401C2062281EA5F10105F3DC63
:100DA0002046FFF774FC2078000602D50220BDE83B
:100DB000F0870120FBE72DE9FF4F0C461E464FF060
:100DC000FF378BB0D2E90001DDF860800A908A46D7
:100DD000C1F30A5505B93D46002108464FF0000011
:100DE000BAF1000F00F4400005DA00EB80004FF488
:100DF000400101EA50004FEA9059B9F1010F00DDBE
:100E0000B9460A9850EA4A000ED044F61050A5F2AE
:100E1000FF3545432F14B8F1000F1ED07542291E2F
:100E20001EDDC9F100021CE0B8F1010F4FF0000017
:100E300001D0302103E0F24305E02154401CB042D0
:100E4000FBDB30460022002121540B99C1F80880B9
:100E5000C1E900200FB0BDE8F08FBD1B6D1CDEE7BF
:100E60004A4600DA694206A800F0F6FB06AB93E8B2
:100E7000070003AB83E8070050460A9904F0E8FB3B
:100E80008DE80700A0F500501F3800900398002D52
:100E90000ADD42F21F014A460844002303A90390D9
:100EA000684604F051FE09E0A0F500504A461F389C
:100EB000002303A90390684604F05BFE8DE8070059
:100EC0000004000C03D04FF0FF30410800E0104652
:100ED000B8F1000F03D00022009215461EE0751EE7
:100EE00005D4FFF7CAFE303262556D1EF9D5B34600
:100EF0000122084302D000227F1C04E02078302821
:100F000001D100227F1E002A099784D01DE0112DF7
:100F100007DAFFF7B2FE303262556D1C50EA01026B
:100F2000F5D1084302D00098C8B10EE00021681E38
:100F300005E0235C625C63542254401E491C8142DC
:100F4000F7DBAB46A81B401E0990002004F80B00FD
:100F50000B98099AC0F80880C0E9002B7AE711269F
:100F60004FF0000857E72DE9F04F88460446D21DA0
:100F700022F0070191B0D1E90001CDE90A0104F0A6
:100F80002FFF02460B98C00F01D02D2007E02068EC
:100F9000810701D52B2002E0202101EAC000032AAD
:100FA000099001D0072A05DB03464146204600F0A0
:100FB00013FB0BE12078800601D5E06900E00620F4
:100FC000B8F1650F814606D0B8F1660F18D0B8F1B8
:100FD000670F70D131E00020B9F1110F009001DBF3
:100FE000112301E009F101030AAA01A90CA8FFF7E6
:100FF000E2FEDDE90C70002609F10105834647E0B9
:1010000001204B4600904FF000470AAA01A90CA806
:10101000FFF7D1FEDDE90DB00C995D46002610B951
:1010200009F101000D18B9EB050003D4C0F1FF363A
:1010300009F10105A5EB09002BE0B9F1010F01DA77
:101040004FF001090020B9F1110F0090484601DD71
:10105000112300E003460AAA01A90CA8FFF7ABFE82
:10106000DDE90C704D4600268346207800070AD43F
:10107000AB4500DA5D4601A8012D04DD411911F8E8
:10108000011C302907D04F4502DA17F1040F04DAAA
:10109000012082460FE06D1EEEE7002F02DCED1B03
:1010A0003E4403E0781CA84200DD7D1CB81B00F123
:1010B000010A4FF000472078000703D4AA4501DB5E
:1010C0004FF0FF3A0021B7F1004F0DF143088DF8C2
:1010D000431024D002202B23002F01DA7F422D233E
:1010E0000A21021EA0F1010000DC5FB197FBF1FCB8
:1010F00097FBF1F201FB1C7C17460CF1300C08F851
:1011000001CDEEE7A8F1010003702188090501D5A2
:10111000452100E06521A0F1010800F8011C0998B3
:101120000FA9A1EB0807FF1D00B10120411901EB38
:10113000EA70A1693844081A401EA0612078C006F0
:1011400002D42046FFF78DFA099828B1D4E901218D
:101150009047206A401C20622078C00622D5204695
:10116000FFF77FFA1EE0002E04DBB34502DD01A885
:10117000805D00E03020D4E901219047206A401CC6
:101180002062761CAAF101005FEA000A0AD100F091
:101190001DFAC0680168405CD4E901219047206ACB
:1011A000401C2062281EA5F10105DCDC07E0D4E923
:1011B000012118F8010B9047206A401C2062381E5C
:1011C000A7F10107F3DC2046FFF761FA032011B015
:1011D00041E600002DE9F04F04460D46D21D22F0F5
:1011E000070089B0D0E900974846394604F0F8FD79
:1011F0000246F80F01D02D2307E02068810701D5B2
:101200002B2302E0202101EAC0038DF820300BB12E
:10121000012000E00020032A824601D0072A04DBD7
:101220002946204600F0D8F93FE12078800601D415
:101230000D2500E0E569C7F30A560D2D49DA0021B6
:101240004FEA175B08464FF00000002F00F4400003
:1012500007DA00EB80004FF4400100EBD07001EAA8
:1012600060008115012901DD4FF0FF3100224FEAB6
:10127000850CBCF1180F06D31346ACF118004FF0E3
:101280008052C24003E04FF4801323FA0CF30CF1B8
:101290000C0CBCF1200F04D3ACF1200C09FA0CF0BB
:1012A00001E007FA0CF000294FF0004801DD18B901
:1012B0000FE00ED140450CD319EB02095F4121B973
:1012C000404502D19F4329EA0209BBEB175F00D0DA
:1012D000761C2088000502D57B48784402E07A48D5
:1012E0007844193808AA302302F80A30037C0AF13E
:1012F0000101002E0AF1020A53546A4602DC4FF043
:10130000300101E04FF031014FF001088DF800107D
:1013100002D0A6F2FF3603E059EA470100D06B4E37
:10132000002D02DC2178090704D54FF002082E2198
:101330008DF80110C44600210BE0C7F303433F01C1
:10134000C35C491C6D1E02F80830052908F101082C
:1013500001DA002DF1DC00210CE000EB1973491CCF
:101360001B786D1E082902F808304FEA091908F1A8
:10137000010801DA002DF0DC21688B0602D516E0A9
:10138000A8F10108E04505DD02EB080313F8013C74
:10139000302BF5D0B8F1000F09DD02EB080313F88C
:1013A000013C2E2B03D1090701D4A8F10108002D1F
:1013B00005DD3E2102F808106D1E08F10108407C91
:1013C000002E02F8080008F1010804DA2D20764208
:1013D00002F8080002E02B2002F808000A214FF46E
:1013E0007A70864208F101080BDB96FBF0F330338C
:1013F00002F8083096FBF0F308F1010800FB1366D1
:1014000001E0642E0CDB642096FBF0F3303302F82D
:10141000083096FBF0F308F1010800FB136601E0C9
:101420000A2E06DB96FBF1F0303002F8080008F1D6
:10143000010896FBF1F001FB1060303002F8080063
:10144000A16908F1010808EB050202EB0A00081A7D
:10145000A0612078C00602D42046FFF702F9216A75
:1014600008AE01EB0A00206204E0D4E9012116F87D
:10147000010B9047BAF1010AF7D22078C00602D5D5
:101480002046FFF7EEF86E4609E016F8010B3E28FD
:101490000FD0D4E901219047206A401C2062B8F1A6
:1014A0000108F2D22046FFF7F2F809B00320BDE8A8
:1014B000F08F206A2844206203E0D4E90121302023
:1014C00090476D1EEBD3F8E7124C000002FCFFFFC3
:1014D00010B5436913B1AFF3008001E0FFF7FAF8EC
:1014E000012010BD127800F124010A7000224A7018
:1014F0000122EDE711684FF0FF32E9E710B54369CB
:1015000013B1AFF3008001E0FFF77CF9012010BDBB
:10151000128800F1240182840022C2840122EDE7B6
:1015200011684FF0FF32E9E72DE9F04116460C460D
:10153000054600F043F8036893F80101012807D03D
:10154000FF2C12D8185D80B101202C70BDE8F0810D
:10155000D3F807013246214603F20713C71828467D
:10156000BC46BDE8F041002360474FF0FF30EDE797
:10157000754600F0EDF8AE4605006946534620F08A
:101580000700854618B020B5FEF794FFBDE820405F
:101590004FF000064FF000074FF000084FF0000B2F
:1015A000AC46ACE8C009ACE8C009ACE8C009ACE89E
:1015B000C00921F007018D467047000010B500F00A
:1015C00005F8001D10BD00BF8548000010B500F0F3
:1015D000BFF8203010BD00002DE9F0411F46044641
:1015E00003260168072A01F4006004DB08B116A590
:1015F00005E016A503E008B115A500E015A521F04A
:1016000010002060A069C01EA0610FB1401EA06143
:101610002046FFF726F84FB1D4E90121384690471C
:10162000206A401C2062C01C206206E0206AFAE7A3
:10163000D4E9012115F8010B9047761EF8D2204617
:10164000FFF725F8BDE8F0814E414E006E616E0057
:10165000494E4600696E66002DE9F0478146164600
:101660008AB0354878440DC88DE80D00324878447A
:10167000801C03AC0DC884E80D0041F69B30084483
:10168000372190FBF1F290FBF1F5A5F1800501FB0C
:1016900012041B3C02D56442012000E00020DFF868
:1016A00098A080460027FA44AAF1BE0A0EE0E0079F
:1016B0000AD03246684607EB470101230AEB810155
:1016C00004F057FA8DE8070064107F1C002CEED15F
:1016D000194F7F44AE3F19E0E80715D007EB04101F
:1016E0000DF1180A90E80E008AE80E00C068F0427A
:1016F00001D1981908903246012306A903A804F0E5
:1017000038FA03AB83E807006D10641C002DE3D1A9
:101710004FF0010332466946B8F1000F03A802D02A
:1017200004F012FA01E004F024FAC9E90001C9F852
:1017300008200AB0BDE8F0871849000010B504463B
:10174000AFF300802046BDE81040FEF732BE000037
:10175000004870470800002001491820ABBEFEE792
:10176000260002007047000081B08DF803009DF84C
:10177000030000F0010040F21421C2F200010870E1
:1017800001B0704780B584B04EF20860C4F20F001B
:10179000016841F0240101600068039046F20041B5
:1017A000C4F20001086840F00400086046F21C51D1
:1017B000C4F20001086840F00400086046F2FC3101
:1017C000C4F20001086820F00400086045F20041FE
:1017D000C4F20201086840F00E00086045F21C5196
:1017E000C4F20201086840F00E00086045F2FC31C6
:1017F000C4F20201086820F00E00086042F6703062
:10180000C2F20000694648600120086043F265703A
:10181000C0F2000046F24101C0F200018022002324
:1018200003F0C0F904B080BD82B08DF8070045F226
:10183000FC31C4F20201086820F00E0008609DF837
:1018400007000146009140B1FFE7009801280DD044
:10185000FFE70098022812D01AE045F2FC31C4F2EA
:101860000201086840F00800086012E045F2FC310F
:10187000C4F20201086840F00A00086009E045F27D
:10188000FC31C4F20201086840F00200086000E088
:10189000FFE702B07047000081B0ADF80200BDF86C
:1018A000020040F21821C2F200010880BDF80200D7
:1018B00038B9FFE740F26801C2F200010020086079
:1018C0002FE0BDF802001D2807DCFFE740F26801A9
:1018D000C2F200013220086022E0BDF80200632855
:1018E00016DCFFE7BDF802001E384FF4E1714143FA
:1018F0004AF2EB00CEF60E2050FB0111881100EBEE
:10190000D170323040F26801C2F20001086006E096
:1019100040F26801C2F2000100200860FFE7FFE723
:10192000FFE701B07047000080B582B04EF208605A
:10193000C4F20F00016841F02301016000680190CA
:1019400045F22051C4F2020144F24B30C4F64F403C
:10195000086045F22451C4F20201086840F0010019
:10196000086045F20041C4F20201086820F011004D
:101970000860086840F00200086045F21C51C4F29B
:101980000201086840F01300086045F21051C4F2EB
:101990000201086840F01100086044F20041C4F2FE
:1019A0000001086820F00C00086044F21C51C4F2E9
:1019B0000001086840F00C00086044F21051C4F2C5
:1019C0000001086840F00C00086045F20041C4F2D4
:1019D0000001086820F03000086045F21C51C4F294
:1019E0000001086840F03000086045F21051C4F270
:1019F0000001086840F03000086000F0C1FC02B04F
:101A000080BD000040F26C00C2F20000007800F0DF
:101A10000100704780B5012000F004F8022000F0BA
:101A200085FD80BD80B582B08DF8070044F2FC31A1
:101A3000C4F20001086820F0400008609DF807002B
:101A4000000900F027F99DF8070000F00F0000F0F2
:101A500021F99DF80700032804DCFFE7022000F0CD
:101A600065FD03E0322000F077FDFFE702B080BDA6
:101A700080B582B08DF8070044F2FC31C4F2000159
:101A8000086840F0400008609DF80700000900F079
:101A900001F99DF8070000F00F0000F0FBF832207C
:101AA00000F05AFD02B080BD80B588B0ADF81E00D0
:101AB00000210191084600F0D5F845F6ED70C0F21E
:101AC000000000F045F90199012000F0CBF8BDF8C5
:101AD0001E2046F23001C0F200010DF10E0002900E
:101AE000FEF7F8FC029800F033F908B080BD000062
:101AF00080B582B000210191084600F0B3F845F6A8
:101B0000CB70C0F2000000F023F90199012000F031
:101B1000A9F845F6DC70C0F2000000F019F94FF4A6
:101B20007A7000F003FD02B080BD000080B582B085
:101B30008DF807000021084600F094F89DF8070092
:101B4000C00738B1FFE745F6FE70C0F2000000F0B4
:101B5000FFF806E046F20F00C0F2000000F0F8F8CF
:101B6000FFE702B080BD000080B586B08DF8170099
:101B70000120002100F076F89DF8172046F22001A0
:101B8000C0F200010DF107000090FEF7A3FC0098E1
:101B900000F0DEF806B080BD80B584B04EF208607B
:101BA000C4F20F00016841F0090101600068039070
:101BB00044F20041C4F20001086840F0C00008602F
:101BC00044F21C51C4F20001086840F0C0000860F3
:101BD00047F20041C4F20001086840F00F000860BD
:101BE00047F21C51C4F20001086840F00F00086081
:101BF000322000F09BFC44F2FC31C4F20001086882
:101C000020F0400008600320009000F043F8052019
:101C100000F08CFC009800F03DF89620019000F058
:101C20009BFC009800F036F8019800F095FC02202B
:101C3000029000F02FF8019800F08EFC2820FFF7AA
:101C4000F1FE0C20FFF7EEFE0120FFF7EBFE0298FD
:101C500000F06CFC0620FFF7E5FEFFF7DBFE04B0AA
:101C600080BD000080B582B08DF807008DF80610A9
:101C70009DF8071045F69870C0F20000405C9DF892
:101C80000610084440F08000C0B2FFF7CBFE02B05F
:101C900080BD000080B584B08DF80F0047F2FC31A4
:101CA000C4F20001086820F00F0008609DF80F00E2
:101CB000C00748B1FFE747F2FC31C4F200010868F1
:101CC00040F001000860FFE79DF80F008007002842
:101CD00009D5FFE747F2FC31C4F20001086840F083
:101CE00002000860FFE79DF80F004007002809D5B3
:101CF000FFE747F2FC31C4F20001086840F004003D
:101D00000860FFE79DF80F000007002809D5FFE7EE
:101D100047F2FC31C4F20001086840F00800086096
:101D2000FFE744F2FC31C4F200010191086840F081
:101D3000800008600120029000F00EFC019A0298D9
:101D4000116821F08001116000F006FC04B080BD34
:101D500080B582B00190FFE70198007838B1FFE7C5
:101D60000198411C01910078FFF782FEF4E702B070
:101D700080BD000080B540F26C00C2F2000001227C
:101D8000027045F2FC30C4F20200022100F008FBB0
:101D900080BD000080B545F2FC30C4F20200102185
:101DA00000F09AF880F0010080BD000080B545F297
:101DB000FC30C4F20200012100F08EF880F0010036
:101DC00080BD0000000000000000000000000000D6
:101DD000EFF30980BFF36F8F154B1A681EF0100FD9
:101DE00008BF20ED108A20E9F04F10602DE90900AE
:101DF0004FF0800080F31188BFF34F8FBFF36F8FD8
:101E000002F0B8F94FF0000080F31188BDE8090036
:101E100019680868B0E8F04F1EF0100F08BFB0EC6A
:101E2000108A80F30988BFF36F8F704700BF00BF2F
:101E3000C002002080B544F2FC30C4F2000008214A
:101E400000F04AF880BD000080B584B045F2FC3057
:101E5000C4F200000190102100F03EF80146019804
:101E60008DF80E10202100F037F88DF80D009DF848
:101E70000D109DF80E0040EA41008DF80C009DF811
:101E80000C000146029140B1FFE70298012808D0FA
:101E9000FFE70298022808D00BE000208DF80F0021
:101EA0000BE001208DF80F0007E002208DF80F00F5
:101EB00003E000208DF80F00FFE79DF80F0004B04D
:101EC00080BD000080B544F2FC30C4F20000042163
:101ED00000F002F880BD000082B001908DF8031080
:101EE000019800689DF803100840002818BF0120E1
:101EF00002B0704781B048F22801C4F203010868BB
:101F000040F008000860FFE748F20400C4F2030054
:101F100000680007002801D4FFE7F5E748F2A800B1
:101F2000C4F203000068009048F20C01C4F20301FF
:101F3000086840F008000860009864214843C0F336
:101F4000073001B0704700000000000000000000F2
:101F5000074B19680868B0E8F04F80F30988BFF3B1
:101F60006F8F4FF0000080F31188704700BF00BFF3
:101F7000C002002081B04EF23861C4F20F0108683F
:101F800040F0010008604EF20860C4F20F000168E2
:101F900041F0100101600068009044F22041C4F259
:101FA0000201086840F00400086044F21C51C4F2C9
:101FB0000201086820F00400086044F22851C4F2CD
:101FC0000201086840F00400086048F20001C4F211
:101FD0000301086820F00800086048F21402C4F207
:101FE0000302106820F47040106048F2A002C4F2AE
:101FF00003020120106048F2A403C4F203031A682C
:1020000042F006021A6048F6C472C4F2030210607D
:10201000086840F00800086001B0704780B54EF2D3
:102020001000CEF20000006802F0ACFE012803D0E0
:10203000FFE702F04BF9FFE780BD000081B04EF6EC
:102040008851CEF20001086840F4700008604EF23A
:102050007001C4F20F0142F61000C0F280700860F7
:102060004EF26002C4F20F0243F6D120C0F28E702D
:10207000106042F64250C0F29E10106042F600001E
:10208000C0F28010086000200090FFE70098C008B0
:102090007C2805D8FFE7FFE7009801300090F5E7BE
:1020A0004EF26001C4F20F0140F64250C0F29E10A1
:1020B00008604EF27001C4F20F0140F60000C0F259
:1020C0008010086000200090FFE70098C0087C287E
:1020D00005D8FFE7FFE7009801300090F5E74EF2E2
:1020E0006001C4F20F0140F64250C0F2DE100860F9
:1020F000FFE74EF25000C4F20F00006800F040000D
:10210000402801D0FFE7F4E74EF26001C4F20F016E
:1021100040F24250C0F2DE1008604EF27001C4F28C
:102120000F014FF0C070086000200090FFE700989A
:1021300042F20F71884205D8FFE7FFE700980130AF
:102140000090F4E701B0704740F21620C2F20000A0
:102150000088704781B040F21620C2F2000000886B
:10216000652804DBFFE700208DF803000FE040F254
:102170001620C2F2000000881F2804DBFFE70120C0
:102180008DF8030003E002208DF80300FFE79DF8BF
:10219000030001B07047000081B04EF20860C4F245
:1021A0000F00016841F0020101600068009045F2F3
:1021B0000041C4F20001086840F04000086008686F
:1021C00020F08000086045F21C51C4F2000108684C
:1021D00040F0C000086045F2FC31C4F2000108681C
:1021E00020F0400008604EF20460C4F20F00016865
:1021F00041F001010160006800900C21C4F203016C
:10220000086820F0010008600022C4F203020420E4
:1022100010600422C4F20302172010602822C4F2C6
:1022200003024FF6FF7010603822C4F20302FF2051
:102230001060086840F00C0008602421C4F203011B
:10224000012008601821C4F20301086840F0010071
:10225000086040F21621C2F200010020088001B09F
:102260007047000080B584B0002003900290019078
:1022700045F2FC31C4F200010091086840F04000D2
:102280000860012001F0F2FD0099086820F040008C
:102290000860FFE745F2FC30C4F200000068000669
:1022A000002812D4FFE703980130039044F2412143
:1022B000C0F20F01884207D3FFE740F21621C2F2B5
:1022C00000010020088059E0E4E70C21C4F203017A
:1022D000086840F0010008605021C4F203010020AA
:1022E0000860FFE745F2FC30C4F200000068000619
:1022F00000281AD5FFE702980130029040F601113C
:10230000C0F23D0188420FD3FFE70C21C4F2030164
:10231000086820F00100086040F21621C2F20001B6
:102320004FF4C870088029E0DCE74820C4F20300BD
:10233000006801900C21C4F20301086820F001003C
:102340000860019848F2FC5148434DF68361C4F29D
:102350001B31A0FB0110C10D40F21620C2F200009B
:1023600001800088B0F5C87F08DDFFE740F2162144
:10237000C2F200014FF4C8700880FFE704B080BDCE
:1023800080B540F26C00C2F200000022027045F2FB
:10239000FC30C4F20200022100F002F880BD00000F
:1023A00082B001908DF803108DF802209DF8020094
:1023B000C00738B1FFE79DF8032001990868104372
:1023C000086006E09DF803200199086890430860C2
:1023D000FFE702B07047000080B582B0019000F0C6
:1023E0006BF958B1FFE700F0C7F838B1FFE7019883
:1023F00000684FF0FF3102F0A3FAFFE702B080BDA2
:1024000080B582B001900198006801F0D1FC0020F5
:102410000090FFE7009804281AD8FFE701980068A9
:10242000009A40F20021C2F2000151F822108842C5
:1024300009D1FFE7009A40F20021C2F2000100201A
:1024400041F8220004E0FFE7009801300090E1E746
:1024500002B080BD80B584B0019001990020086071
:102460000090FFE70098042828D8FFE7009940F281
:102470000020C2F2000050F82100D0B9FFE7009818
:1024800000EB800140F27000C2F2000000EB01118D
:10249000012001F04DFF0146009A40F20020C2F2F7
:1024A000000040F82210009950F8210001990860BE
:1024B00004E0FFE7009801300090D3E7019800683E
:1024C00050B9FFE700F0F8F830B1FFE7012001F064
:1024D0001BFF01990860FFE700200390039880F339
:1024E00011880198006818B9FFE70020029002E007
:1024F00001200290FFE7029804B080BD80B582B051
:10250000019000F0D9F860B1FFE700F035F840B174
:10251000FFE701980068002319461A4602F004F804
:10252000FFE702B080BD00007047000080B582B0B8
:10253000019000200090FFE700980199884209D29D
:10254000FFE74FF47A7000F007F8FFE700980130DA
:102550000090F1E702B080BD82B00190019800EBDD
:1025600040000090FFE70098411E009108B1FFE78E
:10257000F9E702B07047000082B0EFF305800190E8
:10258000019818B9FFE70120009002E000200090B8
:10259000FFE7009802B0704780B588B00020059032
:1025A0000790FFF7C1F9FFF7E5FCFFF7F5FDFFF72F
:1025B000F3FAFFF7E7F8059A01210691084601F0C2
:1025C000D1FE059A0146069842F6EC33C2F20003AA
:1025D00019600221039101F0C5FE0146069842F6FA
:1025E000A832C2F20002116001F08EFE0146069888
:1025F00042F69C32C2F20002116001F085FE059B9A
:102600000146039842F66C32C2F20002116042F6B3
:10261000E832C2F2000269464A60086043F6396057
:10262000C0F2000045F6A671C0F2000180220492BB
:1026300002F0B8FA049A059B42F6AC30C2F20000F0
:10264000694648600320086043F6B110C0F20000FC
:1026500045F69A71C0F2000102F0A4FA049A059BB3
:10266000039842F6A43CC2F2000C6946C1F804C0CB
:10267000086043F6E500C0F2000045F6B371C0F211
:10268000000102F08FFA049A059B069842F6A03CDE
:10269000C2F2000C6946C1F804C0086043F6490064
:1026A000C0F2000045F6C371C0F2000102F07AFAF0
:1026B00001F0F6FCFFE7FEE780B582B002F062FBB6
:1026C000022803D1FFE70120019002E000200190E1
:1026D000FFE7019802B080BD80B586B005900491F7
:1026E00042F62040C2F200000068029040F2C02092
:1026F000C2F200000268002182F85A10006804301B
:1027000000F0DAFF08B9FFE700E0FFE705980130C5
:1027100018BBFFE7049800B3FFE742F6F831C2F2B6
:10272000000148680190019A40F2C020C2F2000006
:1027300003689A60019A92680368DA60026804325A
:10274000019B9B685A6002680432019B9A60006892
:1027500041610868013008603DE00298059908442D
:102760000390039840F2C021C2F20001096848605A
:102770000398029988420ED2FFE740F2D020C2F2BD
:102780000000006840F2C021C2F200010968043173
:1027900001F044FA1EE040F2C820C2F200000068D6
:1027A00040F2C021C2F200010968043101F036FA9A
:1027B000039842F6BC31C2F200010968884207D290
:1027C000FFE7039842F6BC31C2F20001086000E066
:1027D000FFE7FFE7FFE706B080BD000080B582B0ED
:1027E000019001F05BFA42F23871C2F20001086810
:1027F0000130086040F2C020C2F20000006898B9C1
:10280000FFE7019840F2C021C2F20001086042F2E5
:102810003870C2F200000068012803D1FFE700F021
:10282000F7FA00E0FFE71CE042F6E430C2F20000F5
:102830000068A0B9FFE740F2C020C2F200000068C3
:10284000C06A0199C96A884207D8FFE7019840F237
:10285000C021C2F20001086000E0FFE700E0FFE7EE
:10286000FFE742F24470C2F20000016801310160EA
:102870000068019948640198C06A42F24871C2F246
:1028800000010968884208D9FFE70198C06A42F24E
:102890004871C2F200010860FFE70198C06A00EBCE
:1028A000800040F2D821C2F2000101EB80004068B4
:1028B00000900098019A906000988068019AD0601A
:1028C00001980430009A9268506001980430009A90
:1028D0009060019AD06A00EB800001EB80005061AB
:1028E0000198C06A00EB800251F82200013041F8E3
:1028F000220001F0EBF942F6E430C2F20000006879
:10290000C8B1FFE740F2C020C2F200000068C06A10
:102910000199C96A88420CD2FFE74EF60451CEF203
:1029200000014FF080500860BFF34F8FBFF36F8FEF
:1029300000E0FFE700E0FFE702B080BD80B584B0B3
:1029400001F0ACF942F62440C2F20000006878BB06
:10295000FFE742F64430C2F20000029001F03EF977
:1029600042F65830C2F20000039001F037F90299A4
:10297000039840F2C422C2F20002116040F2D42156
:10298000C2F20001086069460020086040F21A2285
:10299000C2F2000240F26C23C2F2000305201021B3
:1029A00001F024FD42F62441C2F20001086000E07B
:1029B000FFE701F08BF904B080BD000080B582B064
:1029C000FFE742F23C70C2F20000006808B3FFE784
:1029D00001F064F942F60C40C2F20000C068C06821
:1029E00001900198043000F067FE42F23871C2F2A3
:1029F000000108680138086042F23C71C2F200012F
:102A000008680138086001F061F9019800F08CF85D
:102A1000D7E702B080BD000080B582B00190009180
:102A20000198006CB8B1FFE70199C8680A6C1044BE
:102A3000C86001988168C068884204D3FFE70199A3
:102A40000868C86000E0FFE70098019AD168126C3E
:102A5000FDF756FDFFE702B080BD000080B586B0EF
:102A6000059004910392002002900598806B0190DC
:102A70000598006C78B9FFE70598006848B9FFE74A
:102A80000598806802F0C8FA0290059900208860D5
:102A900000E0FFE741E00398B8B9FFE7059A049921
:102AA0005068126CFDF72CFD059948680A6C1044BB
:102AB0004860059948688968884204D3FFE705990A
:102AC0000868486000E0FFE726E0059A0499D068AE
:102AD000126CFDF715FD0599C8680A6C801AC8606C
:102AE00005980168C068884206D2FFE705998868A2
:102AF0000A6C801AC86000E0FFE70398022809D139
:102B0000FFE7019820B1FFE701980138019000E04C
:102B1000FFE700E0FFE7FFE7FFE7019801300599D5
:102B20008863029806B080BD80B582B0019001989C
:102B300090F8590040B9FFE70198006B01F0DAF80E
:102B4000019801F0D7F80BE0019890F8590001289E
:102B500004D1FFE7019801F0CDF800E0FFE7FFE7BF
:102B600002B080BD82B001900198406A38B1FFE7A1
:102B70000198006B0068C0F13800009002E000206E
:102B80000090FFE7009802B07047000082B001900B
:102B900040F2C420C2F2000000680068B0FA80F081
:102BA0004009019908600198006848B9FFE740F2C0
:102BB000C420C2F200000068C0680068009002E013
:102BC00000200090FFE7009802B0704784B04FF4F7
:102BD0000050009040F23870C2F2000001909DF861
:102BE0000400400788B1FFE7019807300190019881
:102BF00020F007000190019A40F23871C2F2000102
:102C00000098891A08440090FFE701980290029901
:102C100042F6F030C2F200000160002141600298EB
:102C2000009A10440190019808380190019820F012
:102C300007000190019A40F2CC20C2F2000002602D
:102C40000268516002681160029903910199039A28
:102C5000891A51600068039908600398406842F639
:102C6000B831C2F2000108600398406842F6B03102
:102C7000C2F20001086004B07047000080B582B065
:102C80000190FFE7FFF79AFE40F2D820C2F2000061
:102C9000006802280CD3FFE74EF60451CEF2000183
:102CA0004FF080500860BFF34F8FBFF36F8F00E08D
:102CB000FFE7E7E780B582B00190019868B1FFE7D0
:102CC000019800238360019803600198C360019814
:102CD00019461A4601F028FC00E0FFE702B080BD6B
:102CE00080B584B0DDF818C00390029101928DF890
:102CF0000330029818B9FFE70698006003E00198D6
:102D000006990860FFE703980699C8630298069938
:102D100008640698012101F09FFB9DF803000699C5
:102D200081F84C0004B080BD80B586B0DDF82CC0C1
:102D3000DDF828C0DDF824C0DDF820C0059004913E
:102D4000039202930A98006B03998900A522FDF76C
:102D50001CFC0A98006B039900EB81000438019079
:102D6000019820F0070001900498F8B1FFE70020D7
:102D70000090FFE700980F2813D8FFE70498009A07
:102D8000805C0A99114481F8340004980099405CF1
:102D900008B9FFE705E0FFE7FFE700980130009082
:102DA000E8E70A99002081F8430000E0FFE708986F
:102DB000382803D3FFE73720089000E0FFE70898A2
:102DC0000A99C86208980A99C8640A98043000F001
:102DD0001DFF0A98183000F019FF0A980061089842
:102DE000C0F138000A9988610A98406201980599F3
:102DF000029A00F031FC0A990860099820B1FFE7B7
:102E00000A980999086000E0FFE706B080BD00005D
:102E100080B584B000200390FFE70398372810D8CE
:102E2000FFE7039800EB800140F2D820C2F20000D7
:102E300000EB810000F0D2FEFFE703980130039021
:102E4000EBE742F67430C2F20000019000F0C6FEDB
:102E500042F68830C2F20000029000F0BFFE42F657
:102E6000D030C2F2000000F0B9FE42F60C40C2F2CF
:102E7000000000F0B3FE42F6F830C2F2000000F0AD
:102E8000ADFE0199029840F2C822C2F20002116020
:102E900040F2D021C2F20001086004B080BD000001
:102EA00083B0029042F6F030C2F200000190FFE7DA
:102EB000019800680299884205D2FFE7FFE7019870
:102EC00000680190F4E70198009000980199496822
:102ED00008440299884209D1FFE7029842680199A3
:102EE0004868104448600198029000E0FFE70298AB
:102EF000009000980299496808440199096888423D
:102F000020D1FFE70198006840F2CC21C2F2000115
:102F1000096888420DD0FFE701980068426802996D
:102F20004868104448600198006800680299086089
:102F300007E040F2CC20C2F200000068029908606D
:102F4000FFE704E00198006802990860FFE7019834
:102F50000299884204D0FFE702980199086000E0D6
:102F6000FFE703B07047000080B586B0059004917C
:102F700003920293002001900498059948600598F7
:102F8000006104980399884216D8FFE703980299D4
:102F9000401A05998969884203D3FFE7012001900F
:102FA00009E040F2D420C2F2000000680599043123
:102FB00000F034FEFFE717E003980299884208D238
:102FC000FFE704980299884203D3FFE701200190AC
:102FD00009E040F2C420C2F2000000680599043103
:102FE00000F01CFEFFE7FFE7019806B080BD00007F
:102FF00080B582B0019000F051FE0198806B18B945
:10300000FFE70120009002E000200090FFE700F0C1
:103010005DFE009802B080BD80B582B0019000F0E6
:103020003DFE0198806B0199C96B884203D1FFE78F
:103030000120009002E000200090FFE700F046FE33
:10304000009802B080BD000008480068006880F366
:1030500008884FF0000080F3148862B661B6BFF3B1
:103060004F8FBFF36F8F00DF00BF000008ED00E05F
:1030700080B584B00390029140F2C420C2F20000F7
:103080000068C068C06801900198043000F014FB2B
:10309000019890F828004007002806D5FFE701981E
:1030A0000399029A00F0FEF807E0019991F82800D0
:1030B00000F0FE0081F82800FFE70198016A8847C8
:1030C00004B080BD80B58AB0FFE742F62440C2F26A
:1030D0000000006806A9002201F088FB002800F02B
:1030E0009180FFE70698B0F1FF3F09DCFFE706A8F3
:1030F0000430029002990A6848688968904700E0A5
:10310000FFE70698002800F17C80FFE7089805900B
:103110000598406928B1FFE70598043000F0CCFA23
:1031200000E0FFE704A800F0F5F8039006980138E6
:1031300001460191082862D80199DFE801F00505F0
:10314000323A4C0505323A00059991F8280040F0D2
:10315000010081F828000598079B81691944039AAA
:10316000FFF702FFD8B1FFE7059890F82800400765
:10317000002808D5FFE70598079982691144039A4A
:1031800000F090F807E0059991F8280000F0FE00A3
:1031900081F82800FFE70598016A884700E0FFE70B
:1031A0002EE0059991F8280000F0FE0081F8280033
:1031B00026E0059991F8280040F0010081F82800E8
:1031C0000798059988610598039B816919441A46F7
:1031D000FFF7CAFE14E0059890F828008007002841
:1031E00004D4FFE7059800F085FD07E0059991F804
:1031F000280000F0FE0081F82800FFE700E0FFE76C
:10320000FFE762E70AB080BD80B584B00390029109
:1032100000F0A8FF684600F07DF801900098D8BB48
:10322000FFE7029860B9FFE703980199884207D841
:10323000FFE702F0CBF803980199FFF719FF2AE0A6
:10324000029858B1FFE740F2D420C2F200000068B3
:103250000068B0FA80F040090290FFE742F624408F
:10326000C2F2000000680399019A891A029A00F0DC
:10327000B1FD02F0ABF860B9FFE74EF60451CEF2B3
:1032800000014FF080500860BFF34F8FBFF36F8F86
:1032900000E0FFE7FFE702E002F098F8FFE704B084
:1032A00080BD000080B584B0039002910192FFE7D9
:1032B0000398029B81691944019AFFF755FE48B1B2
:1032C000FFE7039881690298084402900398016A15
:1032D0008847EDE704B080BD40F2C820C2F200008C
:1032E0000068006840B9FFE742F6BC31C2F2000155
:1032F0004FF0FF3008600CE040F2C820C2F200003E
:103300000068C068006842F6BC31C2F20001086083
:10331000FFE7704780B582B0019001F04FFD00904B
:10332000009840F2BC21C2F200010968884206D22E
:10333000FFE700F011F801990120086003E001990E
:1033400000200860FFE7009840F2BC21C2F20001B3
:103350000860009802B080BD80B582B0FFE740F2FF
:10336000C420C2F200000068006870B1FFE740F2BC
:10337000C420C2F200000068C06800680190019893
:103380004FF0FF31FFF774FEE9E740F2C422C2F2CA
:1033900000021068009040F2D421C2F200010868D7
:1033A00010600098086002B080BD000082B000206C
:1033B00000904FF0800080F31188BFF36F8FBFF350
:1033C0004F8F0190FFE7009808B9FFE7FBE702B0D5
:1033D0007047000080B584B00390FFE701A8FFF7B5
:1033E000D5FB029002980199FFF70EFFFFF76AFEE6
:1033F000F4E7000080B582B0019000F04FFC019826
:1034000090F845008DF80300FFE79DF903000128BF
:1034100016DBFFE70198406A58B1FFE701982430B6
:1034200001F016FF18B1FFE700F058FD00E0FFE7DC
:1034300000E005E09DF8030001388DF80300E4E7A3
:103440000199FF2081F8450000F040FC00F026FCC7
:10345000019890F844008DF80200FFE79DF9020002
:10346000012816DBFFE70198006980B1FFE70198AA
:10347000103001F0EDFE18B1FFE700F02FFD00E085
:10348000FFE79DF8020001388DF8020000E000E03F
:10349000E4E70199FF2081F8440000F017FC02B036
:1034A00080BD000080B588B007900020039000F038
:1034B00059FE40F2CC20C2F20000006818B9FFE7C4
:1034C000FFF784FB00E0FFE70798A8B1FFE7079844
:1034D00000F00700C0F11000029007980299C9435C
:1034E000884205D8FFE7029907980844079002E050
:1034F00000200790FFE700E0FFE79DF81F000006AF
:10350000002800F18C80FFE70798002800F08580F4
:10351000FFE7079842F6B031C2F20001096888421D
:103520007BD8FFE742F6F030C2F200000590006859
:103530000690FFE706984168079A002091420190A3
:1035400007D2FFE706980068002818BF0120019005
:10355000FFE70198C00730B1FFE70698059006988D
:1035600000680690E6E7069840F2CC21C2F200011E
:10357000096888424FD0FFE705980068083003903B
:103580000698006805990860069840680799401AEF
:10359000112811D3FFE7069807990844049006986C
:1035A00040680799401A049948600798069948604E
:1035B0000498FFF775FC00E0FFE70698426842F6C2
:1035C000B030C2F200000168891A0160006842F65A
:1035D000B831C2F20001096888420BD2FFE742F617
:1035E000B030C2F20000006842F6B831C2F2000109
:1035F000086000E0FFE70699486840F00040486036
:1036000006990020086042F6C431C2F20001086841
:103610000130086000E0FFE700E0FFE700E0FFE7BF
:1036200001F0D4FE039808B080BD000040F2C02035
:10363000C2F20000006848B1FFE740F2C020C2F2C9
:1036400000000168086D01300865FFE740F2C02006
:10365000C2F200000068704783B0029001910092AE
:1036600002980438029002994FF080700860029826
:1036700004380290019820F0010002990860029835
:1036800004380290029943F2AD30C0F200000860A5
:103690000298143802900098029908600298043841
:1036A000029002996FF002000860029820380290A0
:1036B000029803B07047000082B001900198006941
:1036C000009001984168806888600199486889681D
:1036D0004860009840680199884205D1FFE7019849
:1036E00080680099486000E0FFE7019900200861C8
:1036F00000990868013808600098006802B07047B7
:1037000083B0029001910092029942F64C10C2F2ED
:1037100000000860019942F24C70C2F2000008609B
:1037200000998020086003B07047000083B00290C9
:1037300001910092029942F6E820C2F2000008606E
:10374000019942F6A810C2F20000086000995020CA
:10375000086003B07047000082B00190009102B091
:103760007047000080B584B0039000208DF80B00F6
:103770004FF4FA70009001F021FB0190FFE740F256
:103780001420C2F200000078C007D0B1FFE79DF816
:103790000B10012088438DF80B009DF80B0000F002
:1037A0000100002818BF042046F2FC31C4F20001D9
:1037B0000860FFE701A84FF4FA7101F085FAFFE70E
:1037C00040E040F26800C2F20000006838B3FFE752
:1037D0009DF80B10012088438DF80B009DF80B001D
:1037E00000F00100002818BF042046F2FC31C4F2AA
:1037F00000010860FFE740F26800C2F200000068C4
:103800004FF47A71484344F6D351C1F26201A0FBF0
:103810000110810901A801F057FAFFE711E046F213
:10382000FC31C4F20001086820F0040008600020A8
:103830008DF80B00642000F019FB01F0BFFA019035
:10384000FFE7FFE79BE7000080B584B00390C82046
:103850000090FFE742F69C30C2F2000000680A21A7
:1038600001F06EF8012838D1FFE742F6EC30C2F2E1
:10387000000000680DF10B01002200F00BFF012891
:1038800005D1FFE79DF80B00FEF76EF9FFE7FEF7A5
:10389000DBFA8DF807009DF80700022812D1FFE738
:1038A00042F6A830C2F20000006802A9002200F02F
:1038B000F1FE012805D1FFE7BDF80800FEF7F4F896
:1038C000FFE7FFE742F69C30C2F2000000680023E9
:1038D00019461A4600F028FEFFE7C82000F0C6FA95
:1038E000B8E7000080B584B0039064200190FFE742
:1038F000FEF7AAFA8DF809009DF80900022834D1D4
:10390000FFE7FEF7AFFCFEF71FFCADF80A00FEF77D
:1039100021FC8DF8080042F66C30C2F2000000680D
:103920000A2101F00DF8012813D1FFE79DF80800E6
:10393000FDF77AFFBDF80A00FDF7AEFF42F66C30E6
:10394000C2F200000068002319461A4600F0ECFDA0
:10395000FFE742F6A830C2F2000000680DF10A014C
:103960000022022300F0E0FD1DE042F66C30C2F2BE
:10397000000000680A2100F0E3FF012812D1FFE7F0
:1039800000200090FDF750FF0098FDF785FF009B99
:1039900042F66C30C2F20000006819461A4600F088
:1039A000C3FDFFE7FFE7642000F060FAA0E7000036
:1039B00080B588B0079000208DF81800322005905F
:1039C000FFE742F6EC30C2F2000000680DF11B0187
:1039D000002200F05FFE012804D0FFE700208DF8F0
:1039E0001B00FFE7FEF7D6F9F8B1FFE7FEF7C2F9D3
:1039F00042F69C30C2F2000000680A2100F0A0FFED
:103A000001280ED1FFE70120FEF790F842F69C3026
:103A1000C2F200000068002319461A4600F084FD37
:103A2000FFE7C82000F022FAFFE7FEF7BFF900B376
:103A3000FFE7FEF7A5FC42F69C30C2F200000068EA
:103A40000A2100F07DFF01280FD1FFE7002003903D
:103A5000FEF76CF8039B42F69C30C2F2000000684F
:103A600019461A4600F060FDFFE7C82000F0FEF995
:103A7000FFE7FEF727FA8DF81A00FEF7DBF98DF85D
:103A800019009DF81B000B2820DBFFE7FDF7BAFFAC
:103A9000E0B9FFE7FEF76EF942F69C30C2F2000093
:103AA00000680A2100F04CFF01280ED1FFE7012039
:103AB000FEF73CF842F69C30C2F20000006800239A
:103AC00019461A4600F030FDFFE7FFE79DF81A009F
:103AD000C00708BBFFE7FDF795FFE8B1FFE7FEF77A
:103AE0004FFC42F69C30C2F2000000680A2100F050
:103AF00027FF01280FD1FFE700200290FEF716F8FC
:103B0000029B42F69C30C2F20000006819461A4639
:103B100000F00AFDFFE7FFE79DF81B1000200129D8
:103B2000019006DBFFE79DF8190000F0010001900D
:103B3000FFE7019800F001008DF813009DF81300D5
:103B400000F001009DF8181001F00101884240D0FA
:103B5000FFE79DF8130000F001008DF8180042F611
:103B60006C30C2F2000000680A2100F0E9FE012872
:103B700011D1FFE79DF8180000F00100FDF7F4FDFA
:103B800042F66C30C2F200000068002319461A4663
:103B900000F0CAFCFFE79DF81800C007C0B1FFE7BE
:103BA00042F69C30C2F2000000680A2100F0C8FE14
:103BB00001280DD1FFE7FDF79BFF42F69C30C2F2D2
:103BC00000000068002319461A4600F0ADFCFFE72C
:103BD000FFE7322000F04AF9F3E6000081B00090E0
:103BE000009901F10800486000994FF0FF308860AB
:103BF000009901F10800C860009901F1080008610E
:103C000000990020086001B07047000081B000906A
:103C100000990020086101B07047000084B0039053
:103C200002910298006800900098013020B9FFE7E7
:103C300003980069019010E0039808300190FFE7B5
:103C40000198406800680099884205D8FFE7FFE7BF
:103C5000019840680190F3E7FFE7019840680299F6
:103C600048600298416888600198029988600298CB
:103C70000199486003980299086103990868013026
:103C8000086004B070470000DFF80C00016841F4E0
:103C9000700101607047000088ED00E081B04FF0D6
:103CA000800080F31188BFF36F8FBFF34F8F0090B8
:103CB00040F20400C2F200000168013101600068B6
:103CC000012801D1FFE7FFE701B0704781B040F262
:103CD0000400C2F20000016801390160006830B9D7
:103CE000FFE700200090009880F31188FFE701B003
:103CF0007047000080B584B0039003980290039849
:103D000088B3FFE702980838029002980190019862
:103D1000C1790020B0EBD11F23D0FFE701980068E4
:103D2000E8B9FFE70199486820F00040486000F0DA
:103D300019FA0198426842F6B031C2F200010868EF
:103D4000104408600198FFF7ABF842F6C831C2F2A0
:103D5000000108680130086001F038FB00E0FFE76F
:103D600000E0FFE7FFE704B080BD00004EF2100165
:103D7000CEF20001002008604EF21802CEF20002DE
:103D8000106040F20000C2F20000006844F6D35216
:103D9000C1F26202A0FB02024FF0FF3000EB921072
:103DA0004EF21402CEF20002106007200860704745
:103DB00080B582B0019001980090009890F846007C
:103DC00020B9FFE70098FFF795FF00E0FFE702B09A
:103DD00080BD000080B584B00390029101920398E9
:103DE0000090FFF75BFF009890F94400013028B97C
:103DF000FFE70099002081F84400FFE7009890F960
:103E00004500013028B9FFE70099002081F84500FE
:103E1000FFE7FFF75BFF0098806B38B9FFE700987A
:103E200024300299019A00F075F800E0FFE700984D
:103E3000FFF7E0FA04B080BD80B584B00390642041
:103E40000190FFE7FEF756F88DF80B0042F6EC30D4
:103E5000C2F2000000680DF10B010022022300F005
:103E600063FB642000F002F8ECE7000080B582B04C
:103E7000019000200090019850B1FFE700F072F926
:103E800001980021FEF728FC01F0A0FA009000E064
:103E9000FFE7009860B9FFE74EF60451CEF200014B
:103EA0004FF080500860BFF34F8FBFF36F8F00E07B
:103EB000FFE702B080BD000081B0009042F6C03044
:103EC000C2F2000000680099086042F62040C2F289
:103ED000000000680099486001B0704742F62C412C
:103EE000C2F20001012008607047000080B582B076
:103EF00001900091019840F2C021C2F200010968CE
:103F00001831FFF78BFE00980121FEF7E5FB02B0A8
:103F100080BD000080B584B00390029101920398A7
:103F200040680090009840F2C021C2F200010A6887
:103F3000D061009880680A68106208681830009A9A
:103F40009268506008681830009A90600398096879
:103F500088620399086801300860019820B1FFE782
:103F60004FF0FF300290FFE702980199FEF7B4FB93
:103F700004B080BD80B588B0079006910798059081
:103F8000012002900798002800F08780FFE705983D
:103F9000C06C0699884203D2FFE70698039003E0BD
:103FA0000598C06C0390FFE70598C06A03998842A2
:103FB00071D0FFE70598006D01286AD1FFE70598E9
:103FC000C06A049003980599C8620598C07E0006EF
:103FD000002806D4FFE70398C0F1380005998861EE
:103FE00000E0FFE705984069049901EB810240F287
:103FF000D821C2F2000101EB8201884247D1FFE7DC
:1040000005980430FFF758FB08B9FFE700E0FFE729
:104010000598C06A42F24871C2F2000109688842FC
:1040200008D9FFE70598C06A42F24871C2F2000160
:104030000860FFE70598C06A00EB800040F2D821D5
:10404000C2F2000101EB8000406801900198059ADE
:10405000906001988068059AD06005980430019AB4
:104060009268506005980430019A9060059AD06A71
:1040700000EB800001EB800050610598C06A00EB06
:10408000800251F82200013041F8220000E0FFE7F1
:1040900000E0FFE700E0FFE700E0FFE708B080BDD9
:1040A00080B58AB0002004900790069007A806A962
:1040B00005AAFFF725FB049B059A0699DDF81CC0AD
:1040C0006846C0F808C04160036042F67D40C0F217
:1040D000000046F24801C0F2000100F0B7FD0146C1
:1040E00042F6B430C2F200000160006818B1FFE788
:1040F0000120089002E000200890FFE708980128BE
:1041000004D1FFE701F068FA089000E0FFE70898A3
:1041100001281FD1FFE74FF0800080F31188BFF323
:104120006F8FBFF34F8F099042F6BC31C2F200018E
:104130004FF0FF30086042F6E431C2F20001012086
:10414000086042F62041C2F200010020086000F041
:1041500093F800E0FFE746F25800C0F20000006864
:104160000AB080BD42F24071C2F20001086801301D
:104170000860704780B584B042F24070C2F200001F
:10418000006838B1FFE742F62C41C2F2000101207D
:1041900008606FE042F62C41C2F200010020086086
:1041A00040F2C020C2F200000068006B03904FF0A4
:1041B000A530029003980068B0F1A53F12D1FFE747
:1041C00003984068B0F1A53F0CD1FFE703988068E1
:1041D000B0F1A53F06D1FFE70398C068B0F1A53F55
:1041E0000AD0FFE740F2C021C2F200010868096866
:1041F0003431FFF7B1FAFFE742F24870C2F2000033
:1042000000680190FFE7019800EB800140F2D820A0
:10421000C2F2000050F8210020B9FFE701980138F0
:104220000190F0E7019800EB800140F2D820C2F243
:10423000000000EB810000900099486840684860E9
:10424000009948680831884205D1FFE7009948681D
:1042500040684860FFE700984068C06840F2C021AD
:10426000C2F200010860019842F24871C2F20001F6
:104270000860FFE704B080BD80B582B04EF62051E3
:10428000CEF20001086840F47F000860086840F042
:104290007F400860FFF76AFD40F20401C2F20001AE
:1042A000002001900860FFF7EFFC4EF63471CEF26B
:1042B0000001086840F040400860FEF7C5FEFFF7C7
:1042C00059FFFFF773F8019802B080BD80B582B046
:1042D0004FF0800080F31188BFF36F8FBFF34F8FD3
:1042E000009000F075FD40B1FFE74EF60451CEF2AC
:1042F00000014FF080500860FFE700200190019816
:1043000080F3118802B080BD80B584B08DF80F00B5
:1043100001200190002100919DF80F2000F022F86B
:1043200002900298FEF7C6FC029804B080BD00001F
:1043300080B586B08DF8170004910120029000220C
:1043400001929DF81710049BEC46CCF80010114622
:1043500000F04CF803900398FEF7ACFC039806B00D
:1043600080BD000080B588B0079006918DF81720B9
:10437000002004900798A0B3FFE707994FF0FF30A3
:10438000B0FBF1F0069988422BD3FFE70798069916
:10439000484310F1510F24D8FFE707980699484386
:1043A000039003985030FFF77DF804900498B0B163
:1043B000FFE7049802900298503002900499002080
:1043C00081F8460007980699029A9DF81730DDF8A3
:1043D00010C0EE46CEF800C0FEF782FC00E0FFE71A
:1043E00000E0FFE7049808B080BD000080B588B009
:1043F00084460A98CDF81CC00691059204938DF866
:104400000F0000200290079810B3FFE70498F8B15E
:10441000FFE7059818B1FFE70698C8B1FFE70598D0
:1044200018B9FFE7069898B9FFE704980290029937
:10443000012081F8460007980699059A9DF80F30EB
:10444000DDF808C0EE46CEF800C0FEF749FC00E0FB
:10445000FFE7029808B080BD80B584B00390029158
:1044600001200190039800900098002856D0FFE7A3
:104470000098C06B002851D0FFE70098C26B016C18
:104480004FF0FF30B0FBF2F0884247D3FFE7FFF771
:1044900005FC00990B68C86B0A6C00FB0230886051
:1044A00000990020886300990868486000990B68AB
:1044B000C86B0A6C013800FB0230C8600099FF200D
:1044C00081F84400009981F845000298D0B9FFE7CF
:1044D00000980069A0B1FFE70098103000F0B8FE26
:1044E00060B1FFE74EF60451CEF200014FF080506C
:1044F0000860BFF34F8FBFF36F8F00E0FFE700E06E
:10450000FFE708E000981030FFF768FB00982430C0
:10451000FFF764FBFFE7FFF7D9FB02E00020019003
:10452000FFE7019804B080BD80B58AB0089007917C
:10453000069205930020049008980090FFE7FFF78B
:10454000ADFB0098806B0099C96B884204D3FFE7EC
:104550000598022834D1FFE700980799059AFEF7DD
:104560007DFA03900098406AA0B1FFE700982430DC
:1045700000F06EFE60B1FFE74EF60451CEF200018E
:104580004FF080500860BFF34F8FBFF36F8F00E094
:10459000FFE710E0039860B1FFE74EF60451CEF25A
:1045A00000014FF080500860BFF34F8FBFF36F8F53
:1045B00000E0FFE7FFE7FFF789FB0120099065E0D6
:1045C000069828B9FFE7FFF781FB002009905DE01E
:1045D000049830B9FFE701A8FFF76EFC01200490B2
:1045E00000E0FFE7FFE7FFE7FFF770FBFFF7BAFD2B
:1045F000FFF754FB009890F94400013028B9FFE719
:104600000099002081F84400FFE7009890F94500E8
:10461000013028B9FFE70099002081F84500FFE745
:10462000FFF754FB01A806A900F05AFA28BBFFE7E0
:104630000098FEF7F1FCC8B1FFE70098103006992A
:10464000FFF754FC0098FEF7D5FE00F0BFFE60B9FE
:10465000FFE74EF60451CEF200014FF080500860A3
:10466000BFF34F8FBFF36F8FFFE705E00098FEF7B2
:10467000C1FE00F0ABFEFFE707E00098FEF7BAFED0
:1046800000F0A4FE0020099000E058E709980AB065
:1046900080BD000080B58AB0089007910692002086
:1046A000059008980190FFE7FFF7F8FA0198806BF2
:1046B0000090009840B3FFE70198C068029001980D
:1046C0000799FEF7A9F902980199C8600198406A14
:1046D000A0B1FFE70198243000F0BAFD60B1FFE718
:1046E0004EF60451CEF200014FF080500860BFF347
:1046F0004F8FBFF36F8F00E0FFE700E0FFE7FFF7AA
:10470000E5FA012009906DE0069828B9FFE7FFF768
:10471000DDFA0020099065E0059830B9FFE703A8AD
:10472000FFF7CAFB0120059000E0FFE7FFE7FFE786
:10473000FFF7CCFAFFF716FDFFF7B0FA019890F9F2
:104740004400013028B9FFE70199002081F84400B6
:10475000FFE7019890F94500013028B9FFE701997A
:10476000002081F84500FFE7FFF7B0FA03A806A98B
:1047700000F0B6F930BBFFE70198FEF739FCD0B185
:10478000FFE7019824300699FFF7B0FB0198FEF788
:1047900031FE00F01BFE60B9FFE74EF60451CEF289
:1047A00000014FF080500860BFF34F8FBFF36F8F51
:1047B00000E0FFE705E00198FEF71CFE00F006FEB2
:1047C000FFE70EE00198FEF715FE00F0FFFD0198EF
:1047D000FEF70EFC18B1FFE70020099002E0FFE7AA
:1047E000FFE761E709980AB080BD000080B58AB094
:1047F0000890079106920020059008980290FFE724
:10480000FFF74CFA0298806B0190019830B3FFE7F4
:1048100002980799FEF700F9019801380299886318
:1048200002980069A0B1FFE70298103000F010FD77
:1048300060B1FFE74EF60451CEF200014FF0805018
:104840000860BFF34F8FBFF36F8F00E0FFE700E01A
:10485000FFE7FFF73BFA012009906DE0069828B9C1
:10486000FFE7FFF733FA0020099065E0059830B9BB
:10487000FFE703A8FFF720FB0120059000E0FFE71A
:10488000FFE7FFE7FFF722FAFFF76CFCFFF706FAF6
:10489000029890F94400013028B9FFE702990020FE
:1048A00081F84400FFE7029890F94500013028B9EB
:1048B000FFE70299002081F84500FFE7FFF706FABD
:1048C00003A806A900F00CF930BBFFE70298FEF739
:1048D0008FFBD0B1FFE7029824300699FFF706FB63
:1048E0000298FEF787FD00F071FD60B9FFE74EF614
:1048F0000451CEF200014FF080500860BFF34F8F9B
:10490000BFF36F8F00E0FFE705E00298FEF772FD4E
:1049100000F05CFDFFE70EE00298FEF76BFD00F093
:1049200055FD0298FEF764FB18B1FFE700200990DF
:1049300002E0FFE7FFE763E709980AB080BD0000E7
:1049400080B58AB0089007910020069008990391DD
:104950000290FFE7FFF7A2F90398806B019001989E
:1049600060B3FFE7019801380399886303980068F2
:1049700028B9FFE7FEF75AFE0399886000E0FFE7D9
:1049800003980069A0B1FFE70398103000F060FCC5
:1049900060B1FFE74EF60451CEF200014FF08050B7
:1049A0000860BFF34F8FBFF36F8F00E0FFE700E0B9
:1049B000FFE7FFF78BF9012009908DE0079828B9F0
:1049C000FFE7FFF783F90020099085E0069830B9EA
:1049D000FFE704A8FFF770FA0120069000E0FFE768
:1049E000FFE7FFE7FFF772F9FFF7BCFBFFF756F9A8
:1049F000039890F94400013028B9FFE7039900209B
:104A000081F84400FFE7039890F94500013028B988
:104A1000FFE70399002081F84500FFE7FFF756F90B
:104A200004A807A900F05CF8A8BBFFE70398FEF70D
:104A3000DFFA48B3FFE70398006850B9FFE7FFF7D4
:104A40002DF90398806800F05BFB0290FFF73EF9B8
:104A500000E0FFE7039824300799FFF747FA03982F
:104A6000FEF7C8FC00F0B2FC60B9FFE74EF6045157
:104A7000CEF200014FF080500860BFF34F8FBFF3BC
:104A80006F8F00E0FFE705E00398FEF7B3FC00F04E
:104A90009DFCFFE71FE00398FEF7ACFC00F096FCDE
:104AA0000398FEF7A5FAA0B1FFE7029870B1FFE7FF
:104AB000FFF7F4F80398FEF755F800900398806824
:104AC0000099FFF757FAFFF701F9FFE70020099077
:104AD00002E0FFE7FFE73DE709980AB080BD00006C
:104AE00080B586B005900491FFF7D8F842F62040D3
:104AF000C2F2000000680290029805994968401AC5
:104B0000019040F2C020C2F20000006890F85A0004
:104B100058B1FFE740F2C020C2F200000168002057
:104B200081F85A000120039037E0049800680130B2
:104B300018B9FFE7002003902EE042F6C030C2F221
:104B4000000000680599096888420CD0FFE70298C8
:104B500005994968884206D3FFE70120039004992C
:104B60000020086017E001980499096888420BD278
:104B7000FFE7019A04990868801A08600598FFF712
:104B80009BF90020039005E00499002008600120B3
:104B90000390FFE7FFE7FFE7FFE7FFF797F80398CA
:104BA00006B080BD70B58CB0DDF844C0DDF840C003
:104BB0000B900A91ADF826200893BDF826008000DE
:104BC000FEF770FC05900598A0B1FFE75C20FEF7AA
:104BD00069FC0790079840B1FFE707985C21FBF755
:104BE000DCFC05980799086303E00598FFF782F855
:104BF000FFE702E000200790FFE70798F0B1FFE72A
:104C00000798002680F859600B980A99BDF826206D
:104C1000089BDDF840C0119C079DEE46CEF80C6065
:104C2000CEF80850CEF80440CEF800C0FEF77CF86D
:104C30000798FDF7D3FD0120069003E04FF0FF3009
:104C40000690FFE706980CB070BD0000B0B58AB0C2
:104C5000DDF840C0DDF83CC0DDF838C009900891AF
:104C600007920693109840B3FFE70F9828B3FFE729
:104C70001098059005985C21FBF78FFC0F9805991B
:104C800008630599022081F8590009980899079A44
:104C9000069BDDF838C0059CEE460025CEF80C508A
:104CA000CEF8084004ACCEF80440CEF800C0FEF7C1
:104CB0003BF80598FDF792FD02E000200490FFE725
:104CC00004980AB0B0BD000080B586B0059004918C
:104CD00000200190FFF746FA42F62040C2F20000A1
:104CE00000680090059800680499084403900098B3
:104CF00005990968884210D2FFE703980599096869
:104D0000884208D2FFE703980099884203D9FFE759
:104D10000120019000E0FFE70FE003980599096882
:104D2000884205D3FFE703980099884203D9FFE73B
:104D30000120019000E0FFE7FFE703980599086074
:104D4000019838B1FFE703980099401A0021FDF758
:104D5000C3FC00E0FFE700F039FB0290029860B965
:104D6000FFE74EF60451CEF200014FF0805008608C
:104D7000BFF34F8FBFF36F8F00E0FFE7019806B0DE
:104D800080BD000081B042F6E430C2F2000000684D
:104D900018B9FFE7012000900DE042F24070C2F226
:104DA0000000006818B9FFE70220009002E0002030
:104DB0000090FFE7FFE7009801B0704781B042F62E
:104DC0002040C2F2000000680090009801B07047D7
:104DD00080B588B00020059042F24070C2F2000019
:104DE0000068002840F00C81FFE742F62041C2F243
:104DF0000001086801300490049808600498C0B964
:104E0000FFE740F2C822C2F200021068039040F2AD
:104E1000D021C2F20001086810600398086042F6D1
:104E2000C031C2F20001086801300860FEF754FA90
:104E300000E0FFE7049842F6BC31C2F200010968C5
:104E40008842C0F0BC80FFE7FFE740F2C820C2F212
:104E500000000068006840B9FFE742F6BC31C2F2CA
:104E600000014FF0FF300860A8E040F2C820C2F215
:104E700000000068C068C068079007984068069006
:104E800004980699884207D2FFE7069842F6BC319B
:104E9000C2F20001086091E0FFE7079840690290C4
:104EA00007988168C068886007998868C968486001
:104EB0000298406807990431884205D1FFE70798B6
:104EC000C06802994860FFE707990020486102998D
:104ED0000868013808600798806AF8B1FFE707980A
:104EE000806A01900798C169006A88600799C8695B
:104EF000096A48600198406807991831884205D1CD
:104F0000FFE70798006A01994860FFE707990020CA
:104F10008862019908680138086000E0FFE7079897
:104F2000C06A42F24871C2F200010968884208D999
:104F3000FFE70798C06A42F24871C2F200010860B8
:104F4000FFE70798C06A00EB800040F2D821C2F268
:104F5000000101EB8000406800900098079A906083
:104F600000988068079AD06007980430009A926889
:104F7000506007980430009A9060079AD06A00EB5E
:104F8000800001EB800050610798C06A00EB80024E
:104F900051F82200013041F822000798C06A40F21F
:104FA000C021C2F200010968C96A884203D9FFE73B
:104FB0000120059000E0FFE7FFE746E7FFE740F24A
:104FC000C020C2F200000068C06A00EB800140F21D
:104FD000D820C2F2000050F82100022803D3FFE7D6
:104FE0000120059000E0FFE742F62C40C2F20000ED
:104FF000006818B1FFE70120059000E0FFE707E037
:1050000042F6CC31C2F20001086801300860FFE7C7
:10501000059808B080BD000080B584B00390039867
:105020000290002001900398002864D0FFE70299C5
:10503000086D013808650299C86AC96C884258D061
:10504000FFE70298006D002851D1FFE70298043075
:10505000FEF732FB08B9FFE700E0FFE70299C86CF2
:10506000C8620299C86AC0F1380088610298C06AB3
:1050700042F24871C2F200010968884208D9FFE78C
:105080000298C06A42F24871C2F200010860FFE76C
:105090000298C06A00EB800040F2D821C2F2000101
:1050A00001EB8000406800900098029A90600098A0
:1050B0008068029AD06002980430009A926850602A
:1050C00002980430009A9060029AD06A00EB800047
:1050D00001EB800050610298C06A00EB800251F839
:1050E0002200013041F822000120019000E0FFE79A
:1050F00000E0FFE700E0FFE7019804B080BD00009A
:1051000080B584B00390039802900020019003982A
:10511000002800F09880FFE70298C06A40F2C021A2
:10512000C2F200010968C96A88427BD2FFE702988F
:10513000C07E000600280BD4FFE740F2C020C2F278
:1051400000000068C06AC0F138000299886100E080
:10515000FFE702994869C96A01EB810240F2D82150
:10516000C2F2000101EB820188424FD1FFE70298B1
:105170000430FEF7A1FA08B9FFE700E0FFE740F2CC
:10518000C020C2F200000068C06A0299C86202989A
:10519000C06A42F24871C2F200010968884208D927
:1051A000FFE70298C06A42F24871C2F2000108604B
:1051B000FFE70298C06A00EB800040F2D821C2F2FB
:1051C000000101EB8000406800900098029A906016
:1051D00000988068029AD06002980430009A926821
:1051E000506002980430009A9060029AD06A00EBF6
:1051F000800001EB800050610298C06A00EB8002E1
:1052000051F82200013041F8220008E040F2C020AD
:10521000C2F200000068C06A0299C862FFE701207C
:1052200001900FE00298C06C40F2C021C2F2000170
:105230000968C96A884203D2FFE70120019000E0B3
:10524000FFE7FFE700E0FFE7019804B080BD000042
:1052500087B006900698C068C06805900598806A77
:1052600003900598C169006A88600599C869096A50
:1052700048600398406805991831884205D1FFE7D6
:105280000598006A03994860FFE705990020886245
:10529000039908680138086042F24070C2F20000C9
:1052A000006800285DD1FFE70598406902900598E5
:1052B0008168C068886005998868C96848600298F4
:1052C000406805990431884205D1FFE70598C06818
:1052D00002994860FFE70599002048610299086833
:1052E000013808600598C06A42F24871C2F20001B4
:1052F0000968884208D9FFE70598C06A42F24871F8
:10530000C2F200010860FFE70598C06A00EB800068
:1053100040F2D821C2F2000101EB80004068019008
:105320000198059A906001988068059AD060059868
:105330000430019A9268506005980430019A906098
:10534000059AD06A00EB800001EB8000506105985F
:10535000C06A00EB800251F82200013041F82200BF
:105360001BE042F6D031C2F200014868009000987C
:10537000059AD06100988068059A106205981830E7
:10538000009A9268506005981830009A90600598CD
:105390008162086801300860FFE70598C06A40F242
:1053A000C021C2F200010968C96A884208D9FFE732
:1053B0000120049042F62C41C2F20001086002E094
:1053C00000200490FFE7049807B0704780B586B0CE
:1053D000002005900490FEF761FC42F24070C2F29A
:1053E00000000168013901600068002840F0ED808C
:1053F000FFE742F23870C2F200000068002800F0B7
:10540000E380FFE7FFE742F6D030C2F20000006819
:10541000002800F09680FFE742F6D030C2F200008C
:10542000C068C06805900598806A03900598C169B6
:10543000006A88600599C869096A486003984068ED
:1054400005991831884205D1FFE70598006A03994C
:105450004860FFE7059900208862039908680138D1
:10546000086005984069029005988168C068886066
:1054700005998868C96848600298406805990431B0
:10548000884205D1FFE70598C06802994860FFE7A8
:10549000059900204861029908680138086005985C
:1054A000C06A42F24871C2F200010968884208D914
:1054B000FFE70598C06A42F24871C2F20001086035
:1054C000FFE70598C06A00EB800040F2D821C2F2E5
:1054D000000101EB8000406801900198059A9060FE
:1054E00001988068059AD06005980430019A926806
:1054F000506005980430019A9060059AD06A00EBDC
:10550000800001EB800050610598C06A00EB8002CA
:1055100051F82200013041F822000598C06A40F29B
:10552000C021C2F200010968C96A884207D3FFE7B7
:1055300042F62C41C2F200010120086000E0FFE7C2
:1055400061E7059818B1FFE7FDF7C6FEFFE742F6F1
:10555000CC30C2F20000006800900098E0B1FFE794
:10556000FFE7FFF735FC38B1FFE742F62C41C2F206
:1055700000010120086000E0FFE70098013800907A
:10558000FFE700980028ECD1FFE742F6CC31C2F2E9
:1055900000010020086000E0FFE742F62C40C2F264
:1055A0000000006870B1FFE7012004904EF604513E
:1055B000CEF200014FF080500860BFF34F8FBFF371
:1055C0006F8F00E0FFE7FFE700E0FFE7FEF77EFBFD
:1055D000049806B080BD000080B588B00020079018
:1055E000FDF7ACF942F62440C2F20000006858B35F
:1055F000FFE7002003900690059006A805A904AADD
:10560000FEF794F8039B049A0598DDF818C06946E4
:10561000C1F808C048602820086043F2D530C0F2C5
:10562000000046F24D01C0F20001FFF70FFB0146FA
:1056300042F62840C2F200000160006818B1FFE79E
:1056400001200790FFE700E0FFE7079808B080BD62
:105650005FEA400C08BF91F0000F4FEA8C234FEA3D
:10566000C12243EA51514FEA1C5018BF00F5F040E7
:105670004FEA300018BF41F000415FEA6C5C00F077
:105680002980BCF1FF3F08BF40F080407047130CF9
:1056900006BF12044FF0100C4FF0000C130E04BFA5
:1056A00012020CF1080C130F04BF12010CF1040CD0
:1056B000930F04BF92000CF1020CD30F04BF5200F1
:1056C0000CF1010C11464FF00002A0F11F00A0EBFD
:1056D0000C00704711F0004F08BF704731F00041D7
:1056E0003FF4D5AF0B0C06BF09044FF0100C4FF080
:1056F000000C0B0E04BF09020CF1080C0B0F04BFC9
:1057000009010CF1040C8B0F04BF89000CF1020C91
:10571000CB0F04BF49000CF1010CCCF1200322FA9D
:1057200003F341EA030102FA0CF2A0EB0C0000F1D2
:105730000100704723F07F4720F07F4C80EA030090
:1057400000F00040ACEB070303F57C5303F1FF03CB
:105750002DE9804909B44FEA144324EA03484FEA8B
:10576000154B25EA0B4E0FF2042606EB13273E7865
:1057700003FB0667C7F5000707FB06F64FEAD646A8
:1057800006F102064FEA543707FB066CCCF1005CC9
:105790004FEA1C472CEA074C0CFB06F507FB06F406
:1057A00004EB15464FEA961649085FEA320234BF09
:1057B00000204FF000404FEAD13706FB07FC4FEACC
:1057C0001C4C0CFB0BF7D21B03FB0CF761EB070126
:1057D0000CFB0EF7B0EB074072EB17420CFB08F71F
:1057E00034BFA2EB0742B2EB074261EB17414FEA2D
:1057F0000C444FEA910706FB07FC4FEA1C4C0CFBDC
:105800000BF7B0EBC74072EB573203FB0CF734BF1A
:10581000A2EBC742B2EBC74261EB57310CFB0EF76C
:10582000B0EBC70072EB57720CFB08F734BFA2EB6A
:10583000C702B2EBC70261EB57714FEA816141EADF
:1058400092114FEA826242EA90124FEA806004EBC2
:10585000CC04039F4FEAD13706FB07FC4FEA1C4CF0
:105860000CFB0BF7D21B03FB0CF761EB07010CFBE6
:105870000EF7B0EB074072EB17420CFB08F734BF92
:10588000A2EB0742B2EB074261EB17414FEA8C559E
:1058900004EB9C244FEA910706FB07FC4FEA1C4CE3
:1058A0000CFB0BF7B0EBC74072EB573203FB0CF766
:1058B00034BFA2EBC742B2EBC74261EB57310CFBDE
:1058C0000EF7B0EBC70072EB57720CFB08F734BF52
:1058D000A2EBC702B2EBC70261EB57714FEA8161DD
:1058E00041EA92114FEA826242EA90124FEA8060E6
:1058F00015EB4C2544F100044FEAD13706FB07FCB9
:105900004FEA1C4C0CFB0BF7D21B03FB0CF761EBB3
:1059100007010CFB0EF7B0EB074072EB17420CFBD4
:1059200008F734BFA2EB0742B2EB074261EB174125
:105930004FEA813141EA92414FEA823242EA904293
:105940004FEA80304FEA0C7615EB1C1544F1000449
:1059500048EA03434EEA0B484FF0000EB2EB080C46
:1059600071EB030724BF624639464EEB0E0E4FF033
:10597000000B0018524149414BEB0B0BB2EB080CEA
:1059800071EB03077BF1000B24BF624639464EEBF7
:105990000E0E4FF0000B0018524149414BEB0B0B20
:1059A000B2EB080C71EB03077BF1000B24BF6246DE
:1059B00039464EEB0E0E51EA020718BF46F00106BB
:1059C00016EB0E7655F1000254F1000103D5BDE847
:1059D0008901BDE80088BDE88901BDE80048B61925
:1059E000524141EB0101A3F10103704780807F7EAA
:1059F0007D7C7B7A79787776767574737271717045
:105A00006F6E6E6D6C6C6B6A6A69686867666665F6
:105A10006464636362616160605F5F5E5E5D5D5C84
:105A20005C5B5B5A5A5959585857575656555555F5
:105A30005454535352525251515050504F4F4F4E55
:105A40004E4D4D4D4C4C4C4B4B4B4A4A4A494949A3
:105A500048484847474747464646454545444444E5
:105A60004443434343424242424141419C46002B0E
:105A700030D477002BD04FEA37071CB503B44FF072
:105A800010004FF01001BAF1000F06D0BCF1000F6A
:105A9000DCBF40F0080040F008014FF000000FBCF0
:105AA000BDE810400BF1010BBBF1010F08BF5FEA2D
:105AB000170722BF12F1010211F101014FF000415D
:105AC00043F1000300F0004043EA00007047F9D3BF
:105AD0005708D0E746EA06464FEA164613F1400F4C
