:020000040000FA
:10000000E8280020C1030000C9030000CB03000062
:10001000CD030000CF030000D1030000000000006A
:10002000000000000000000000000000D11C0000E3
:10003000D503000000000000611C0000F51C00005A
:10004000DB030000DD030000DF030000E10300002C
:10005000E3030000E5030000E7030000E9030000FC
:10006000EB030000ED030000EF030000F1030000CC
:10007000F3030000F5030000F7030000F90300009C
:10008000FB030000FD030000FF030000010400006B
:100090000304000005040000070400000904000038
:1000A0000B0400000D0400000F0400001104000008
:1000B00013040000150400001704000019040000D8
:1000C0001B0400001D0400001F04000021040000A8
:1000D0002304000025040000270400002904000078
:1000E0002B0400002D040000000000002F0400007D
:1000F0003104000033040000350400003704000020
:10010000390400003B0400003D0400003F040000EF
:100110000000000000000000410400004304000053
:100120004504000047040000490400004B0400009F
:100130004D0400004F04000051040000530400006F
:1001400000000000000000000000000000000000AF
:100150005504000057040000590400005B0400002F
:10016000000000000000000000000000000000008F
:10017000000000000000000000000000000000007F
:10018000000000000000000000000000000000006F
:10019000000000000000000000000000000000005F
:1001A000000000000000000000000000000000004F
:1001B0005D0400005F0400006104000063040000AF
:1001C0006504000067040000690400006B0400007F
:1001D0006D0400006F04000071040000730400004F
:1001E000750400007704000079040000000000009E
:1001F000000000007B0400007D0400007F0400007C
:1002000081040000830400000000000000000000E2
:100210008504000087040000890400008B040000AE
:100220008D0400008F04000091040000930400007E
:100230009504000097040000990400009B0400004E
:100240009D0400009F040000A1040000A30400001E
:10025000A5040000A7040000A9040000AB040000EE
:10026000AD040000AF040000B104000000F002F88B
:1002700000F092F80AA090E8000C82448344AAF1AE
:100280000107DA4501D100F087F8AFF2090EBAE8AC
:100290000F0013F0010F18BFFB1A43F001031847BA
:1002A000FC4100001C420000103A24BF78C878C10D
:1002B000FAD8520724BF30C830C144BF04680C606C
:1002C000704700000023002400250026103A28BFB4
:1002D00078C1FBD8520728BF30C148BF0B607047B8
:1002E0006E2900F0B582702900F0F983662904F0C8
:1002F0004880652904F04580672904F0428061291F
:1003000004F0418003681B0A28BF41F0800169297D
:1003100000F06282642900F05F82752900F05C823F
:100320006F2900F08783782900F0C583E92900F060
:100330002183E42900F01E83F52900F01B83EF29B7
:1003400000F08483F82900F0C4830368DB0928BF28
:1003500041F08001632901F0F780732901F0FC80EE
:10036000E32901F00781F32901F00C810020704797
:100370001FB501F023FA01F05BF904000020002111
:1003800003F0DCFF401C60600020002103F0C0FF90
:10039000E0601FBD10B510BD01F01CF9114603B49B
:1003A00001F0E6FD03BCFFF7E3FF01F01FFE01F0E3
:1003B000F7F903B4FFF7EEFF03BC01F0DBFD00002B
:1003C0003F4880473F480047FEE7FEE7FEE7FEE77D
:1003D000FEE7FEE7FEE7FEE7FEE7FEE7FEE7FEE7F5
:1003E000FEE7FEE7FEE7FEE7FEE7FEE7FEE7FEE7E5
:1003F000FEE7FEE7FEE7FEE7FEE7FEE7FEE7FEE7D5
:10040000FEE7FEE7FEE7FEE7FEE7FEE7FEE7FEE7C4
:10041000FEE7FEE7FEE7FEE7FEE7FEE7FEE7FEE7B4
:10042000FEE7FEE7FEE7FEE7FEE7FEE7FEE7FEE7A4
:10043000FEE7FEE7FEE7FEE7FEE7FEE7FEE7FEE794
:10044000FEE7FEE7FEE7FEE7FEE7FEE7FEE7FEE784
:10045000FEE7FEE7FEE7FEE7FEE7FEE7FEE7FEE774
:10046000FEE7FEE7FEE7FEE7FEE7FEE7FEE7FEE764
:10047000FEE7FEE7FEE7FEE7FEE7FEE7FEE7FEE754
:10048000FEE7FEE7FEE7FEE7FEE7FEE7FEE7FEE744
:10049000FEE7FEE7FEE7FEE7FEE7FEE7FEE7FEE734
:1004A000FEE7FEE7FEE7FEE7FEE7FEE7FEE7FEE724
:1004B000FEE7000004480549034A054B7047000069
:1004C000151D00006D020000E8260020E82800202D
:1004D000E826002053EA020C00F069802DE9F04B79
:1004E0004FF00006002B1FBFB3FA83F503FA05F4A3
:1004F00024FA05F65E4012BF1643B2FA82F502FAFC
:1005000005F4C5F120051EBF22FA05FC44EA0C04DF
:10051000203556EA044C4FEA144418BF641C4FF0CF
:1005200000084FF00009904271EB030C39D3002909
:1005300019BFB1FA81F701FA07F6B0FA80F700FAAD
:1005400007F6C7F120071EBF20FA07FC46EA0C0693
:100550002037B6FBF4FCA7EB0507103F07F01F0B95
:10056000CBF120062CFA06F60CFA0BFB44BFB3467F
:100570000026202FA4BF5E464FF0000B5BEA060C5E
:1005800008BF4FF0010B19EB0B0948EB0608ABFB5A
:10059000027C06FB02CC0BFB03CCC01B71EB0C01F5
:1005A000C1E70B46024641464846BDE8F08B13B50D
:1005B000084318BF4FF0FF300146AFF30080BDE89D
:1005C0001C4070470FB41CB50C0007AA009007D060
:1005D0004142A14202D32044401E01E04FF0FF30CF
:1005E000074B7B4469460190069800F04AF90021C8
:1005F000002C01D0009A11701CBC5DF814FB0000A7
:10060000C3020000032A40F2308010F0030C00F017
:10061000158011F8013BBCF1020F624498BF11F83C
:1006200001CB00F8013B38BF11F8013BA2F10402F5
:1006300098BF00F801CB38BF00F8013B11F003036D
:1006400000F01C83083AC0F0088051F8043B083AD7
:1006500051F804CBA0E80810F5E7121D5CBF51F873
:10066000043B40F8043BAFF30080D20724BF11F8ED
:10067000013B11F801CB48BF11F8012B24BF00F852
:10068000013B00F801CB48BF00F8012B7047000088
:1006900030B44FF0013C50F8042B51F8043BCCFA35
:1006A00052F4D51A20D1FCB950F8042B51F8043B70
:1006B000CCFA52F4D51A17D1B4B950F8042B51F82A
:1006C000043BCCFA52F4D51A0ED16CB950F8042B75
:1006D00051F8043BCCFA52F4D51A05D1002CDAD0EB
:1006E00030BC4FF00000704729BAB1FA81F111F027
:1006F0001801D1F120008440F2D1CA40CB4012F061
:10070000FF0213F0FF0330BCD01A704770477047E8
:10071000704770B5044685690068C10601D530266A
:1007200000E02026C00707D070BDD4E90121304683
:100730009047206A401C20626D1EF6D570BD70B5D2
:10074000044685690078C00707D170BDD4E901214E
:1007500020209047206A401C20626D1EF6D570BD97
:1007600009684A0501D540B27047C905FCD500B2F9
:10077000704709684A0501D5C0B27047C905FCD564
:1007800080B2704770B50C460546012A05D028781E
:10079000800600D5EA69002302E0012305E05B1C26
:1007A000934202D2E05C0028F9D1A869E618C01A89
:1007B000A861286A184428622846FFF7AAFF04E0C7
:1007C000D5E9012114F8010B9047B442F8D328462B
:1007D000FFF7B5FF70BD00002DE9F041064600248B
:1007E00010687529314616A510D0FFF7B9FF00280B
:1007F00002DA404213A507E031688A0701D512A545
:1008000002E0490704D511A5012401E0FFF7B1FF7B
:1008100000210A2206F1240709E0B0FBF2FCB0FB3C
:10082000F2F302FB1C00303078541846491C0028B3
:10083000F3D123462A463046BDE8F04100F095BA90
:10084000000000002D0000002B0000002000000030
:1008500011680268006A530501D508700AE0D305E3
:1008600001D5088006E0130603D5C217C1E90002CE
:1008700000E008600120704701694A1C02610878A5
:10088000704700B58FB0CDE90131002105910549D0
:100890007944CDE903101146684600F02BF90FB0FA
:1008A00000BD0000E5FFFFFFD1E900239A4202D21C
:1008B000531C0B60107070472DE9FF5F15468A4688
:1008C0000446DFF8AC80F8440027D8E900103E4623
:1008D000CDE9001010E03AF816106A4602A800F0C0
:1008E00055FE411C07D02178890603D5E2693918E5
:1008F00091420DD80744761C2078800602D5E06925
:10090000B84205DDAE42E6DB3AF816000028E2D137
:10091000A069C01BA0612046FFF7FBFED8E90010CC
:10092000CDE90010002017E03AF818106A4602A836
:1009300000F02CFEB0F1FF3F81460BD000250DF1F9
:10094000080B05E0D4E901211BF8050090476D1C58
:100950004D45F7D308F10100B0428046E4DB206A40
:10096000384420622046FFF7EAFEBDE8FF9F000002
:10097000C23A00002DE9F0418046D21D22F0070264
:100980000025D2E90002F52915A614D0011E72F146
:10099000000106DA0023D0EB030063EB020211A68C
:1009A00008E0D8F800108B0701D50FA602E0490730
:1009B00001D50EA601251146002408F1240704E004
:1009C00000F08EF930323A55641C50EA0102F7D13A
:1009D0002B46324621464046BDE8F04100F0C5B9FD
:1009E000000000002D0000002B000000200000008F
:1009F00030B4002100F1240408E002F00705D20819
:100A0000303542EA4372DB086554491C52EA03055B
:100A1000F3D10468002310A2250708D504F02004B0
:100A20000C4304D0C46901230CA2641EC46130BC11
:100A300000F09BB910B5044621461068FFF799FEF7
:100A400002462046BDE810400023D1E7D21D22F027
:100A50000701D1E90023CBE70000000030000000CF
:100A6000F0B40D460188090502D5214C7C4402E012
:100A70001F4C7C440E34002100F1240608E002F0F3
:100A80000F071209E75D42EA03721B097754491CFC
:100A900052EA0307F3D102780023120704D5702D20
:100AA00006D009B1022311342246F0BC00F05DB932
:100AB00001231034F8E770B504460D46214610684E
:100AC000FFF757FE024629462046BDE87040002346
:100AD000C6E7D21D22F00703D3E90023C0E703686D
:100AE000126843F0200303600823C3610023B7E7C3
:100AF000243900002DE9F05F894604464FF0000AD2
:100B0000DFF874B1FB44C0F820A02046E1688847B4
:100B1000002874D0252806D0D4E901219047206A06
:100B2000401C2062F1E700265F462046E1688847C6
:100B30002028054607DB312D05D2781910F8200C46
:100B400008B10643F1E7B00701D526F00406C4F862
:100B50001CA00027C4F818A02A2D09D0284603F0AD
:100B6000CFFB38B304EB8708303DC8F8185019E0C4
:100B700059F8041B204604EB87029161E16888471D
:100B8000012F054618D1E069002820DA26F020065A
:100B90001DE0D8F8180000EB800005EB400030386D
:100BA000C8F818002046E1688847054603F0A8FB0E
:100BB0000028EED1012F0AD02E2D08D12046E16861
:100BC00088477F1C0546022F46F02006C4DBA0693B
:100BD000002803DA404246F00106A061F00701D088
:100BE00026F010066C2D0BD0682D09D04C2D39D075
:100BF0006A2D35D0742D35D07A2D33D016E038E0FB
:100C0000E1682F4620468847B842054609D16C2F37
:100C100026D04FF48060E1680643204688470546A9
:100C200004E06C2F1AD04FF4807006430DB3A5F189
:100C30004100192802D8203546F400664A46294664
:100C4000204626604E46FFF74BFB80B101280BD0B3
:100C5000F61D26F0070000F1080956E74020E4E7FA
:100C60008020D8E70020D6E706F104094DE72846A2
:100C700052E7206ABDE8F09FB438000010B5203A72
:100C8000C0F00B80B1E81850A0E81850B1E8185037
:100C9000A0E81850203ABFF4F5AF5FEA027C24BF09
:100CA000B1E81850A0E8185044BF18C918C0BDE8F2
:100CB00010405FEA827C24BF51F8043B40F8043BBB
:100CC00008BF7047D20728BF31F8023B48BF11F870
:100CD000012B28BF20F8023B48BF00F8012B7047CA
:100CE00030B5B0F10A0271F100034FEA900E4EEAFE
:100CF000817EB0EB0E0061EB91014FEA101E4EEACF
:100D0000017E10EB0E0041EB11114FEA102E4EEA5E
:100D1000016E10EB0E0041EB11214FEA104E4EEA2E
:100D2000014E10EB0E0041EB1141401841F1000162
:100D30004FEAD00040EA41704FEAD1014FEA810406
:100D400044EA907410EB800544EB01046D1944EB08
:100D50000404521BA3414FF0000348BF0A3200D5E0
:100D600030BD401C41F1000130BD2DE9F0470D467A
:100D700099469246044600F124080168880604D585
:100D8000E06921F01001216000E00120A84201DDAE
:100D9000471B00E00027A1697A1902EB0900081A35
:100DA000A0612078C00602D42046FFF7B2FC0026DE
:100DB00008E0D4E901211AF806009047206A401C97
:100DC000761C20624E45F4DB2078C0060AD520460A
:100DD000FFF79FFC06E0D4E9012130209047206A0C
:100DE000401C2062381EA7F10107F4DC07E0D4E9BB
:100DF000012118F805009047206A401C2062281E37
:100E0000A5F10105F3DC2046FFF799FC20780006E8
:100E100002D50220BDE8F0870120FBE72DE9FF4F56
:100E20000C461E464FF0FF378BB0D2E90001DDF8CB
:100E300060800A908A46C1F30A5505B93D460021F3
:100E400008464FF00000BAF1000F00F4400005DA48
:100E500000EB80004FF4400101EA50004FEA905946
:100E6000B9F1010F00DDB9460A9850EA4A000ED0E8
:100E700044F61050A5F2FF3545432F14B8F1000F8A
:100E80001ED07542291E1EDDC9F100021CE0B8F11A
:100E9000010F4FF0000001D0302103E0F24305E0E4
:100EA0002154401CB042FBDB30460022002121547B
:100EB0000B99C1F80880C1E900200FB0BDE8F08FA0
:100EC000BD1B6D1CDEE74A4600DA694206A800F049
:100ED000F5FB06AB93E8070003AB83E80700504639
:100EE0000A9902F02CFE8DE80700A0F500501F388B
:100EF00000900398002D0ADD42F21F014A46084483
:100F0000002303A90390684603F096F809E0A0F5D2
:100F100000504A461F38002303A90390684603F097
:100F2000A0F88DE807000004000C03D04FF0FF305C
:100F3000410800E01046B8F1000F03D000220092F3
:100F400015461EE0751E05D4FFF7CAFE3032625505
:100F50006D1EF9D5B3460122084302D000227F1C42
:100F600004E02078302801D100227F1E002A099752
:100F700084D01DE0112D07DAFFF7B2FE3032625542
:100F80006D1C50EA0102F5D1084302D00098C8B1A7
:100F90000EE00021681E05E0235C625C635422546D
:100FA000401E491C8142F7DBAB46A81B401E09903E
:100FB000002004F80B000B98099AC0F80880C0E9DB
:100FC000002B7AE711264FF0000857E72DE9F04F84
:100FD00088460446D21D22F0070191B0D1E90001F4
:100FE000CDE90A0103F074F902460B98C00F01D055
:100FF0002D2007E02068810701D52B2002E0202169
:1010000001EAC000032A099001D0072A05DB034644
:101010004146204600F012FB0BE12078800601D506
:10102000E06900E00620B8F1650F814606D0B8F10E
:10103000660F18D0B8F1670F70D131E00020B9F118
:10104000110F009001DB112301E009F101030AAA4D
:1010500001A90CA8FFF7E2FEDDE90C70002609F1FA
:101060000105834647E001204B4600904FF00047C2
:101070000AAA01A90CA8FFF7D1FEDDE90DB00C9971
:101080005D46002610B909F101000D18B9EB050005
:1010900003D4C0F1FF3609F10105A5EB09002BE0EF
:1010A000B9F1010F01DA4FF001090020B9F1110F78
:1010B0000090484601DD112300E003460AAA01A979
:1010C0000CA8FFF7ABFEDDE90C704D460026834609
:1010D000207800070AD4AB4500DA5D4601A8012D4F
:1010E00004DD411911F8011C302907D04F4502DAFF
:1010F00017F1040F04DA012082460FE06D1EEEE7BF
:10110000002F02DCED1B3E4403E0781CA84200DD0A
:101110007D1CB81B00F1010A4FF000472078000742
:1011200003D4AA4501DB4FF0FF3A0021B7F1004F8D
:101130000DF143088DF8431024D002202B23002FFB
:1011400001DA7F422D230A21021EA0F1010000DCFA
:101150005FB197FBF1FC97FBF1F201FB1C7C17469A
:101160000CF1300C08F801CDEEE7A8F10100037096
:101170002188090501D5452100E06521A0F101087C
:1011800000F8011C09980FA9A1EB0807FF1D00B189
:101190000120411901EBEA70A1693844081A401E88
:1011A000A0612078C00602D42046FFF7B2FA099861
:1011B00028B1D4E901219047206A401C20622078A0
:1011C000C00622D52046FFF7A4FA1EE0002E04DB5D
:1011D000B34502DD01A8805D00E03020D4E90121A3
:1011E0009047206A401C2062761CAAF101005FEA49
:1011F000000A0AD100F01CFAC0680168405CD4E91A
:1012000001219047206A401C2062281EA5F101059B
:10121000DCDC07E0D4E9012118F8010B9047206AD3
:10122000401C2062381EA7F10107F3DC2046FFF7BF
:1012300086FA032011B041E62DE9F04F04460D4631
:10124000D21D22F0070089B0D0E900974846394600
:1012500003F03EF80246F80F01D02D2307E0206886
:10126000810701D52B2302E0202101EAC0038DF87C
:1012700020300BB1012000E00020032A824601D07B
:10128000072A04DB2946204600F0D8F93FE1207800
:10129000800601D40D2500E0E569C7F30A560D2D3F
:1012A00049DA00214FEA175B08464FF00000002F93
:1012B00000F4400007DA00EB80004FF4400100EB3F
:1012C000D07001EA60008115012901DD4FF0FF3186
:1012D00000224FEA850CBCF1180F06D31346ACF17F
:1012E00018004FF08052C24003E04FF4801323FAFD
:1012F0000CF30CF10C0CBCF1200F04D3ACF1200C5E
:1013000009FA0CF001E007FA0CF000294FF0004850
:1013100001DD18B90FE00ED140450CD319EB0209DD
:101320005F4121B9404502D19F4329EA0209BBEB45
:10133000175F00D0761C2088000502D57B487844D2
:1013400002E07A487844193808AA302302F80A30B3
:10135000037C0AF10101002E0AF1020A53546A4685
:1013600002DC4FF0300101E04FF031014FF0010895
:101370008DF8001002D0A6F2FF3603E059EA4701CB
:1013800000D06B4E002D02DC2178090704D54FF008
:1013900002082E218DF80110C44600210BE0C7F38E
:1013A00003433F01C35C491C6D1E02F80830052948
:1013B00008F1010801DA002DF1DC00210CE000EB5E
:1013C0001973491C1B786D1E082902F808304FEA72
:1013D000091908F1010801DA002DF0DC21688B06FB
:1013E00002D516E0A8F10108E04505DD02EB08038F
:1013F00013F8013C302BF5D0B8F1000F09DD02EBFA
:10140000080313F8013C2E2B03D1090701D4A8F1DE
:101410000108002D05DD3E2102F808106D1E08F1BF
:101420000108407C002E02F8080008F1010804DAE7
:101430002D20764202F8080002E02B2002F8080076
:101440000A214FF47A70864208F101080BDB96FB03
:10145000F0F3303302F8083096FBF0F308F101089E
:1014600000FB136601E0642E0CDB642096FBF0F3B6
:10147000303302F8083096FBF0F308F1010800FB66
:10148000136601E00A2E06DB96FBF1F0303002F81D
:10149000080008F1010896FBF1F001FB1060303004
:1014A00002F80800A16908F1010808EB050202EB47
:1014B0000A00081AA0612078C00602D42046FFF76F
:1014C00028F9216A08AE01EB0A00206204E0D4E9A1
:1014D000012116F8010B9047BAF1010AF7D22078E2
:1014E000C00602D52046FFF714F96E4609E016F84B
:1014F000010B3E280FD0D4E901219047206A401CFF
:101500002062B8F10108F2D22046FFF718F909B0BD
:101510000320BDE8F08F206A2844206203E0D4E96C
:101520000121302090476D1EEBD3F8E79E3000007C
:1015300002FCFFFF10B5436913B1AFF3008001E077
:10154000FFF720F9012010BD127800F124010A7084
:1015500000224A700122EDE711684FF0FF32E9E7FF
:1015600010B5436913B1AFF3008001E0FFF7A4F9B0
:10157000012010BD128800F1240182840022C2845F
:101580000122EDE711684FF0FF32E9E72DE9F04164
:1015900016460C46054600F043F8036893F801012F
:1015A000012807D0FF2C12D8185D80B101202C70C3
:1015B000BDE8F081D3F807013246214603F2071354
:1015C000C7182846BC46BDE8F041002360474FF0ED
:1015D000FF30EDE7754600F0EDF8AE4605006946D0
:1015E000534620F00700854618B020B5FEF762FF8D
:1015F000BDE820404FF000064FF000074FF0000814
:101600004FF0000BAC46ACE8C009ACE8C009ACE850
:10161000C009ACE8C00921F007018D467047000001
:1016200010B500F005F8001D10BD00BF112D000021
:1016300010B500F0BFF8203010BD00002DE9F041DA
:101640001F46044603260168072A01F4006004DBF4
:1016500008B116A505E016A503E008B115A500E040
:1016600015A521F010002060A069C01EA0610FB177
:10167000401EA0612046FFF74CF84FB1D4E901218C
:1016800038469047206A401C2062C01C206206E059
:10169000206AFAE7D4E9012115F8010B9047761E7C
:1016A000F8D22046FFF74BF8BDE8F0814E414E00DE
:1016B0006E616E00494E4600696E66002DE9F04786
:1016C000814616468AB0354878440DC88DE80D002D
:1016D00032487844801C03AC0DC884E80D0041F604
:1016E0009B300844372190FBF1F290FBF1F5A5F116
:1016F000800501FB12041B3C02D56442012000E07E
:101700000020DFF898A080460027FA44AAF1BE0A1C
:101710000EE0E0070AD03246684607EB4701012396
:101720000AEB810102F09DFC8DE8070064107F1C2C
:10173000002CEED1194F7F44AE3F19E0E80715D0D9
:1017400007EB04100DF1180A90E80E008AE80E006D
:10175000C068F04201D1981908903246012306A9C9
:1017600003A802F07EFC03AB83E807006D10641C45
:10177000002DE3D14FF0010332466946B8F1000F66
:1017800003A802D002F058FC01E002F06AFCC9E9AB
:101790000001C9F808200AB0BDE8F087A42D0000B8
:1017A00010B50446AFF300802046BDE81040FEF7B8
:1017B00000BE0000004870470800002080B502F01D
:1017C000D3FDF1EE100A4EF63C71CEF20001086036
:1017D00080BD00004EF20861C4F20F01086840F0BD
:1017E000010008604EF22061C4F20F01086840F069
:1017F00002000860FFE74EF60820C4F20F00006800
:10180000C00708B9FFE7F6E744F22041C4F200013F
:10181000086840F0C000086044F20C51C4F20001B6
:10182000086840F08000086044F21C51C4F20001D6
:10183000086840F0C000086044F22C51C4F2000176
:10184000086820F07F400860086840F04C5008604D
:1018500041F22001C4F202011020086041F20C01A3
:10186000C4F20201072008607047000080B586B00E
:1018700004908DF80F10029201930298002804DC66
:10188000FFE7FF208DF817005BE00498400041F26D
:101890000001C4F2020108609DF80F0041F2080146
:1018A000C4F20201086041F20401C4F20201032003
:1018B000086000F04BF820B1FFE7FF208DF817001B
:1018C0003FE000200090FFE700980299013988422C
:1018D0001BDAFFE701980099405C41F20801C4F26D
:1018E0000201086041F20401C4F202010120086013
:1018F00000F02CF820B1FFE7FE208DF8170020E063
:10190000FFE7009801300090DEE701990298084453
:1019100010F8010C41F20801C4F20201086041F222
:101920000401C4F202010520086000F00FF820B1A4
:10193000FFE7FD208DF8170003E000208DF8170069
:10194000FFE79DF8170006B080BD0000FFE741F2F9
:101950000400C4F202000068C00708B1FFE7F6E720
:1019600041F20400C4F20200006800F00E0070476B
:1019700080B5012000F082F8022000F001FB80BD5C
:1019800080B58CB0FFF726FF40F20C20C2F20000B9
:10199000006848B9FFE7012001F07CF940F20C2112
:1019A000C2F200010860FFE7322000F0E9FA0020EF
:1019B0000B90FFE70B98022829DCFFE738208DF811
:1019C0002B009DF82B0040F004008DF82A00272002
:1019D000069000210791012208920DF12A03FFF7DA
:1019E00045FF089800F0CCFA06980799089A9DF8E8
:1019F0002B308DF829300DF12903FFF737FF052033
:101A000000F0BEFAFFE70B9801300B90D2E72820D8
:101A100003908DF828009DF8280040F004008DF810
:101A200027002720019000210291012204920DF14C
:101A30002703FFF71BFF049800F0A2FA0198029910
:101A4000049A9DF828308DF826300DF12603FFF713
:101A50000DFF0520059000F093FA039800F00EF8B2
:101A60000C2000F00BF8049800F008F8062000F0B5
:101A700005F8059800F084FA0CB080BD80B582B0FE
:101A80008DF807009DF8070000F0F0008DF80200C7
:101A90009DF8070000018DF801009DF8020040F05C
:101AA0000C008DF803009DF8020040F008008DF84E
:101AB00004009DF8010040F00C008DF805009DF831
:101AC000010040F008008DF8060040F20C20C2F240
:101AD0000000006850B1FFE740F20C20C2F20000A5
:101AE00000684FF0FF3101F09BFAFFE7272000214B
:101AF00004220DF10303FFF7B9FE40F20C20C2F2FD
:101B00000000006858B1FFE740F20C20C2F200006C
:101B10000068002319461A4601F0CCF9FFE70220BD
:101B200000F02EFA02B080BD80B582B08DF80700BB
:101B30009DF8070000F0F0008DF802009DF8070006
:101B400000018DF801009DF8020040F00D008DF8B5
:101B500003009DF8020040F009008DF804009DF894
:101B6000010040F00D008DF805009DF8010040F0E7
:101B700009008DF8060040F20C20C2F20000006857
:101B800050B1FFE740F20C20C2F2000000684FF0B5
:101B9000FF3101F045FAFFE72720002104220DF173
:101BA0000303FFF763FE40F20C20C2F2000000685E
:101BB00058B1FFE740F20C20C2F200000068002399
:101BC00019461A4601F076F9FFE7012000F0D8F92E
:101BD00002B080BD80B586B00590059B44F2974267
:101BE000C0F2000201A800901021FEF7EBFC009863
:101BF00000F01EF806B080BD80B584B0039002915D
:101C00004FF48040ADF806000398022803DBFFE79D
:101C100001200390FFE70298039A0DF10601895C09
:101C2000084440F08000C0B2FFF728FF04B080BD38
:101C300080B582B00190FFE70198007838B1FFE7E6
:101C40000198411C01910078FFF76EFFF4E702B0A4
:101C500080BD000000000000000000000000000047
:101C6000EFF30980BFF36F8F154B1A681EF0100F4A
:101C700008BF20ED108A20E9F04F10602DE909001F
:101C80004FF0800080F31188BFF34F8FBFF36F8F49
:101C900000F052FF4FF0000080F31188BDE809000A
:101CA00019680868B0E8F04F1EF0100F08BFB0ECDC
:101CB000108A80F30988BFF36F8F704700BF00BFA1
:101CC00010020020000000000000000000000000E2
:101CD000074B19680868B0E8F04F80F30988BFF334
:101CE0006F8F4FF0000080F31188704700BF00BF76
:101CF0001002002080B54EF21000CEF20000006805
:101D000001F0C0FA012803D0FFE700F0A3FFFFE7CE
:101D100080BD000081B04EF68851CEF20001086807
:101D200040F4700008604EF27001C4F20F0142F6F8
:101D30001000C0F2807008604EF26002C4F20F0220
:101D400043F6D120C0F28E70106042F64250C0F2CD
:101D50009E10106042F60000C0F280100860002063
:101D60000090FFE70098C0087C2805D8FFE7FFE750
:101D7000009801300090F5E74EF26001C4F20F01C7
:101D800040F64250C0F29E1008604EF27001C4F25C
:101D90000F0140F60000C0F28010086000200090A3
:101DA000FFE70098C0087C2805D8FFE7FFE7009808
:101DB00001300090F5E74EF26001C4F20F0140F6E9
:101DC0004250C0F2DE100860FFE74EF25000C4F24D
:101DD0000F00006800F04000402801D0FFE7F4E762
:101DE0004EF26001C4F20F0140F24250C0F2DE1028
:101DF00008604EF27001C4F20F014FF0C07008602D
:101E000000200090FFE7009842F20F71884205D849
:101E1000FFE7FFE7009801300090F4E701B070475A
:101E200080B582B0019000F0FFF858B1FFE700F0F4
:101E3000CDF838B1FFE7019800684FF0FF3101F0AD
:101E4000EFF8FFE702B080BD80B582B00190019845
:101E5000006800F067FD00200090FFE7009804286C
:101E60001AD8FFE701980068009A40F2F811C2F210
:101E7000000151F82210884209D1FFE7009A40F290
:101E8000F811C2F20001002041F8220004E0FFE74F
:101E9000009801300090E1E702B080BD80B584B0C9
:101EA00001900199002008600090FFE70098042845
:101EB00028D8FFE7009940F2F810C2F2000050F86D
:101EC0002100D0B9FFE7009800EB800140F26800E4
:101ED000C2F2000000EB0111012000F0EFFE01460C
:101EE000009A40F2F810C2F2000040F82210009967
:101EF00050F821000199086004E0FFE700980130E4
:101F00000090D3E70198006850B9FFE700F08CF823
:101F100030B1FFE7012000F0BDFE01990860FFE746
:101F200000200390039880F311880198006818B985
:101F3000FFE70020029002E001200290FFE70298F4
:101F400004B080BD80B582B0019000F06DF860B142
:101F5000FFE700F03BF840B1FFE70198006800237D
:101F600019461A4600F0A6FFFFE702B080BD000048
:101F70007047000081B00090002001B07047000061
:101F800080B582B0019001F07DF901280BD0FFE708
:101F900001984FF47A7280FB02010023FEF79AFA4F
:101FA00000F0D2FC10E000200090FFE700980199BB
:101FB0004FF47A625143884205DAFFE7FFE7009861
:101FC00001300090F2E7FFE702B080BD82B0EFF38E
:101FD00005800190019818B1FFE70120009002E010
:101FE00000200090FFE7009802B0704780B582B0F3
:101FF000002000900190FFF7C3FCFFF7B9FC0099A7
:102000000846FFF7F9FD44F28840C0F20000FFF7F0
:102010000FFE00990120FFF7EFFD43F23900FFF7B3
:10202000D9FDFFE7FEE7000080B582B001F02AF994
:10203000022803D1FFE70120019002E00020019077
:10204000FFE7019802B080BD80B588B00790069187
:1020500042F2DC60C2F200000068049040F21420FA
:10206000C2F200000068039040F21C20C2F200009F
:102070000068029040F21020C2F2000002680021C5
:1020800082F85A100068043000F06CFB08B9FFE7D2
:1020900000E0FFE70798013028BBFFE7069810B380
:1020A000FFE7FFE742F2C861C2F200014868019011
:1020B000019A40F21020C2F2000003689A60019A6F
:1020C00092680368DA6002680432019B9B685A6078
:1020D00002680432019B9A6000684161086801301F
:1020E0000860FFE735E004980799084405900598D3
:1020F00040F21021C2F20001096848600598049975
:1021000088420AD2FFE7029840F21021C2F2000191
:102110000968043100F068FB1AE0039840F21021CE
:10212000C2F200010968043100F05EFB059842F23A
:102130009461C2F200010968884207D2FFE705985E
:1021400042F29461C2F20001086000E0FFE7FFE79D
:10215000FFE708B080BD000080B586B0059004910F
:102160000392002002900598806B01900598006C06
:1021700078B9FFE70598006848B9FFE705988068D7
:1021800001F0CCF9029005990020886000E0FFE79B
:1021900041E00398B8B9FFE7059A04995068126CBA
:1021A000FEF730FA059948680A6C104448600599B2
:1021B00048688968884204D3FFE705990868486041
:1021C00000E0FFE726E0059A0499D068126CFEF75C
:1021D00019FA0599C8680A6C801AC86005980168E0
:1021E000C068884206D2FFE7059988680A6C801AA1
:1021F000C86000E0FFE70398022809D1FFE70198D3
:1022000020B1FFE701980138019000E0FFE700E00E
:10221000FFE7FFE7FFE7019801300599886302981F
:1022200006B080BD82B001900198406A38B1FFE7E6
:102230000198006B0068C0F13800009002E00020B7
:102240000090FFE7009802B07047000084B04FF4A0
:102250000050009040F28060C2F2000002909DF8B1
:102260000800400788B1FFE7029807300290029803
:1022700020F007000290029A40F28061C2F2000151
:102280000098891A08440090FFE7029942F2C06062
:10229000C2F200000160002141600298009A1044DF
:1022A0000190019808380190019820F007000190F2
:1022B000019A40F21820C2F20000026002685160E8
:1022C00002681160029903910199039A891A516079
:1022D0000068039908600398406842F29061C2F276
:1022E000000108600398406842F28C61C2F200016C
:1022F000086004B07047000080B582B0019001987A
:1023000068B1FFE70198002383600198036001989A
:10231000C360019819461A4600F0CCFD00E0FFE7C3
:1023200002B080BD80B584B0DDF818C00390029182
:1023300001928DF80330029818B9FFE70698006003
:1023400003E0019806990860FFE703980699C863BF
:102350000298069908640698012100F043FD9DF853
:102360000300069981F84C0004B080BD83B0029050
:1023700042F2C060C2F200000190FFE701980068DD
:102380000299884205D2FFE7FFE7019800680190B3
:10239000F4E7019842F2C061C2F20001884201D024
:1023A000FFE7FFE701980090009801994968084409
:1023B0000299884209D1FFE702984268019948686A
:1023C000104448600198029000E0FFE702980090F6
:1023D000009802994968084401990968884220D107
:1023E000FFE70198006840F21821C2F20001096875
:1023F00088420DD0FFE7019800684268029948685A
:10240000104448600198006800680299086007E07D
:1024100040F21820C2F20000006802990860FFE74D
:1024200004E00198006802990860FFE701980299AA
:10243000884204D0FFE702980199086000E0FFE7B6
:1024400003B0704780B582B0019000F003FA0198A4
:10245000806B18B9FFE70120009002E00020009097
:10246000FFE700F00FFA009802B080BD80B582B09F
:10247000019000F0EFF90198806B0199C96B8842D7
:1024800003D1FFE70120009002E000200090FFE769
:1024900000F0F8F9009802B080BD000040F214206E
:1024A000C2F200000068006840B9FFE742F29461A0
:1024B000C2F200014FF0FF3008600CE040F214203F
:1024C000C2F200000068C068006842F29461C2F283
:1024D00000010860FFE7704780B582B0019000F00E
:1024E000B9F9019890F845008DF80300FFE79DF9D0
:1024F0000300012816DBFFE70198406A58B1FFE7A7
:102500000198243001F032F918B1FFE700F054FAD5
:1025100000E0FFE700E005E09DF8030001388DF8DA
:102520000300E4E70199FF2081F8450000F0AAF9D3
:1025300000F090F9019890F844008DF80200FFE750
:102540009DF90200012816DBFFE70198006980B1C0
:10255000FFE70198103001F009F918B1FFE700F02A
:102560002BFA00E0FFE79DF8020001388DF8020029
:1025700000E000E0E4E70199FF2081F8440000F06A
:1025800081F902B080BD000080B588B007900020BE
:102590000390079840B3FFE7079810F1090F1FD881
:1025A000FFE70798083007909DF81C004007A8B186
:1025B000FFE7079800F00700C0F1080002900798B5
:1025C0000299C943884205D8FFE702990798084451
:1025D000079002E000200790FFE700E0FFE702E03D
:1025E00000200790FFE700E0FFE700F09DFA40F2CF
:1025F0001820C2F20000006818B9FFE7FFF726FEB6
:1026000000E0FFE79DF81F000006002800F1918020
:10261000FFE70798002800F08A80FFE7079842F25A
:102620008C61C2F200010968884200F28080FFE7F5
:1026300042F2C060C2F20000059000680690FFE719
:1026400006984168079A00209142019007D2FFE75F
:1026500006980068002818BF01200190FFE7019844
:10266000C00730B1FFE7069805900698006806900D
:10267000E6E7069840F21821C2F200010968884294
:1026800053D0FFE70598006808300390069800686B
:1026900005990860069840680799401A112815D3D3
:1026A000FFE7069807990844049006984068079940
:1026B000401A049948600798069948600598006890
:1026C0000499086004980599086000E0FFE70698FF
:1026D000426842F28C60C2F200000168891A01600F
:1026E000006842F29061C2F20001096888420BD290
:1026F000FFE742F28C60C2F20000006842F2906193
:10270000C2F20001086000E0FFE70699486840F067
:102710000040486006990020086042F29C61C2F2C5
:10272000000108680130086000E0FFE700E0FFE713
:1027300000E0FFE701F0E4F8039808B080BD000076
:1027400081B040F21020C2F20000006800900098B2
:1027500028B1FFE70099086D01300865FFE7009890
:1027600001B0704782B00190019800690090019813
:102770004168806888600199486889684860009865
:1027800040680199884205D1FFE701988068009967
:10279000486000E0FFE7019900200861009908689F
:1027A000013808600098006802B0704782B001905C
:1027B000009102B07047000081B00090009901F1D3
:1027C0000800486000994FF0FF308860009901F1DF
:1027D0000800C860009901F1080008610099002014
:1027E000086001B07047000084B003900291029825
:1027F000006800900098013020B9FFE70398006955
:10280000019010E0039808300190FFE701984068BC
:1028100000680099884205D8FFE7FFE70198406803
:102820000190F3E7FFE70198406802994860029839
:10283000416888600198029988600298019948600F
:10284000039802990861039908680130086004B090
:102850007047000081B04FF0800080F31188BFF313
:102860006F8FBFF34F8F009040F20000C2F2000064
:102870000168013101600068012801D1FFE7FFE72D
:1028800001B0704781B040F20000C2F20000016860
:1028900001390160006830B9FFE70020009000981E
:1028A00080F31188FFE701B07047000080B584B065
:1028B000039003980290039888B3FFE702980838C2
:1028C0000290029801900198C1790020B0EBD11FCD
:1028D00023D0FFE701980068E8B9FFE7019948684D
:1028E00020F00040486000F01FF90198426842F271
:1028F0008C61C2F200010868104408600198FFF77B
:1029000035FD42F2A061C2F20001086801300860A2
:1029100000F0F6FF00E0FFE700E0FFE7FFE704B0AC
:1029200080BD000080B582B00190019800900098B1
:1029300090F8460020B9FFE70098FFF7B7FF00E0E6
:10294000FFE702B080BD000080B582B0019000209A
:102950000090019850B1FFE700F0E6F801980021DF
:10296000FFF772FB00F0CCFF009000E0FFE700985B
:1029700060B9FFE74EF60451CEF200014FF08050EF
:102980000860BFF34F8FBFF36F8F00E0FFE702B027
:1029900080BD000081B0009042F29860C2F2000059
:1029A00000680099086042F2DC60C2F20000006832
:1029B0000099486001B0704742F2E061C2F2000144
:1029C000012008607047000080B582B0019000913E
:1029D000019840F21021C2F2000109681831FFF796
:1029E00003FF00980121FFF72FFB02B080BD00001C
:1029F00080B588B007900691079805900120029055
:102A00000798002800F08D80FFE70598C06C0699B4
:102A1000884203D2FFE70698039003E00598C06C54
:102A20000390FFE70598C06A0399884277D0FFE7D3
:102A30000598006D012870D1FFE70598C06A0490E1
:102A400003980599C8620598C07E0006002806D440
:102A5000FFE70398C0F138000599886100E0FFE7BF
:102A600005984069049901EB810240F22021C2F2ED
:102A7000000101EB820188424DD1FFE70598043047
:102A8000FFF770FE08B9FFE700E0FFE7FFE7FFE7A9
:102A90000598C06A42F28861C2F200010968884262
:102AA00008D9FFE70598C06A42F28861C2F20001C6
:102AB0000860FFE7FFE7FFE70598C06A00EB8000CA
:102AC00040F22021C2F2000101EB80004068019039
:102AD0000198059A906001988068059AD0600598E1
:102AE0000430019A9268506005980430019A906011
:102AF000059AD06A00EB800001EB800050610598D8
:102B0000C06A00EB800251F82200013041F8220037
:102B1000FFE7FFE700E0FFE700E0FFE700E0FFE797
:102B200000E0FFE708B080BD42F28461C2F200011C
:102B3000086801300860704780B586B042F2846052
:102B4000C2F20000006838B1FFE742F2E061C2F271
:102B50000001012008607BE042F2E061C2F2000166
:102B600000200860FFE740F21020C2F20000006879
:102B7000006B05904FF0A530049005980068B0F107
:102B8000A53F12D1FFE705984068B0F1A53F0CD1F1
:102B9000FFE705988068B0F1A53F06D1FFE70598EB
:102BA000C068B0F1A53F0CD0FFE740F21020C2F2A0
:102BB000000001683431039100680399FFF7F6FDC6
:102BC000FFE7FFE7FFE742F28860C2F2000000681B
:102BD0000290FFE7029800EB800140F22020C2F251
:102BE000000050F8210020B9FFE702980138029058
:102BF000F0E7FFE7029800EB800140F22020C2F2EC
:102C0000000000EB8100019001994868406848602D
:102C1000019948680831884204D1FFE70199C868E2
:102C20004860FFE701984068C06840F21021C2F296
:102C300000010860FFE7029842F28861C2F20001D9
:102C40000860FFE740F21020C2F200000068FFE7D2
:102C500006B080BD80B582B04FF0800080F311884F
:102C6000BFF36F8FBFF34F8F009000F027FB40B191
:102C7000FFE74EF60451CEF200014FF0805008609D
:102C800000E0FFE700200190019880F3118802B076
:102C900080BD000080B584B08DF80F000120019048
:102CA000002100919DF80F2000F022F80290029878
:102CB000FFF722FB029804B080BD000080B586B00B
:102CC0008DF81700049101200290002201929DF8D6
:102CD0001710049BEC46CCF80010114600F04CF89D
:102CE00003900398FFF708FB039806B080BD00002F
:102CF00080B588B0079006918DF8172000200490C9
:102D00000798A0B3FFE707994FF0FF30B0FBF1F051
:102D1000069988422BD3FFE707980699484310F19C
:102D2000510F24D8FFE7079806994843039003986A
:102D30005030FFF729FC04900498B0B1FFE70498E5
:102D400002900298503002900499002081F84600C9
:102D500007980699029A9DF81730DDF810C0EE46E4
:102D6000CEF800C0FFF7DEFA00E0FFE700E0FFE783
:102D7000049808B080BD000080B588B084460A98E9
:102D8000CDF81CC00691059204938DF80F00002029
:102D90000290079810B3FFE70498F8B1FFE7059891
:102DA00018B1FFE70698C8B1FFE7059818B9FFE723
:102DB000069898B9FFE7049802900299012081F8DB
:102DC000460007980699059A9DF80F30DDF808C06F
:102DD000EE46CEF800C0FFF7A5FA00E0FFE7029844
:102DE00008B080BD80B584B00390029101200190AD
:102DF000039800900098002856D0FFE70098C06B19
:102E0000002851D0FFE70098C26B016C4FF0FF30F3
:102E1000B0FBF2F0884247D3FFE7FFF71BFD0099B4
:102E20000B68C86B0A6C00FB0230886000990020B8
:102E3000886300990868486000990B68C86B0A6C41
:102E4000013800FB0230C8600099FF2081F844007F
:102E5000009981F845000298D0B9FFE70098006911
:102E6000A0B1FFE70098103000F080FC60B1FFE7F0
:102E70004EF60451CEF200014FF080500860BFF3CF
:102E80004F8FBFF36F8F00E0FFE700E0FFE708E040
:102E900000981030FFF790FC00982430FFF78CFC6E
:102EA000FFE7FFF7EFFC02E000200190FFE7019849
:102EB00004B080BD80B58AB0089007910692059352
:102EC0000020049008980090FFE7FFF7C3FC0098EB
:102ED000806B0099C96B884204D3FFE705980228EC
:102EE00034D1FFE700980799059AFFF735F9039069
:102EF0000098406AA0B1FFE70098243000F036FC4B
:102F000060B1FFE74EF60451CEF200014FF0805061
:102F10000860BFF34F8FBFF36F8F00E0FFE710E053
:102F2000039860B1FFE74EF60451CEF200014FF076
:102F300080500860BFF34F8FBFF36F8F00E0FFE753
:102F4000FFE7FFF79FFC0120099065E0069828B98C
:102F5000FFE7FFF797FC002009905DE0049830B987
:102F6000FFE701A8FFF716FD0120049000E0FFE74E
:102F7000FFE7FFE7FFF786FCFFF7D6FDFFF76AFCE8
:102F8000009890F94400013028B9FFE7009900202B
:102F900081F84400FFE7009890F94500013028B916
:102FA000FFE70099002081F84500FFE7FFF76AFC82
:102FB00001A806A900F004F928BBFFE70098FFF775
:102FC00055FAC8B1FFE7009810300699FFF7FCFCEE
:102FD0000098FFF781FA00F093FC60B9FFE74EF626
:102FE0000451CEF200014FF080500860BFF34F8FC4
:102FF000BFF36F8FFFE705E00098FFF76DFA00F071
:103000007FFCFFE707E00098FFF766FA00F078FC26
:103010000020099000E058E709980AB080BD000040
:1030200080B58AB008900791002006900899039116
:103030000290FFE7FFF70EFC0398806B0190019868
:1030400060B3FFE70198013803998863039800682B
:1030500028B9FFE7FFF774FB0399886000E0FFE7FA
:1030600003980069A0B1FFE70398103000F07EFBE1
:1030700060B1FFE74EF60451CEF200014FF08050F0
:103080000860BFF34F8FBFF36F8F00E0FFE700E0F2
:10309000FFE7FFF7F7FB012009908DE0079828B9BB
:1030A000FFE7FFF7EFFB0020099085E0069830B9B5
:1030B000FFE704A8FFF76EFC0120069000E0FFE7A1
:1030C000FFE7FFE7FFF7DEFBFFF72EFDFFF7C2FB91
:1030D000039890F94400013028B9FFE703990020D4
:1030E00081F84400FFE7039890F94500013028B9C2
:1030F000FFE70399002081F84500FFE7FFF7C2FBD7
:1031000004A807A900F05CF8A8BBFFE70398FFF745
:1031100099F948B3FFE70398006850B9FFE7FFF754
:1031200099FB0398806800F073FA0290FFF7AAFBFE
:1031300000E0FFE7039824300799FFF745FC039868
:10314000FFF7CAF900F0DCFB60B9FFE74EF6045167
:10315000CEF200014FF080500860BFF34F8FBFF3F5
:103160006F8F00E0FFE705E00398FFF7B5F900F087
:10317000C7FBFFE71FE00398FFF7AEF900F0C0FBC5
:103180000398FFF75FF9A0B1FFE7029870B1FFE77E
:10319000FFF760FB0398FFF745F8009003988068FD
:1031A0000099FFF725FCFFF76DFBFFE70020099072
:1031B00002E0FFE7FFE73DE709980AB080BD0000A5
:1031C00080B586B005900491FFF744FB42F2DC60C5
:1031D000C2F2000000680290029805994968401AFE
:1031E000019040F21020C2F20000006890F85A00EE
:1031F00058B1FFE740F21020C2F200000168002041
:1032000081F85A000120039037E0049800680130EB
:1032100018B9FFE7002003902EE042F29860C2F256
:10322000000000680599096888420CD0FFE7029801
:1032300005994968884206D3FFE701200390049965
:103240000020086017E001980499096888420BD2B1
:10325000FFE7019A04990868801A08600598FFF74B
:1032600099FB0020039005E00499002008600120EC
:103270000390FFE7FFE7FFE7FFE7FFF703FB039894
:1032800006B080BD81B042F2BC60C2F200000068AE
:1032900018B9FFE7012000900DE042F28460C2F20D
:1032A0000000006818B9FFE70220009002E000204B
:1032B0000090FFE7FFE7009801B0704780B588B045
:1032C0000020059042F28460C2F2000000680028ED
:1032D00040F01881FFE742F2DC61C2F200010868A9
:1032E00001300490049808600498D0B9FFE7FFE724
:1032F00040F21422C2F200021068039040F21C2136
:10330000C2F20001086810600398086042F29861F8
:10331000C2F20001086801300860FFF7BFF8FFE75C
:1033200000E0FFE7049842F29461C2F200010968EC
:103330008842C0F0C680FFE7FFE740F21420C2F2E7
:1033400000000068006840B9FFE742F29461C2F2F1
:1033500000014FF0FF300860B2E040F21420C2F2EA
:1033600000000068C068C068079007984068069031
:1033700004980699884207D2FFE7069842F29461C2
:10338000C2F2000108609BE0FFE7FFE70798406991
:10339000029007988168C068886007998868C96842
:1033A00048600298406807990431884205D1FFE7D8
:1033B0000798C06802994860FFE7079900204861B4
:1033C0000299086801380860FFE70798806A08B327
:1033D000FFE7FFE70798806A01900798C169006AD4
:1033E00088600799C869096A486001984068079928
:1033F0001831884205D1FFE70798006A01994860B3
:10340000FFE7079900208862019908680138086081
:10341000FFE700E0FFE7FFE7FFE70798C06A42F237
:103420008861C2F200010968884208D9FFE707985D
:10343000C06A42F28861C2F200010860FFE7FFE75C
:10344000FFE70798C06A00EB800040F22021C2F23B
:10345000000101EB8000406800900098079A90609E
:1034600000988068079AD06007980430009A9268A4
:10347000506007980430009A9060079AD06A00EB79
:10348000800001EB800050610798C06A00EB800269
:1034900051F82200013041F82200FFE7FFE70798CA
:1034A000C06A40F21021C2F200010968C96A88426C
:1034B00003D9FFE70120059000E0FFE7FFE73CE7C5
:1034C000FFE740F21020C2F200000068C06A00EB83
:1034D000800140F22020C2F2000050F821000228B2
:1034E00003D3FFE70120059000E0FFE742F2E06030
:1034F000C2F20000006818B1FFE70120059000E06B
:10350000FFE707E042F2A461C2F20001086801305F
:103510000860FFE7059808B080BD000080B584B062
:1035200003900398029000200190039800286AD02D
:10353000FFE70299086D013808650299C86AC96CED
:1035400088425ED0FFE70298006D002857D1FFE760
:1035500002980430FFF706F908B9FFE700E0FFE73B
:103560000299C86CC8620299C86AC0F138008861C3
:10357000FFE7FFE70298C06A42F28861C2F20001E9
:103580000968884208D9FFE70298C06A42F2886158
:10359000C2F200010860FFE7FFE7FFE70298C06A98
:1035A00000EB800040F22021C2F2000101EB80001C
:1035B000406800900098029A906000988068029A93
:1035C000D06002980430009A9268506002980430EB
:1035D000009A9060029AD06A00EB800001EB8000B4
:1035E00050610298C06A00EB800251F8220001305D
:1035F00041F82200FFE7FFE70120019000E0FFE72C
:1036000000E0FFE700E0FFE7019804B080BD0000A4
:1036100080B584B003900398029000200190039835
:10362000002800F09F80FFE70298C06A40F2102156
:10363000C2F200010968C96A884280F08280FFE70F
:103640000298C07E000600280BD4FFE740F210204D
:10365000C2F200000068C06AC0F1380002998861B7
:1036600000E0FFE702994869C96A01EB810240F274
:103670002021C2F2000101EB8201884255D1FFE70F
:1036800002980430FFF76EF808B9FFE700E0FFE7A3
:1036900040F21020C2F200000068C06A0299C862BD
:1036A000FFE7FFE70298C06A42F28861C2F20001B8
:1036B0000968884208D9FFE70298C06A42F2886127
:1036C000C2F200010860FFE7FFE7FFE70298C06A67
:1036D00000EB800040F22021C2F2000101EB8000EB
:1036E000406800900098029A906000988068029A62
:1036F000D06002980430009A9268506002980430BA
:10370000009A9060029AD06A00EB800001EB800082
:1037100050610298C06A00EB800251F8220001302B
:1037200041F82200FFE7FFE708E040F21020C2F274
:1037300000000068C06A0299C862FFE7012001909A
:103740000FE00298C06C40F21021C2F2000109683B
:10375000C96A884203D2FFE70120019000E0FFE739
:10376000FFE700E0FFE7019804B080BD87B0069056
:103770000698C068C0680590FFE70598806A0390C6
:103780000598C169006A88600599C869096A486036
:103790000398406805991831884205D1FFE70598DC
:1037A000006A03994860FFE7059900208862039941
:1037B000086801380860FFE742F28460C2F2000046
:1037C0000068002865D1FFE7FFE70598406902908F
:1037D00005988168C068886005998868C9684860EC
:1037E0000298406805990431884205D1FFE70598A1
:1037F000C06802994860FFE7059900204861029976
:10380000086801380860FFE7FFE7FFE70598C06A2E
:1038100042F28861C2F200010968884208D9FFE7D4
:103820000598C06A42F28861C2F200010860FFE7B1
:10383000FFE7FFE70598C06A00EB800040F2202117
:10384000C2F2000101EB8000406801900198059AE6
:10385000906001988068059AD06005980430019ABC
:103860009268506005980430019A9060059AD06A79
:1038700000EB800001EB800050610598C06A00EB0E
:10388000800251F82200013041F82200FFE7FFE7F3
:103890001DE0FFE742F2A861C2F200014868009013
:1038A0000098059AD06100988068059A1062059882
:1038B0001830009A9268506005981830009A90600D
:1038C00005988162086801300860FFE7FFE7059806
:1038D000C06A40F21021C2F200010968C96A884238
:1038E00008D9FFE70120049042F2E061C2F2000132
:1038F000086002E000200490FFE7049807B07047DA
:1039000080B588B00020009007900690FEF7A2FFD7
:103910000098059042F28460C2F20000016801390B
:1039200001600068002840F00481FFE742F28060F7
:10393000C2F200000068002800F0FA80FFE7FFE70D
:1039400042F2A860C2F200000068002800F0A280E5
:10395000FFE742F2A860C2F20000C068C0680790AA
:10396000FFE70798806A04900798C169006A886039
:103970000799C869096A486004984068079918312E
:10398000884205D1FFE70798006A04994860FFE77D
:103990000799002088620499086801380860FFE7E9
:1039A000FFE707984069039007988168C0688860BE
:1039B00007998868C9684860039840680799043186
:1039C000884205D1FFE70798C06803994860FFE780
:1039D0000799002048610399086801380860FFE7EB
:1039E000FFE7FFE70798C06A42F28861C2F2000170
:1039F0000968884208D9FFE70798C06A42F28861DF
:103A0000C2F200010860FFE7FFE7FFE70798C06A1E
:103A100000EB800040F22021C2F2000101EB8000A7
:103A2000406802900298079A906002988068079A0E
:103A3000D06007980430029A92685060079804306A
:103A4000029A9060079AD06A00EB800001EB800038
:103A500050610798C06A00EB800251F822000130E3
:103A600041F82200FFE7FFE70798C06A40F2102103
:103A7000C2F200010968C96A884209D9FFE7059ABC
:103A800042F2E061C2F20001012041F8220000E0B0
:103A9000FFE755E7079818B1FFE7FEF7FFFCFFE7E0
:103AA00042F2A460C2F20000006801900198F0B1F7
:103AB000FFE7FFE7FFF702FC48B1FFE7059A42F294
:103AC000E061C2F20001012041F8220000E0FFE7BE
:103AD000019801380190FFE701980028EAD1FFE73B
:103AE00042F2A461C2F200010020086000E0FFE79A
:103AF000059942F2E060C2F2000050F82100A8B13E
:103B0000FFE701200690FFE740F21020C2F200001C
:103B100000684EF60451CEF200014FF0805008606C
:103B2000BFF34F8FBFF36F8FFFE700E0FFE7FFE7C3
:103B300000E0FFE7FEF7A6FE069808B080BD5FEA4A
:103B4000400C08BF91F0000F4FEA8C234FEAC122CE
:103B500043EA51514FEA1C5018BF00F5F0404FEABC
:103B6000300018BF41F000415FEA6C5C00F0298032
:103B7000BCF1FF3F08BF40F080407047130C06BF08
:103B800012044FF0100C4FF0000C130E04BF120281
:103B90000CF1080C130F04BF12010CF1040C930F6D
:103BA00004BF92000CF1020CD30F04BF52000CF1C1
:103BB000010C11464FF00002A0F11F00A0EB0C0019
:103BC000704711F0004F08BF704731F000413FF4DB
:103BD000D5AF0B0C06BF09044FF0100C4FF0000CD2
:103BE0000B0E04BF09020CF1080C0B0F04BF0901F6
:103BF0000CF1040C8B0F04BF89000CF1020CCB0FED
:103C000004BF49000CF1010CCCF1200322FA03F3AC
:103C100041EA030102FA0CF2A0EB0C0000F10100F2
:103C20007047000023F07F4720F07F4C80EA0300BC
:103C300000F00040ACEB070303F57C5303F1FF03F6
:103C40002DE9804909B44FEA144324EA03484FEAB6
:103C5000154B25EA0B4E0FF2042606EB13273E7890
:103C600003FB0667C7F5000707FB06F64FEAD646D3
:103C700006F102064FEA543707FB066CCCF1005CF4
:103C80004FEA1C472CEA074C0CFB06F507FB06F431
:103C900004EB15464FEA961649085FEA320234BF34
:103CA00000204FF000404FEAD13706FB07FC4FEAF7
:103CB0001C4C0CFB0BF7D21B03FB0CF761EB070151
:103CC0000CFB0EF7B0EB074072EB17420CFB08F74A
:103CD00034BFA2EB0742B2EB074261EB17414FEA58
:103CE0000C444FEA910706FB07FC4FEA1C4C0CFB07
:103CF0000BF7B0EBC74072EB573203FB0CF734BF46
:103D0000A2EBC742B2EBC74261EB57310CFB0EF797
:103D1000B0EBC70072EB57720CFB08F734BFA2EB95
:103D2000C702B2EBC70261EB57714FEA816141EA0A
:103D300092114FEA826242EA90124FEA806004EBED
:103D4000CC04039F4FEAD13706FB07FC4FEA1C4C1B
:103D50000CFB0BF7D21B03FB0CF761EB07010CFB11
:103D60000EF7B0EB074072EB17420CFB08F734BFBD
:103D7000A2EB0742B2EB074261EB17414FEA8C55C9
:103D800004EB9C244FEA910706FB07FC4FEA1C4C0E
:103D90000CFB0BF7B0EBC74072EB573203FB0CF791
:103DA00034BFA2EBC742B2EBC74261EB57310CFB09
:103DB0000EF7B0EBC70072EB57720CFB08F734BF7D
:103DC000A2EBC702B2EBC70261EB57714FEA816108
:103DD00041EA92114FEA826242EA90124FEA806011
:103DE00015EB4C2544F100044FEAD13706FB07FCE4
:103DF0004FEA1C4C0CFB0BF7D21B03FB0CF761EBDF
:103E000007010CFB0EF7B0EB074072EB17420CFBFF
:103E100008F734BFA2EB0742B2EB074261EB174150
:103E20004FEA813141EA92414FEA823242EA9042BE
:103E30004FEA80304FEA0C7615EB1C1544F1000474
:103E400048EA03434EEA0B484FF0000EB2EB080C71
:103E500071EB030724BF624639464EEB0E0E4FF05E
:103E6000000B0018524149414BEB0B0BB2EB080C15
:103E700071EB03077BF1000B24BF624639464EEB22
:103E80000E0E4FF0000B0018524149414BEB0B0B4B
:103E9000B2EB080C71EB03077BF1000B24BF624609
:103EA00039464EEB0E0E51EA020718BF46F00106E6
:103EB00016EB0E7655F1000254F1000103D5BDE872
:103EC0008901BDE80088BDE88901BDE80048B61950
:103ED000524141EB0101A3F10103704780807F7ED5
:103EE0007D7C7B7A79787776767574737271717070
:103EF0006F6E6E6D6C6C6B6A6A6968686766666522
:103F00006464636362616160605F5F5E5E5D5D5CAF
:103F10005C5B5B5A5A595958585757565655555520
:103F20005454535352525251515050504F4F4F4E80
:103F30004E4D4D4D4C4C4C4B4B4B4A4A4A494949CE
:103F40004848484747474746464645454544444410
:103F50004443434343424242424141419C46002B39
:103F600030D477002BD04FEA37071CB503B44FF09D
:103F700010004FF01001BAF1000F06D0BCF1000F95
:103F8000DCBF40F0080040F008014FF000000FBC1B
:103F9000BDE810400BF1010BBBF1010F08BF5FEA58
:103FA000170722BF12F1010211F101014FF0004188
:103FB00043F1000300F0004043EA00007047F9D3EA
:103FC0005708D0E746EA06464FEA164613F1400F77
:103FD0001FDD13F1200FDFBF16430A4600212033F7
:103FE0005B42BED0C3F1200746EA06464FEA1646BA
:103FF00002FA07F746EA070622FA03F2C3F120079E
:1040000001FA07F742EA070221FA03F14FF0000331
:10401000A7E746EA020646EA06464FEA164646EA99
:104020000106BCBF46EA0646360C4FF000034FF0CF
:1040300000024FF0000194E72DE9804C70B49A46DD
:10404000934691E8380007C831EA400C48BF34EA8B
:10405000430C03D5FFF7E6FDFFF780FFF0BCBDE89A
:10406000008C2DE9804C70B49A46934691E8380054
:1040700007C810F0804F08BF13F0804F03D100F045
:1040800005F8FFF76BFFF0BCBDE8008C20F07F4720
:1040900023F07F4C80EA030000F0004007EB0C03A4
:1040A000A3F57C53A3F1FE0392F0000F00F0B38060
:1040B00095F0000F00F077802DE901494FEA11409B
:1040C00021EA00484FEA144624EA064700FB06FCB2
:1040D00008FB06F607FB08F818EB06484CEB164CF5
:1040E00000FB07F718EB07484CEB17404FEA124B61
:1040F00022EA0B4E4FEA154625EA06470BFB06FC63
:104100000EFB06F607FB0EFE1EEB064E4CEB164CA6
:104110000BFB07F71EEB074E4CEB174B18EB0B088E
:1041200040F1000018EB0E0B58EB000840F10000C6
:104130008F1A4FF000014FF000063CBFC943661BC9
:1041400014BFB5EB040C00213CBFC943F61B4FEA7A
:10415000174427EA04454FEA1C472CEA074C04FBA6
:10416000076205FB07F70CFB05F616EB074642EB6B
:10417000174204FB0CFC16EB0C4642EB1C421BEBFB
:10418000060658EB020241414EEA8E0E46EA9E06B2
:1041900001D5BDE80189B619524141EB0101A3F1F6
:1041A0000103BDE801894FEA144524EA05464FEAB8
:1041B000114721EA074C05FB07F406FB07F70CFB48
:1041C00006F111EB074144EB174405FB0CFC11EB26
:1041D0000C4144EB1C444FEA124722EA074C05FB12
:1041E00007F206FB07F70CFB06F616EB074642EB59
:1041F000174205FB0CFC16EB0C4642EB1C456A18FB
:1042000054F1000148BF7047B619524141EB01011A
:10421000A3F10103704795F0000F37D04FEA114228
:1042200021EA02464FEA144724EA074C02FB07F151
:1042300006FB07F70CFB06F414EB074441EB1741B0
:1042400002FB0CFC14EB0C4441EB1C414FEA1547FC
:1042500025EA074C02FB07F506FB07F70CFB06F601
:1042600016EB074645EB174502FB0CFC16EB0C461C
:1042700045EB1C42121951F1000148BF7047B619B5
:10428000524141EB0101A3F1010370474FEA14458C
:1042900024EA05464FEA114721EA074C05FB07F1DE
:1042A00006FB07F70CFB06F212EB074241EB174146
:1042B00005FB0CFC12EB0C4251EB1C414FF00006CD
:1042C00048BF7047921841EB0101A3F10103704709
:1042D00003B401984100009850EAC12018BF04209F
:1042E0004A0D18BF40F0010040F2FF72B2EB515F7F
:1042F00008BF40F00200012808BF052002B0704747
:1043000030380A2801D20120704700207047000091
:1043100010B500290AD00878002807D0054878444D
:10432000FCF7B6F9002801D0002010BD02487844FF
:1043300010BD00009E0100009601000010B500298C
:104340000AD00878002807D005487844FCF7A0F97F
:10435000002801D0002010BD0248784410BD0000A4
:104360008E01000086010000F1EE100A4FF6FF7189
:10437000C0F2C03120EA010040F04070E1EE100AC6
:104380007047FCF723BEFCF757BF00000000000099
:10439000000000003031323334353637383941428D
:1043A0004344454640305800303132333435363797
:1043B0003839616263646566403078000400000843
:1043C0000000000000000002000100001030313247
:1043D0003334353637383961626364656678700026
:1043E000303132333435363738394142434445462B
:1043F0005850000002400000000000A00000000033
:1044000005400000000000C8000000000C40000053
:104410000000409C00000000194000000020BCBECD
:104420000000000034400000BFC91B8E00000004E3
:10443000B5400000504BCFD06607E2CF010000002E
:104440006C4100003E8251AADFEEA734010000005B
:10445000D9420000DCB5A0E23A301F97FFFFFFFF12
:10446000B4450000FD25A0C8E9A3C14FFFFFFFFF31
:10447000FF3F00000000008000000000FF3F000040
:10448000000000800000000048656C6C6F20544DF7
:10449000344331323321002564000000E845000038
:1044A0000000002004000000A8020000EC4500000D
:1044B00008000020E0280000C40200001C000000EA
:1044C00043000000F8FFFFFF0C0000000E0000009A
:1044D0000F0000002E00000010010000430000004B
:1044E000F8FFFFFF00404040404040404040414115
:1044F00041414140404040404040404040404040B9
:104500004040404040050202020202020202020252
:10451000020202020220202020202020202020024F
:1045200002020202020290909090909010101010DF
:10453000101010101010101010101010101010107B
:10454000020202020202888888888888080808080F
:1045500008080808080808080808080808080808DB
:104560000202020240000000000000000000000003
:10457000000000000000000000000000000000003B
:10458000000000000000000000000000000000002B
:10459000000000000000000000000000000000001B
:1045A000000000000000000000000000000000000B
:1045B00000000000000000000000000000000000FB
:1045C00000000000000000000000000000000000EB
:1045D00000000000000000000000000000000000DB
:0C45E0000000000000000000AAAAAAAA27
:04000005000003C133
:00000001FF
